:020000040800F2
:1000000000000320DD370008F9340008FF34000841
:10001000053500080B350008113500080000000008
:10002000000000000000000000000000173500087C
:100030002535000800000000333500084135000870
:1000400035380008353800083538000835380008DC
:1000500035380008353800083538000835380008CC
:1000600035380008353800083538000835380008BC
:1000700035380008353800083538000835380008AC
:10008000353800083538000835380008353800089C
:10009000353800083538000835380008353800088C
:1000A000353800083538000835380008353800087C
:1000B000353800083538000835380008353800086C
:1000C000353800083538000835380008353800085C
:1000D0004D3500086135000835380008353800080E
:1000E00075350008353800083538000835380008FF
:1000F000353800083538000835380008353800082C
:10010000353800083538000835380008353800081B
:10011000353800083538000835380008353800080B
:1001200035380008353800083538000835380008FB
:0C01300035380008353800083538000864
:1001400010B5054C237833B9044B13B10448AFF311
:1001500000800123237010BDFC010020000000007E
:1001600014DE000808B5034B1BB103490348AFF385
:10017000008008BD000000000002002014DE00081E
:10018000034613F8012B002AFBD1181A01387047D7
:1001900001F0FF01102A2BDB10F0070F08D010F838
:1001A000013B013A8B422DD010F0070F42B3F6D13C
:1001B000F0B441EA012141EA014122F007047FF055
:1001C00000070023F0E80256083C85EA010586EAAC
:1001D000010685FA47F5A3FA87F586FA47F6A5FAE8
:1001E00087F68EB9EED1F0BC01F0FF0102F00702F4
:1001F00032B110F8013B013A83EA010313B1F8D19F
:100200000020704701387047002D06BF354603387F
:10021000073815F0010F07D1013015F4807F02BFB8
:10022000013015F4C03F0130F0BC0138704700BF09
:1002300081F0004102E000BF83F0004330B54FEA97
:1002400041044FEA430594EA050F08BF90EA020F04
:100250001FBF54EA000C55EA020C7FEA645C7FEA97
:10026000655C00F0E2804FEA5454D4EB5555B8BFBA
:100270006D420CDD2C4480EA020281EA030382EA2B
:10028000000083EA010180EA020281EA0303362DBD
:1002900088BF30BD11F0004F4FEA01314FF4801C90
:1002A0004CEA113102D0404261EB410113F0004FA2
:1002B0004FEA03334CEA133302D0524263EB430359
:1002C00094EA050F00F0A780A4F10104D5F1200EF7
:1002D0000DDB02FA0EFC22FA05F2801841F1000152
:1002E00003FA0EF2801843FA05F359410EE0A5F126
:1002F00020050EF1200E012A03FA0EFC28BF4CF057
:10030000020C43FA05F3C01851EBE37101F000450C
:1003100007D54FF0000EDCF1000C7EEB00006EEB19
:100320000101B1F5801F1BD3B1F5001F0CD34908A3
:100330005FEA30004FEA3C0C04F101044FEA4452FA
:1003400012F5800F80F09A80BCF1004F08BF5FEA81
:10035000500C50F1000041EB045141EA050130BD61
:100360005FEA4C0C404141EB0101013C28BFB1F573
:10037000801FE9D291F0000F04BF01460020B1FABE
:1003800081F308BF2033A3F10B03B3F120020CDA91
:100390000C3208DD02F1140CC2F10C0201FA0CF06F
:1003A00021FA02F10CE002F11402D8BFC2F1200CD4
:1003B00001FA02F120FA0CFCDCBF41EA0C0190408A
:1003C000E41AA2BF01EB0451294330BD6FEA0404D3
:1003D0001F3C1CDA0C340EDC04F11404C4F12002BE
:1003E00020FA04F001FA02F340EA030021FA04F3D0
:1003F00045EA030130BDC4F10C04C4F1200220FA27
:1004000002F001FA04F340EA0300294630BD21FA64
:1004100004F0294630BD94F0000F83F4801306BF2A
:1004200081F480110134013D4EE77FEA645C18BF1E
:100430007FEA655C29D094EA050F08BF90EA020FB5
:1004400005D054EA000C04BF1946104630BD91EAAD
:10045000030F1EBF0021002030BD5FEA545C05D1B0
:100460004000494128BF41F0004130BD14F58004EF
:100470003CBF01F5801130BD01F0004545F0FE4163
:1004800041F470014FF0000030BD7FEA645C1ABF98
:10049000194610467FEA655C1CBF0B46024650EACF
:1004A000013406BF52EA033591EA030F41F40021FB
:1004B00030BD00BF90F0000F04BF0021704730B581
:1004C0004FF4806404F132044FF000054FF0000156
:1004D00050E700BF90F0000F04BF0021704730B517
:1004E0004FF4806404F1320410F0004548BF4042EC
:1004F0004FF000013EE700BF42004FEAE2014FEA41
:1005000031014FEA02701FBF12F07F4393F07F4F1B
:1005100081F06051704732F07F4208BF704793F01E
:100520007F4F04BF41F40021704730B54FF4607431
:1005300001F0004521F000411CE700BF50EA010234
:1005400008BF704730B54FF000050AE050EA0102DD
:1005500008BF704730B511F0004502D5404261EB4D
:1005600041014FF4806404F132045FEA915C3FF48E
:10057000D8AE4FF003025FEADC0C18BF03325FEA2B
:10058000DC0C18BF033202EBDC02C2F1200300FADC
:1005900003FC20FA02F001FA03FE40EA0E0021FA01
:1005A00002F11444BDE600BF70B54FF0FF0C4CF4EF
:1005B000E06C1CEA11541DBF1CEA135594EA0C0FA1
:1005C00095EA0C0F00F0DEF82C4481EA030621EADC
:1005D0004C5123EA4C5350EA013518BF52EA033517
:1005E00041F4801143F4801338D0A0FB02CE4FF0C9
:1005F0000005E1FB02E506F00042E0FB03E54FF0F9
:100600000006E1FB03569CF0000F18BF4EF0010EF0
:10061000A4F1FF04B6F5007F64F5407404D25FEAEC
:100620004E0E6D4146EB060642EAC62141EA55519F
:100630004FEAC52040EA5E504FEACE2EB4F1FD0CE1
:1006400088BFBCF5E06F1ED8BEF1004F08BF5FEA5F
:10065000500E50F1000041EB045170BD06F0004611
:1006600046EA010140EA020081EA0301B4EB5C04BE
:10067000C2BFD4EB0C0541EA045170BD41F48011B6
:100680004FF0000E013C00F3AB8014F1360FDEBFDB
:10069000002001F0004170BDC4F10004203C35DAB7
:1006A0000C341BDC04F11404C4F1200500FA05F33A
:1006B00020FA04F001FA05F240EA020001F00042DB
:1006C00021F0004110EBD37021FA04F642EB060151
:1006D0005EEA430E08BF20EAD37070BDC4F10C047B
:1006E000C4F1200500FA04F320FA05F001FA04F23F
:1006F00040EA020001F0004110EBD37041F100012B
:100700005EEA430E08BF20EAD37070BDC4F1200535
:1007100000FA05F24EEA020E20FA04F301FA05F29D
:1007200043EA020321FA04F001F0004121FA04F245
:1007300020EA020000EBD3705EEA430E08BF20EA15
:10074000D37070BD94F0000F0FD101F0004640004F
:1007500041EB010111F4801F08BF013CF7D041EAD1
:10076000060195F0000F18BF704703F000465200D5
:1007700043EB030313F4801F08BF013DF7D043EAA6
:100780000603704794EA0C0F0CEA135518BF95EA5C
:100790000C0F0CD050EA410618BF52EA4306D1D1E3
:1007A00081EA030101F000414FF0000070BD50EA02
:1007B000410606BF1046194652EA430619D094EA8C
:1007C0000C0F02D150EA013613D195EA0C0F05D176
:1007D00052EA03361CBF104619460AD181EA0301CA
:1007E00001F0004141F0FE4141F470014FF0000082
:1007F00070BD41F0FE4141F4780170BD70B54FF01D
:10080000FF0C4CF4E06C1CEA11541DBF1CEA13559C
:1008100094EA0C0F95EA0C0F00F0A7F8A4EB05047E
:1008200081EA030E52EA03354FEA013100F0888075
:100830004FEA03334FF0805545EA131343EA12633E
:100840004FEA022245EA111545EA10654FEA0026F3
:100850000EF000419D4208BF964244F1FD0404F5AC
:10086000407402D25B084FEA3202B61A65EB030508
:100870005B084FEA32024FF480104FF4002CB6EBC5
:10088000020E75EB030E22BFB61A754640EA0C0045
:100890005B084FEA3202B6EB020E75EB030E22BF85
:1008A000B61A754640EA5C005B084FEA3202B6EBC6
:1008B000020E75EB030E22BFB61A754640EA9C0085
:1008C0005B084FEA3202B6EB020E75EB030E22BF55
:1008D000B61A754640EADC0055EA060E18D04FEA13
:1008E000051545EA16754FEA06164FEAC30343EAB3
:1008F00052734FEAC2025FEA1C1CC0D111F4801F80
:100900000BD141EA00014FF000004FF0004CB6E778
:1009100011F4801F04BF01430020B4F1FD0C88BF17
:10092000BCF5E06F3FF6AFAEB5EB030C04BFB6EB22
:10093000020C5FEA500C50F1000041EB045170BD15
:100940000EF0004E4EEA113114EB5C04C2BFD4EB42
:100950000C0541EA045170BD41F480114FF0000EC6
:10096000013C90E645EA060E8DE60CEA135594EA42
:100970000C0F08BF95EA0C0F3FF43BAF94EA0C0F45
:100980000AD150EA01347FF434AF95EA0C0F7FF4BA
:1009900025AF104619462CE795EA0C0F06D152EA0E
:1009A00003353FF4FDAE1046194622E750EA4106F2
:1009B00018BF52EA43067FF4C5AE50EA41047FF403
:1009C0000DAF52EA43057FF4EBAE12E74FF0FF3C68
:1009D00006E000BF4FF0010C02E000BF4FF0010C39
:1009E0004DF804CD4FEA410C7FEA6C5C4FEA430CB2
:1009F00018BF7FEA6C5C1BD001B050EA410C0CBF01
:100A000052EA430C91EA030F02BF90EA020F002062
:100A1000704710F1000F91EA030F58BF994208BFC9
:100A200090422CBFD8176FEAE37040F00100704786
:100A30004FEA410C7FEA6C5C02D150EA013C07D1DD
:100A40004FEA430C7FEA6C5CD6D152EA033CD3D028
:100A50005DF8040B704700BF8446104662468C4622
:100A60001946634600E000BF01B5FFF7B7FF002855
:100A700048BF10F1000F01BD4DF808EDFFF7F4FF7E
:100A80000CBF012000205DF808FB00BF4DF808ED09
:100A9000FFF7EAFF34BF012000205DF808FB00BF2C
:100AA0004DF808EDFFF7E0FF94BF012000205DF84E
:100AB00008FB00BF4DF808EDFFF7CEFF94BF012003
:100AC00000205DF808FB00BF4DF808EDFFF7C4FFFC
:100AD00034BF012000205DF808FB00BF4FEA410C45
:100AE0007FEA6C5C02D150EA013C0AD14FEA430C28
:100AF0007FEA6C5C02D152EA033C02D14FF0000065
:100B000070474FF0010070474FEA410212F50012A2
:100B100015D211D56FF47873B3EB625212D94FEA44
:100B2000C12343F0004343EA505311F0004F23FA2E
:100B300002F018BF404270474FF00000704750EA83
:100B4000013005D111F0004008BF6FF00040704740
:100B50004FF00000704700BF4A0011D212F500129A
:100B600011D20DD56FF47873B3EB62520ED44FEA05
:100B7000C12343F0004343EA505323FA02F0704785
:100B80004FF00000704750EA013002D14FF0FF30C3
:100B900070474FF0000070474FEA4102B2F1E04366
:100BA00024BFB3F5001CDCF1FE5C0DD901F0004C54
:100BB0004FEAC0024CEA5070B2F1004F40EB8300A4
:100BC00008BF20F00100704711F0804F21D113F1D0
:100BD0003872BCBF01F00040704741F480114FEA09
:100BE0005252C2F11802C2F1200C10FA0CF320FA92
:100BF00002F018BF40F001004FEAC1234FEAD323AF
:100C000003FA0CFC40EA0C0023FA02F34FEA430318
:100C1000CCE77FEA625307D150EA01331EBF4FF0A1
:100C2000FE4040F44000704701F0004040F0FE40BC
:100C300040F40000704700BF53B94AB9002908BF0B
:100C400000281CBF4FF0FF314FF0FF3000F0AAB971
:100C5000ADF1080C6DE904CE00F03CF8DDF804E0DD
:100C6000DDE9022304B0704738B5002200230446B2
:100C70000D46FFF70BFF28B920462946BDE838404E
:100C800000F00AB8204605F1004100F005F84042A6
:100C900061EB410138BD00BFD0B50C4B00220646C8
:100CA0000F46FFF781FCFFF757FF0446FFF702FCF2
:100CB000074B0022FFF778FC02460B4630463946C8
:100CC000FFF7BAFAFFF748FF2146D0BD0000F03D1C
:100CD0000000F0412DE9F047089D04468E46002BA8
:100CE0004DD18A42944669D9B2FA82F252B101FAE0
:100CF00002F3C2F1200120FA01F10CFA02FC41EAF0
:100D0000030E94404FEA1C48210CBEFBF8F61FFA74
:100D10008CF708FB16E341EA034306FB07F199420F
:100D20000AD91CEB030306F1FF3080F01F819942C2
:100D300040F21C81023E63445B1AA4B2B3FBF8F09C
:100D400008FB103344EA034400FB07F7A7420AD923
:100D50001CEB040400F1FF3380F00A81A74240F24B
:100D600007816444023840EA0640E41B00261DB1B6
:100D7000D4400023C5E900433146BDE8F0878B42EB
:100D800009D9002D00F0EF800026C5E900013046AA
:100D90003146BDE8F087B3FA83F6002E4AD18B4284
:100DA00002D3824200F2F980841A61EB030301202E
:100DB0009E46002DE0D0C5E9004EDDE702B9FFDE1A
:100DC000B2FA82F2002A40F09280A1EB0C014FEAC5
:100DD0001C471FFA8CFE0126200CB1FBF7F307FB22
:100DE000131140EA01410EFB03F0884208D91CEBC5
:100DF000010103F1FF3802D2884200F2CB80434662
:100E0000091AA4B2B1FBF7F007FB101144EA014440
:100E10000EFB00FEA64508D91CEB040400F1FF31CF
:100E200002D2A64500F2BB800846A4EB0E0440EABD
:100E300003409CE7C6F12007B34022FA07FC4CEAC6
:100E4000030C20FA07F401FA06F31C43F9404FEAB9
:100E50001C4900FA06F3B1FBF9F8200C1FFA8CFECE
:100E600009FB181140EA014108FB0EF0884202FA22
:100E700006F20BD91CEB010108F1FF3A80F08880E3
:100E8000884240F28580A8F102086144091AA4B2A0
:100E9000B1FBF9F009FB101144EA014100FB0EFE21
:100EA0008E4508D91CEB010100F1FF346CD28E4550
:100EB0006AD90238614440EA0840A0FB0294A1EBE1
:100EC0000E01A142C846A64656D353D05DB1B3EB3E
:100ED000080261EB0E0101FA07F722FA06F3F1406E
:100EE0001F43C5E9007100263146BDE8F087C2F115
:100EF0002003D8400CFA02FC21FA03F3914001438D
:100F00004FEA1C471FFA8CFEB3FBF7F007FB1036C5
:100F10000B0C43EA064300FB0EF69E4204FA02F471
:100F200008D91CEB030300F1FF382FD29E422DD9C4
:100F3000023863449B1B89B2B3FBF7F607FB1633F9
:100F400041EA034106FB0EF38B4208D91CEB010179
:100F500006F1FF3816D28B4214D9023E6144C91AF9
:100F600046EA004638E72E46284605E70646E3E609
:100F70001846F8E64B45A9D2B9EB020864EB0C0E13
:100F80000138A3E74646EAE7204694E74046D1E722
:100F9000D0467BE7023B614432E7304609E76444D0
:100FA000023842E7704700BF90B587B000AFF860E5
:100FB0007A601A460B46FB7213463B81FB68002B96
:100FC00002D14FF0FF3309E0FB685C68FB68D8682A
:100FD0003B89F97A7A68A04778617B6918461C37A3
:100FE000BD4690BD90B587B000AFF8607A601A46F4
:100FF0000B46FB7213463B81FB68002B02D14FF07E
:10100000FF3309E0FB681C68FB68D8683B89F97A04
:101010007A68A04778617B6918461C37BD4690BD49
:1010200080B586B000AF78600B46FB7007F1100208
:10103000012320217868FFF7B7FF78617B69002BD7
:1010400018D1FB789B0803F00303DAB23B7C62F310
:1010500083033B74FB7803F00303DAB23B7C62F357
:1010600001033B7407F11002012320217868FFF788
:10107000B9FF78617B69002B07D107F10C020123CE
:1010800025217868FFF790FF78617B69002B10D1EC
:10109000FB781B0903F00103DAB23B7B62F38203A6
:1010A0003B7307F10C02012325217868FFF79AFFB3
:1010B00078617B6918461837BD4680BD80B586B01B
:1010C00000AF78600B46FB7007F11002012320216E
:1010D0007868FFF769FF78617B69002B0FD1FB7897
:1010E00003F00F03DAB23B7C62F307133B7407F1A2
:1010F0001002012320217868FFF774FF78617B6973
:10110000002B07D107F10C02012322217868FFF799
:101110004BFF78617B69002B10D1FB781B0903F032
:101120000303DAB23B7B62F301033B7307F10C026A
:10113000012322217868FFF755FF78617B69184603
:101140001837BD4680BD80B584B000AF78600B46CF
:10115000FB7007F10802012325217868FFF724FFBF
:10116000F860FB68002B0FD1FB7803F00303DAB2C1
:101170003B7A62F305133B7207F108020123252134
:101180007868FFF72FFFF860FB6818461037BD46F8
:1011900080BD80B584B000AF7860396005233A68BF
:1011A00037217868FFF700FFF860FB6818461037B2
:1011B000BD4680BD80B584B000AF78603960012342
:1011C0003A680F217868FFF7EFFEF860FB68184671
:1011D0001037BD4680BD80B584B000AF78600B4647
:1011E000FB7007F10802012321217868FFF7DCFE7C
:1011F000F860FB68002B0FD1FB7803F00103DAB233
:101200003B7A62F386133B7207F108020123212126
:101210007868FFF7E7FEF860FB6818461037BD46B0
:1012200080BD80B584B000AF7860396007F10802F6
:10123000012321217868FFF7B7FEF8603B7AC3F3FA
:101240008013DBB21A463B681A70FB6818461037E9
:10125000BD4680BD80B586B000AF78600B46FB70A0
:1012600007F11002012325217868FFF79DFE7861C0
:101270007B69002B10D1FB781B0903F00103DAB264
:101280003B7C62F3C3033B7407F110020123252169
:101290007868FFF7A7FE78617B69002B07D107F11B
:1012A0000C0201233F217868FFF77EFE78617B699D
:1012B000002B0FD1FB7803F00103DAB23B7B62F322
:1012C00004133B7307F10C0201233F217868FFF7F9
:1012D00089FE78617B6918461837BD4680BD80B5A8
:1012E00084B000AF78600B46FB7007F10802012361
:1012F00025217868FFF758FEF860FB68002B0FD1B6
:10130000FB7803F00303DAB23B7A62F387133B7294
:1013100007F10802012325217868FFF763FEF860D2
:10132000FB6818461037BD4680BD80B586B000AF5B
:101330007860396007F11002012324217868FFF7F3
:1013400033FE78617B69002B07D107F10C02012382
:101350003F217868FFF728FE78617B69002B3ED13A
:101360003B681B78C3F3C003DAB23B681B78C3F356
:101370000013DBB21343DAB23B681B78C3F34013AC
:10138000DBB21343DAB23B681B78C3F38013DBB2E2
:101390001343DAB23B681B78C3F3C013DBB21343C9
:1013A000DAB23B7CC3F3C013DBB21343DAB23B7C4B
:1013B000C3F38013DBB21343DBB2002B04D03B7BBF
:1013C00043F020033B7303E03B7B6FF345133B7318
:1013D00001233A6823217868FFF704FE78617B696E
:1013E000002B07D107F10C0201233F217868FFF79A
:1013F000F9FD78617B6918461837BD4680BD80B518
:1014000084B000AF7860396001233A68232178689E
:10141000FFF7CAFDF860FB6818461037BD4680BD6F
:1014200080B584B000AF78600B46FB7007F108020E
:10143000012334217868FFF7B7FDF860FB68002BC3
:101440000FD1FB7803F03F03DAB23B7A62F3050376
:101450003B7207F10802012334217868FFF7C2FDCF
:10146000F860FB6818461037BD4680BD80B584B073
:1014700000AF78600B46FB7007F1080201233521AD
:101480007868FFF791FDF860FB68002B0FD1FB78BF
:1014900003F00303DAB23B7A62F346133B7207F1BF
:1014A0000802012335217868FFF79CFDF860FB688E
:1014B00018461037BD4680BD80B584B000AF786057
:1014C0000B46FB7007F1080201233F217868FFF704
:1014D0006BFDF860FB68002B0FD1FB7803F0010374
:1014E000DAB23B7A62F3C3033B7207F108020123CD
:1014F0003F217868FFF776FDF860FB6818461037E3
:10150000BD4680BD80B586B000AF78600B46FB70ED
:1015100007F11002012334217868FFF745FD786157
:101520007B69002B07D107F10C0201233521786874
:10153000FFF73AFD78617B69002B0FD1FB7803F050
:101540000103DAB23B7C62F386133B7407F11002AD
:10155000012334217868FFF745FD78617B69002B12
:1015600010D1FB785B0803F00103DAB23B7B62F336
:1015700004133B7307F10C02012335217868FFF750
:1015800031FD78617B6918461837BD4680BD80B54E
:1015900084B000AF78600B46FB7007F108020123AE
:1015A00035217868FFF700FDF860FB68002B0FD14C
:1015B000FB7803F00F03DAB23B7A62F303033B726A
:1015C00007F10802012335217868FFF70BFDF86069
:1015D000FB6818461037BD4680BD000080B584B05A
:1015E00000AFF860B9601346FB80094AFB681046FB
:1015F000194694231A4607F0AFFE064ABB681360EB
:10160000FB88DAB2034B1A7100BF1037BD4680BDAC
:10161000200200201802002080B584B000AFF860DE
:101620000B467A607B817B68023396220021184644
:1016300007F0A0FE7B6800221A80124B1B68114A3B
:10164000127991B20122184602F072FE7B680233D1
:10165000012219460C4805F0D1FE7B891946F8682D
:1016600000F014F8074B1B68064A127991B2002269
:10167000184602F05DFE012002F0E0FA00BF1037CC
:10168000BD4680BD180200202002002080B582B037
:1016900000AF78600B467B807A884FF0FF33796823
:1016A000034805F01DFE00BF0837BD4680BD00BFE2
:1016B0002002002080B582B000AF78607B681B8874
:1016C000952B10D8104B1B685A6A7B681B881946EB
:1016D000D2B27B680B449A707B681B8801339AB244
:1016E0007B681A8002E07B6800221A807B680233E4
:1016F0007A681288134401221946034805F07EFED9
:1017000000BF0837BD4680BD2002002080B485B0F0
:1017100000AF78604FF0B043DA6C4FF0B0417B68B7
:101720001343CB644FF0B043DA6C7B681340FB602B
:10173000FB6800BF1437BD465DF8047B70470000AE
:1017400080B582B000AF7860391D4FF0FF330122C1
:10175000034805F0C5FD7B6818460837BD4680BDC7
:1017600008030020F0B5CBB012AF02F0E1F900F0B1
:1017700001FC00F065FA00F0BBFA00F0AFFB00F0EE
:1017800015FB00F0D3FA00F05DFB00F0F3FB00F076
:10179000B1FC07F1D8031946394802F06BF803464B
:1017A000012B22D0374B002283F82020354B00221A
:1017B00083F82120334B344ADA60324B334A9A6043
:1017C000304B4FF000021A612E4B314A9A612D4B7B
:1017D000304A5A612B4B4FF00002DA61D7F8D8300B
:1017E00019462D4808F028FD02E02C4808F0AAFD13
:1017F00001F02CFB0346002B03D0294808F01CFD08
:1018000002E0284808F018FD102227492748FFF772
:10181000E5FE274B1B881A46264B13440122194626
:10182000224805F0EBFD07F1D703012219462248B3
:1018300005F0E4FD02F0EAF90346204A136020496E
:10184000204808F0F9FC0423012201211E4808F079
:10185000F3FC00F053FE00F03BFE41F2883002F052
:10186000EDF91A4808F06EFD01F044F8034683F0E4
:101870000103DBB2002B2DD0154808F063FD2CE0EE
:10188000B4020020CC0400200000F8410000E04138
:1018900000008C420000F04130DE000868DE0008E5
:1018A000ACDE0008CCDE0008000400489C030020E9
:1018B0003404002036040020080300202405002002
:1018C000F4DE000810DF000830DF000864DF0008E5
:1018D00080DF0008C54808F035FDC54808F032FD36
:1018E000C44808F02FFD002387F8A130012387F8B2
:1018F000A230022387F8A330032387F8D3300223D2
:1019000087F8A0306D4607F1A8040FCC0FC50FCCA7
:101910000FC594E8070085E8070007F1A0030CCB8A
:101920000121042001F06CF802F070F90246B24B7C
:101930001B68D31A41F28832934206D900F0C8FDE1
:1019400002F064F90346AC4A1360AC4801F0F6FAC1
:10195000AB4B1B78184600F075FF02F057F90246B2
:10196000A84B1B68D31AB3F57A7F22D9A64801F099
:1019700023F92A2000F0ECFDA34B1B681846FEF764
:10198000BBFD04460D46A04B5B681846FEF7B4FD50
:1019900002460B46CDE9002322462B469B4808F021
:1019A0004BFC2A2000F0D4FD02F030F90346954AA2
:1019B000136002F02BF90246954B1B68D31A42F2D2
:1019C00010729342B0D9904801F0F6F88E4C3B4625
:1019D000184600F015FC04F124033A4607CA83E8D0
:1019E0000700894C3B46184600F0DAFA04F1300350
:1019F0003A461068516803C3127A1A70854801F09C
:101A00005FFB814C07F114031193684604F1100346
:101A10004422194607F0A0FC94E80F0000F0E0FE15
:101A20007D4A08217D48FFF7F7FD4FF4FA6002F088
:101A300005F97B4B07F190040FCB07C4237007F126
:101A400090030D221946744801F0E2FB07F11403DC
:101A50007149184601F0F1FB6F4A08217148FFF700
:101A6000DBFD4FF4FA6002F0E9F86F4B07F17C04FC
:101A70001D460FCD0FC42B681A46228002341B0C62
:101A8000237007F17C0313221946634801F0C0FB61
:101A900007F114036049184601F0CFFB6D4607F1CA
:101AA0001C040FCC0FC50FCC0FC594E8070085E8C8
:101AB000070007F114030CCB0121052000F0A0FF63
:101AC00000F01CFD2D2000F043FD4F4B1B68184615
:101AD000FEF712FD04460D464B4B5B681846FEF7B9
:101AE0000BFD02460B46CDE9002322462B46474814
:101AF00008F0A2FB444B93F82C3019464B4808F0F1
:101B00009BFB414B93F831301D463F4B93F83230ED
:101B10001E463D4B93F833309C463B4B93F8343094
:101B20001A46394B93F835301946374B93F836300F
:101B30001846354B93F837301C46334B93F8383002
:101B40000493039402900191009263463246294621
:101B5000374808F071FB374808F06EFB0023C7F8E0
:101B6000DC300EE02C4AD7F8DC30134402331B780B
:101B70001946314808F060FBD7F8DC300133C7F86C
:101B8000DC30254B1B881A46D7F8DC309342E9DB62
:101B90002A4808F0D7FB2D2000F0DAFC1A4C07F198
:101BA00048031193684604F110034422194607F0D4
:101BB000D3FB94E80F0000F0CFFD6D4607F1500411
:101BC0000FCC0FC50FCC0FC594E8070085E80700C0
:101BD00007F148030CCB0121022000F011FF02F0B5
:101BE00015F803460A4A13609EE600BFA4DF00080A
:101BF000C8DF0008E0DF00082C0500201C050020DD
:101C00003004002024050020CC040020F8DF000868
:101C100028050020080500203404002008000020CA
:101C2000A0E0000810000020B0E0000830E000084C
:101C30004CE000087CE0000894E000089CE000080C
:101C400080B59AB000AF07F1200348220021184662
:101C500007F090FB3B1D00221A605A609A60DA6020
:101C60001A615A619A61214B1B6823F4C0631F4AB1
:101C700043F4007313601D4B1B6803F4C0633B60A7
:101C80003B6822233B624FF48073FB620123FB63BA
:101C900040233B6300233B64A0237B640023FB645D
:101CA00007F12003184604F071F80346002B01D019
:101CB00001F0E5FA6F237B600023BB600023FB602B
:101CC00000233B6100237B610023BB610023FB6198
:101CD0003B1D0121184604F0CDFB0346002B01D02B
:101CE00001F0CDFA00BF6837BD4680BD0004005842
:101CF00080B594B000AF3B4650220021184607F053
:101D000039FB4FF400533B600023BB641023FB649A
:101D10003B46184604F0EDFF0346002B01D001F0CE
:101D2000AEFA00BF5037BD4680BD000080B500AFA1
:101D30001B4B1C4A1A601A4B1B4A5A60184B002254
:101D40009A60174B0122DA60154B00221A61144B7E
:101D500000225A61124B00229A61114B0022DA6173
:101D60000F4B00221A620E4802F0FAFA0346002BCB
:101D700001D001F084FA0021094803F0DBFB03469F
:101D8000002B01D001F07BFA0021054803F01DFC77
:101D90000346002B01D001F072FA00BF80BD00BFE6
:101DA000B402002000540040BB7C700080B500AF3E
:101DB000224B234A1A60214B4FF416525A601F4B94
:101DC00000229A601D4B0022DA601C4B00221A612F
:101DD0001A4B0C225A61194B00229A61174B0022B0
:101DE0001A62164B00225A62144B00229A62134B5D
:101DF00000225A66114805F023FA0346002B01D051
:101E000001F03DFA00210D4807F0A1F90346002B2F
:101E100001D001F034FA0021084807F0D6F9034652
:101E2000002B01D001F02BFA044807F057F90346C4
:101E3000002B01D001F023FA00BF80BD0803002071
:101E40000080004080B500AF224B234A1A60214B2E
:101E50004FF4E1325A601F4B00229A601D4B002262
:101E6000DA601C4B00221A611A4B0C225A61194B82
:101E700000229A61174B0022DA61164B00221A6287
:101E8000144B00225A62134B00229A62114805F04B
:101E9000D7F90346002B01D001F0F1F900210D48DC
:101EA00007F055F90346002B01D001F0E8F90021B5
:101EB000084807F08AF90346002B01D001F0DFF94A
:101EC000044807F00BF90346002B01D001F0D7F9C5
:101ED00000BF80BD9C0300200038014080B586B063
:101EE00000AF3B1D00221A605A609A60DA601A61E6
:101EF0000220FFF70BFC0420FFF708FC002244F24D
:101F000010011B4802F014FA4FF4C0537B604FF4E9
:101F10004413BB600023FB603B1D1946144802F0CC
:101F20007FF844F210037B600123BB600023FB6059
:101F300000233B613B1D19460D4802F071F84FF438
:101F400000437B604FF48813BB600023FB603B1DA4
:101F50001946074802F064F800220021282001F009
:101F60006CFF282001F083FF00BF1837BD4680BDFD
:101F70000004004880B584B002AF00233B71FF230A
:101F80007B713A1D4FF0FF33009302234221034837
:101F900002F076FA00BF0837BD4680BDB4020020CB
:101FA00080B588B002AF786009233B7507F1140251
:101FB0004FF0FF33009301234221364802F060FACC
:101FC00007F113024FF0FF33009301234221314800
:101FD00002F04AFBFB7C3B72FB7C03F00103002B0D
:101FE00014BF01230023DBB27B72FB7C5B1003F088
:101FF0000103002B14BF01230023DBB2BB72FB7C67
:102000009B1003F00103002B14BF01230023DBB25C
:10201000FB72FB7CDB1003F00103002B14BF0123D8
:102020000023DBB23B73FB7C1B1103F00103002B8D
:1020300014BF01230023DBB27B73FB7C5B1103F035
:102040000103002B14BF01230023DBB2BB73FB7C15
:102050009B1103F00103002B14BF01230023DBB20B
:10206000FB73FB7C5BB2DB115BB203F00103002B63
:1020700014BF01230023DBB23B747B681A4607F1CF
:10208000080303CB106051601B781372786818370F
:10209000BD4680BDB402002080B586B002AF786036
:1020A00008233B7307F10C024FF0FF330093012329
:1020B00042210E4802F0E4F907F10B024FF0FF3322
:1020C000009301234221094802F0CEFAFA7A084B24
:1020D0001A707B6806491A460B4603CB10605160A4
:1020E0001B78137278681037BD4680BDB40200209B
:1020F0003805002080B584B002AF02233B71FF2376
:102100007B713A1D4FF0FF33009302234221214897
:1021100002F0B6F904233B7100237B713A1D4FF0A6
:10212000FF330093022342211A4802F0A9F9032346
:102130003B7100237B713A1D4FF0FF330093022364
:102140004221144802F09CF905233B713B1D5A1CA7
:102150004FF0FF330093012342210E4802F084FA2E
:102160007B795BB223F006035BB243F002035BB200
:10217000DBB27B7105233B713A1D4FF0FF330093B7
:1021800002234221034802F07BF900BF0837BD4615
:1021900080BD00BFB402002080B586B000AF03460A
:1021A000FB82154BDA68FB8A1340002B1CD0124AC5
:1021B000FB8AD360FB8AB3F5004F09D0B3F5004F1B
:1021C00014DCB3F5006F0BD0B3F5805F08D00DE0E1
:1021D0003B461846FFF760FF084B01221A7006E0E5
:1021E000064B02221A7002E000BF00E000BF00BFF1
:1021F0001837BD4680BD00BF0008005830040020DD
:1022000090B587B000AF78604FF480512E4802F04F
:1022100077F80346002B14BF01230023DBB23B7386
:102220004FF40061284802F06BF80346002B14BFFE
:1022300001230023DBB27B733B7B83F00103DBB222
:10224000002B0AD07B7B83F00103DBB2002B04D090
:102250001E4B3B6101233B752AE03B7B83F001036E
:10226000DBB2002B07D07B7B002B04D0184B3B61EB
:1022700002233B751CE03B7B002B0AD07B7B83F069
:102280000103DBB2002B04D0124B3B6103233B75EF
:102290000EE03B7B002B07D07B7B002B04D00E4B4A
:1022A0003B6104233B7503E00C4B3B6100233B7512
:1022B0007B681C4607F10C0393E8070084E80700DD
:1022C00078681C37BD4690BD00040048C4E0000893
:1022D000CCE00008DCE00008F0E0000804E10008C1
:1022E00080B584B000AF78607B681B68654A934214
:1022F0000CD16548FFF7DEF9634B1B881A46634B28
:10230000134401221946624805F078F87B681B687F
:10231000604A934240F0B1807B689B6D13F8013CAA
:10232000FB735D4B1B78002B00F0A0805B4B1B8880
:102330005A1C91B2594A11801946594AFB7B535491
:10234000FB7B0D2B08D0FB7B0A2B05D0534B1B8846
:10235000B3F5FA7FC0F08A804F4B1B78052B00F253
:10236000828001A252F823F067240008812300082C
:102370009D230008C9230008DF2300081D2400084E
:102380004849474808F067F80346002B62D04648A2
:1023900007F0D8FF454B01221A705BE044494048E2
:1023A00008F059F80346002B03D0404B01221A7065
:1023B00052E040493A4808F04EF80346002B4BD013
:1023C0003A4B01221A7047E03B49354808F043F880
:1023D0000346002B42D0354B01221A703EE03749AC
:1023E0002F4808F038F80346002B09D02F4B012264
:1023F0001A70334B01221A70284B00221A802FE0EA
:102400003049274808F027F80346002B28D02C4BEA
:1024100000221A70214B00221A8021E02A4920480C
:1024200008F019F80346002B03D01C4B00221A8039
:1024300018E01C491A4808F00EF80346002B11D08A
:102440001A4B01221A70214807F07CFF134B00221F
:102450001A8007E000BF06E000BF04E000BF02E012
:1024600000BF00E000BF0D4B00221A807B689B6D0F
:1024700001221946786804F0C1FF00BF1037BD463D
:1024800080BD00BF00380140340400203604002025
:102490009C0300200080004020050020A8050020AB
:1024A000440500200CE1000810E10008410500206F
:1024B00020E1000830E1000844E1000858E100088C
:1024C0002105002064E1000874E1000888E10008AB
:1024D00080B500AF01224FF48041074801F028FF8A
:1024E000012001F0ABFB00224FF48041024801F0D3
:1024F0001FFF00BF80BD00BF0004004880B582B050
:1025000000AF0023FB7116E0FB799BB25B0099B230
:1025100041F2883305220C4802F0CAFB0346BB7126
:10252000BB79002B04D1FB791946084807F084FEDB
:10253000FB790133FB7197F90730002BE4DA00BF18
:1025400000BF0837BD4680BDB402002098E10008F6
:1025500080B584B000AF0346FB710023FB6007E049
:10256000FB791946074807F067FEFB680133FB60FB
:10257000FB68182BF4DD044807F0E4FE00BF1037B9
:10258000BD4680BDC0E10008C4E1000880B487B04A
:1025900000AFF860B9601346FB710023FB75FB794F
:1025A000062B49D801A252F823F000BFC925000824
:1025B000D7250008E7250008F725000809260008A8
:1025C0001926000829260008FB681A78BB681A70CB
:1025D0000123FB7531E0FB681B889AB2BB681A8047
:1025E0000223FB7529E0FB681B681A46BB681A606A
:1025F0000423FB7521E0FB6893F90030DAB2BB6875
:102600001A700123FB7518E0FB681B889AB2BB683F
:102610001A800223FB7510E0FB681B681A46BB6832
:102620001A600423FB7508E0FB681B681A46BB6848
:102630001A600423FB7500E000BFFB7D18461C37C1
:10264000BD465DF8047B704780B586B000AFF8608A
:10265000B96011461A460B46FB711346BB71FB6805
:10266000002B08D0BB68002B05D0FB79002B02D0D3
:10267000FB79322B01D9002333E03B6ABA791A7017
:102680003B6ABA795A700123FB750023BB751FE0C2
:10269000BB7D9B00FA6813441868FB7D3A6A1344BB
:1026A000591CBB7DBA6813441B781A46FFF76EFFAE
:1026B00003467B75FA7D7B7D1344322B01DD0023BD
:1026C0000FE0FA7D7B7D1344FB75BB7D0133BB7549
:1026D000BA7DFB799A42DBD33B6AFA7D83F83320DB
:1026E000012318461837BD4680BD000084B080B570
:1026F0008AB002AF07F1280C8CE80F000123FB77AA
:1027000007F12803BB6007F12C03FB6007F15803B6
:102710003B6107F154037B6107F17803BB610D4A0C
:102720003B4692E80300186004331970FA7F39467B
:1027300007F10800FB6F009313460522FFF784FFA3
:102740000346BB77BB7F18462037BD46BDE88040B7
:1027500004B07047C8E1000884B080B58EB002AF05
:1027600007F1380C8CE80F00002387F82F3007F1B1
:102770003803FB6007F13C033B6107F168037B61B1
:1027800007F16403BB6107F17403FB6107F1780390
:102790003B6207F184037B6207F18803BB620F4A47
:1027A0003B1D92E8030083E8030097F82F20391DB2
:1027B00007F10C00D7F88C30009313460822FFF77E
:1027C00043FF034687F82E3097F82E3018463037EF
:1027D000BD46BDE8804004B0704700BFD0E10008AE
:1027E00084B080B588B002AF07F1200C8CE80F00F0
:1027F0000523FB7507F15C03BB6007F16003FB6019
:1028000007F16C033B610E4A3B1D126811461980AB
:102810000233120C1A70FA7D391D07F108007B6F24
:10282000009313460322FFF70FFF0346BB75BB7DE2
:1028300018461837BD46BDE8804004B0704700BF59
:10284000D8E10008B0B5A6B012AF0346FB75FB7D1A
:10285000002B44D0002B44DB013B022B41D8234CFE
:102860003B461846FFF79CFB04F130033A461068DC
:10287000516803C3127A1A701C4C3B461846FFF786
:10288000BFFC04F124033A4607CA83E8070017484F
:1028900000F092F9154C07F11C031193684604F1FE
:1028A00010034422194606F057FD94E80F00FFF785
:1028B0001DFF6D4607F124040FCC0FC50FCC0FC5CB
:1028C00094E8070085E8070007F11C030CCB012101
:1028D000032000F095F8064B00221A7002E000BFBA
:1028E00000E000BF00BF5037BD46B0BDCC040020A3
:1028F0003004002080B500AF01224FF4FA6138485F
:1029000000F02CF9034683F00103DBB2002B01D069
:10291000002362E001224FF4FA61324800F01EF910
:10292000034683F00103DBB2002B01D0002354E007
:1029300001224FF4FA612C4800F010F9034683F0AD
:102940000103DBB2002B01D0002346E001224FF44B
:10295000FA61264800F002F9034683F00103DBB276
:10296000002B01D0002338E001224FF4FA61204807
:1029700000F0F4F8034683F00103DBB2002B01D032
:1029800000232AE001224FF4FA611A4800F0E6F829
:10299000034683F00103DBB2002B01D000231CE0CF
:1029A00001224FF4FA61144800F0D8F8034683F08E
:1029B0000103DBB2002B01D000230EE002224FF412
:1029C000FA610E4800F0CAF8034683F00103DBB257
:1029D000002B01D0002300E00123184680BD00BF7A
:1029E000DCE1000800E2000824E2000860E20008E0
:1029F0009CE20008DCE200081CE3000828E3000871
:102A000082B090B58BB000AF07F1380484E80C00B9
:102A10000346FB710B46BB714B4B3B62FB7907F1E5
:102A200010004A4A042107F0ABFCBB7907F10C0007
:102A3000464A022107F0A4FC386AFDF7A1FB0446D0
:102A400007F110031846FDF79BFB03461C4407F1F2
:102A50000C031846FDF794FB0346234497F86B20BC
:102A6000520013440533FB61FB69184606F064FC11
:102A70000346BB61BB69002B01D100235CE0396ACE
:102A8000B86907F0E0FC07F110031946B86907F0D0
:102A9000CBFCB869FDF774FB03461A46BB691344C7
:102AA0002B491A460B461B88138007F10C03194665
:102AB000B86907F0B9FCB869FDF762FB03461A462E
:102AC000BB69134422491A460B461B881380002316
:102AD0007B6213E007F139027B6A13441B7807F12C
:102AE00008001C4A032107F04BFC07F108031946B4
:102AF000B86907F099FC7B6A01337B6297F86B3009
:102B00001A467B6A9342E5DBB869FDF739FB034659
:102B10001A46BB691344104A1188927819809A703A
:102B200005224FF4FA61B86900F018F80346FB7506
:102B3000B86906F009FCFB7D18462C37BD46BDE898
:102B4000904002B0704700BF48E3000854E300081B
:102B500058E300083CE3000844E3000880B586B071
:102B600000AFF860B9601346FB71114AFB7913702E
:102B7000104B00221A70F86807F05EFB01F046F86F
:102B8000786105E00B4B1B78002B01D001230BE093
:102B900001F03CF802467B69D31ABA689A42F1D830
:102BA000034B00221A70002318461837BD4680BD1B
:102BB000200500204105002080B584B000AF78607A
:102BC000F6227449744800F036FE0346FB73FB7B23
:102BD000012B08D17B684FF000021A607B684FF030
:102BE00000025A60D1E06B4B1A687B681A60694B2F
:102BF0005A687B685A607B6893ED007A7B68D3EDF6
:102C0000036A7B68D3ED047A76EEA77AB4EEE77AAE
:102C1000F1EE10FA0BDD7B6893F82030012B06D023
:102C20007B68012283F820205C4807F08BFB7B68DF
:102C300093ED007A7B68D3ED026A7B68D3ED047A6A
:102C400076EEE77AB4EEE77AF1EE10FA0BD57B6810
:102C500093F82030022B06D07B68022283F82020D4
:102C60004F4807F06FFB7B6893ED007A7B68D3EDEC
:102C7000026A7B68D3ED047A76EEA77AB4EEE77A3F
:102C8000F1EE10FA1BDD7B6893ED007A7B68D3EDE3
:102C9000036A7B68D3ED047A76EEE77AB4EEE77ADE
:102CA000F1EE10FA0BD57B6893F82030002B06D09C
:102CB0007B68002283F820203A4807F043FB7B68BA
:102CC00093ED017A7B68D3ED066A7B68D3ED077AD2
:102CD00076EEA77AB4EEE77AF1EE10FA0BDD7B68B8
:102CE00093F82130012B06D07B68012283F8212044
:102CF0002D4807F027FB7B6893ED017A7B68D3EDC5
:102D0000056A7B68D3ED077A76EEE77AB4EEE77A68
:102D1000F1EE10FA0BD57B6893F82130022B06D028
:102D20007B68022283F82120204807F00BFB7B6898
:102D300093ED017A7B68D3ED056A7B68D3ED077A62
:102D400076EEA77AB4EEE77AF1EE10FA00DC1CE03A
:102D50007B6893ED017A7B68D3ED066A7B68D3EDDF
:102D6000077A76EEE77AB4EEE77AF1EE10FA00D45D
:102D70000BE07B6893F82130002B06D07B680022A3
:102D800083F821200A4807F0DDFA00BF1037BD465E
:102D900080BD00BF30050020B40200205CE30008C5
:102DA00084E30008ACE30008C8E30008F0E300088F
:102DB00014E4000880B588B004AFF8607A601A4661
:102DC0000B46FB7213463B81FB7A9AB24FF47A733F
:102DD00002933B8901937B68009301233121F868BA
:102DE00001F038FD002318461037BD4680BD80B580
:102DF00088B004AFF8607A601A460B46FB7213463F
:102E00003B81FB7A9AB24FF47A7302933B89019328
:102E10007B68009301233121F86801F02FFE002325
:102E200018461037BD4680BD80B582B000AF7860CF
:102E3000786800F003FF00BF0837BD4680BD80B44E
:102E400000AF00BFBD465DF8047B704780B500AFA2
:102E5000314B324A1A60304B314A5A602E4B314A5C
:102E60009A602D4B304ADA60FFF7E9FF1420FFF734
:102E7000DBFF2E492848FEF79DF92C4B1B78442B8D
:102E800001D0002345E001212348FEF7A4F9284999
:102E90002148FEF7C6F9264B1B78002BF7D10021FD
:102EA0001D48FEF750F900211B48FEF7D3F9012118
:102EB0001948FEF714FA10211748FEF7B1F802215D
:102EC0001548FEF7D3FA03211348FEF760FB0121F2
:102ED0001148FEF7A5FA00210F48FEF7EDFA01218F
:102EE0000D48FEF70FFB13490B48FEF788FA114A0D
:102EF000137843F0200313700E490748FEF715FAC4
:102F000006210548FEF7DAF80B4B012283F8502022
:102F10000123184680BD00BFAC050020B52D000878
:102F2000EF2D0008292E0008B4020020AA05002079
:102F3000AB050020BC050020CC040020B0B5A4B037
:102F400012AF786007F1400319465548FEF721F9A2
:102F500097F8413003F01003DBB2002B08D07B68F8
:102F600001221A704F4B00221A704F4B00221A7028
:102F700097F8413003F00803DBB2002B00F08C809F
:102F8000484B1B7883F00103DBB2002B3FD0454B4D
:102F900001221A707B6802221A7097F84130C3F33D
:102FA0008003DBB2194697F84130C3F34003DBB22C
:102FB0001A4697F84130C3F30003DBB23B4807F0F1
:102FC0003BF900F023FE0346394A1360394C07F100
:102FD0000C031193684604F110034422194606F0CD
:102FE000BBF994E80F00FFF781FB6D4607F114046D
:102FF0000FCC0FC50FCC0FC594E8070085E807007C
:1030000007F10C030CCB01210320FFF7F9FC254B42
:103010001B78002B40D000F0F9FD0246244B1B68C2
:10302000D31A40F6B832934236D91F4B1B7883F03F
:103030000103DBB2002B2FD01B4B01221A707B68DF
:1030400003221A701C4807F0F7F81A4C07F10C031A
:103050001193684604F110034422194606F07CF9E6
:1030600094E80F00FFF742FB6D4607F114040FCC04
:103070000FC50FCC0FC594E8070085E8070007F1DE
:103080000C030CCB01210320FFF7BAFC054B0022F7
:103090001A70054B00221A7000BF4837BD46B0BDFC
:1030A000AC050020BD050020BE0500202CE4000872
:1030B000C0050020CC04002054E4000800000000FB
:1030C00080B588B004AF78600023FB814FF0FF33F8
:1030D00002930223019307F10E03009301233A2286
:1030E000D021454801F0CAFCFB891846FDF7F2F9EA
:1030F0003DA3D3E90023FDF757FA02460B461046DD
:1031000019464FF000023D4BFDF74EFA02460B46C2
:1031100010461946FDF740FD02467B685A604FF0A5
:10312000FF3302930223019307F10E03009301235F
:103130003B22D021304801F0A1FCFB891846FDF765
:10314000C9F92BA3D3E90023FDF72EFA02460B465B
:1031500010461946FDF720FD02467B681A604FF0C5
:10316000FF3302930223019307F10E03009301231F
:103170003C22D021204801F081FCFB891846FDF754
:10318000A9F91BA3D3E90023FDF70EFA02460B466B
:1031900010461946FDF700FD02467B681A61184883
:1031A00007F0D0F87B681B681846FDF7A5F90246C2
:1031B0000B46144807F040F87B685B681846FDF73B
:1031C0009BF902460B46104807F036F87B681B69EE
:1031D0001846FDF791F902460B460C4807F02CF80B
:1031E00000BF1037BD4680BD5A98342F4F33293F5A
:1031F0004FCAA48636005B3FB40200200000104096
:103200006CE4000880E4000890E40008A0E40008F2
:1032100080B584B000AFF860B9601346FB80FB68EE
:103220000233FA88B968184606F096F8FB68FA88FF
:103230001A8000BF1037BD4680BD80B582B000AF98
:10324000786039607B6893F833301A467B681344A2
:10325000581C3B68991C3B681B881A4606F07CF892
:103260007B6893F833203B681B88DBB21344DAB2E7
:103270007B6883F8332000BF0837BD4680BD80B42B
:1032800000AF72B600BFFEE780B485B000AF7860D3
:103290004FF0B043DA6C4FF0B0417B681343CB641E
:1032A0004FF0B043DA6C7B681340FB60FB6800BFF3
:1032B0001437BD465DF8047B704780B485B000AF1D
:1032C00078604FF0B0439A6D4FF0B0417B68134384
:1032D0008B654FF0B0439A6D7B681340FB60FB68D1
:1032E00000BF1437BD465DF8047B704780B485B0DD
:1032F00000AF78604FF0B043DA6D4FF0B0417B68BB
:103300001343CB654FF0B043DA6D7B681340FB602D
:10331000FB6800BF1437BD465DF8047B704780B47E
:1033200085B000AF78604FF0B0431A6E4FF0B041F7
:103330007B6813430B664FF0B0431A6E7B681340F3
:10334000FB60FB6800BF1437BD465DF8047B704727
:1033500080B400AF00BFBD465DF8047B704700003D
:1033600080B59CB000AF786007F15C0300221A6062
:103370005A609A60DA601A6107F10C03502200214A
:10338000184605F0F7FF7B681B68174A934226D161
:103390000423FB604FF44033FB6207F10C03184633
:1033A00003F0A7FC0346002B01D0FFF768FF0220C3
:1033B000FFF76AFF4FF44073FB6512233B6600235F
:1033C0007B660023BB660423FB6607F15C0319469A
:1033D000064800F025FE4FF40010FFF76EFF00BF17
:1033E0007037BD4680BD00BF005400400004004857
:1033F00080B59CB000AF786007F15C0300221A60D2
:103400005A609A60DA601A6107F10C0350220021B9
:10341000184605F0AFFF7B681B68334A93422CD1F6
:103420000223FB600023BB6207F10C03184603F084
:1034300060FC0346002B01D0FFF721FF0120FFF7BE
:1034400055FF0420FFF720FF0323FB6502233B66A3
:1034500000237B660023BB660823FB6607F15C0341
:103460001946224800F0DCFD00220021252000F052
:10347000E4FC252000F0FBFC31E07B681B681C4A63
:1034800093422CD10123FB6000237B6207F10C03E4
:10349000184603F02EFC0346002B01D0FFF7EFFE89
:1034A0004FF48040FFF73BFF0220FFF7EDFEC02303
:1034B000FB6502233B6600237B660023BB66072374
:1034C000FB6607F15C0319460A4800F0A9FD0022DB
:1034D0000021242000F0B1FC242000F0C8FC00BF33
:1034E0007037BD4680BD00BF008000400008004826
:1034F000003801400004004880B400AFFEE780B40B
:1035000000AFFEE780B400AFFEE780B400AFFEE797
:1035100080B400AFFEE780B400AF00BFBD465DF8E9
:10352000047B704780B400AF00BFBD465DF8047BEC
:10353000704780B400AF00BFBD465DF8047B7047A4
:1035400080B500AF00F04EFB00BF80BD80B500AF7E
:10355000024803F09FFF00BF80BD00BF9C03002016
:1035600080B500AF024803F095FF00BF80BD00BFEB
:103570000803002080B500AF4FF40060FEF70CFE9A
:103580004FF48050FEF708FE4FF40040FEF704FEB3
:1035900000BF80BD80B400AF01231846BD465DF872
:1035A000047B704780B582B000AF7860396005F069
:1035B00099FE034616221A604FF0FF33184608376B
:1035C000BD4680BD80B582B000AF78604FF0FF315E
:1035D0007868FFF7E7FFFEE780B586B000AFF860D8
:1035E000B9607A6000237B610AE0AFF30080014696
:1035F000BB685A1CBA60CAB21A707B6901337B611E
:103600007A697B689A42F0DB7B6818461837BD46BA
:1036100080BD80B586B000AFF860B9607A600023E5
:103620007B6109E0BB685A1CBA601B781846FEF73C
:1036300087F87B6901337B617A697B689A42F1DBA9
:103640007B6818461837BD4680BD80B483B000AF94
:1036500078604FF0FF3318460C37BD465DF8047BA9
:10366000704780B483B000AF786039603B684FF436
:1036700000525A60002318460C37BD465DF8047BA3
:10368000704780B483B000AF7860012318460C37D0
:10369000BD465DF8047B704780B485B000AFF8602C
:1036A000B9607A60002318461437BD465DF8047B84
:1036B0007047000080B586B000AF7860144A154BA3
:1036C000D31A7B617B693B61134B1B68002B02D1D2
:1036D000114B124A1A60104B1A687B6813443A69FE
:1036E0009A4207D205F0FEFD03460C221A604FF005
:1036F000FF3309E0084B1B68FB60074B1A687B68C7
:103700001344054A1360FB6818461837BD4680BD50
:103710000000032000040000C4050020E005002094
:1037200080B400AF244BD3F88830234A43F47003AD
:10373000C2F888304FF0B0431B684FF0B04243F0FE
:10374000010313604FF0B0434FF4E0229A604FF052
:10375000B0431A684FF0B041184B13400B604FF064
:10376000B043D3F894304FF0B04223F00503C2F8D1
:1037700094304FF0B043D3F898304FF0B04223F07C
:103780000103C2F898304FF0B0430D4ADA604FF0B1
:10379000B0430B4A1A614FF0B0431B684FF0B04280
:1037A00023F4802313604FF0B04300229A6100BFDE
:1037B000BD465DF8047B704700ED00E0FBFEF6FAC5
:1037C00000100422D458C4500433C4188C42F9D3D6
:1037D0007047036004308842FBD370470C4885462D
:1037E000FFF79EFF0B480C490C4A0023FFF7EDFF43
:1037F0000B480C490C4A0023FFF7E7FF0B480C4924
:103800000023FFF7E8FF05F073FDFDF7ABFFFEE7D0
:103810000000032008000020FC01002064EB0008E9
:10382000000003200000032058ED0008FC010020E8
:10383000DC050020FEE780B586B000AFF860B96017
:103840001346FB7107F11002FB1D1946F86800F0E2
:1038500079F80346002B07D107F11003B968184621
:1038600000F0A4F8034600E0012318461837BD46CF
:1038700080BD000080B586B000AF7860396007F188
:103880000C031A461A49786800F05CF80346002BCE
:1038900029D13B7B1B021AB27B7B1BB213431BB2A9
:1038A000FB82FB7B1B021AB23B7C1BB213431BB295
:1038B000BB82BA7BFB8A1146184600F01BF8034610
:1038C000002B10D07A7CBB8A1146184600F012F803
:1038D0000346002B07D0FB8A1A04BB8A1A433B68B5
:1038E0001A60002300E0012318461837BD4680BD4A
:1038F0001C00002080B485B000AF03460A46FB8060
:1039000013467B71FF23FB73FB7BFA88120A92B28A
:1039100053400B4AD35CFB73FA7BFB88DBB253400A
:10392000074AD35CFB73FA7B7B799A420CBF012375
:103930000023DBB218461437BD465DF8047B7047A0
:103940007CE5000880B588B002AFF860B9607A60A5
:10395000642000F073F94FF4FA7300930123BA68FE
:103960008821F86800F08CFD0346FB75FB7D002B79
:1039700001D0012316E0642000F060F94FF4FA73DF
:10398000009306237A688821F86800F06DFE0346EC
:10399000FB75FB7D002B01D0012303E0642000F0C8
:1039A0004DF9002318461837BD4680BD80B584B058
:1039B00000AF786039607B681B781B021AB27B68A5
:1039C00001331B781BB213431BB2FB817B680333AB
:1039D0001B781B021AB27B6804331B781BB213439B
:1039E0001BB2BB817B6802331A78FB8911461846EB
:1039F000FFF780FF0346002B1ED07B6805331A7843
:103A0000BB8911461846FFF775FF0346002B13D0FC
:103A1000FB89184600F018F8F0EE407A3B68C3EDD9
:103A2000007ABB89184600F04BF8F0EE407A3B680C
:103A3000C3ED017A002300E0012318461037BD468C
:103A400080BD00000000000080B582B000AF0346DA
:103A5000FB80FB881846FCF73DFD14A3D3E9002347
:103A6000FCF7CCFE02460B461046194611A3D3E9DB
:103A70000023FCF799FD02460B46104619464FF00D
:103A80000002094BFCF7D8FB02460B4610461946CC
:103A9000FDF782F8034607EE903AB0EE670A083762
:103AA000BD4680BDAFF300800080464000000000AE
:103AB000E0FFEF400000000000E065400000000073
:103AC00080B582B000AF0346FB80FB881846FCF748
:103AD00001FD15A3D3E90023FCF790FE02460B4637
:103AE000104619464FF000020D4BFCF75DFD0246F3
:103AF0000B46104619464FF000020A4BFCF79CFBA0
:103B000002460B4610461946FDF746F8034607EEF7
:103B1000903AB0EE670A0837BD4680BDAFF300802B
:103B200000405F400000184000000000E0FFEF4050
:103B300080B582B000AF0023FB710C4B1B680B4AB1
:103B400043F480731360032000F06CF90F2000F041
:103B50000FF80346002B02D00123FB7101E0FFF7B1
:103B6000F7FBFB7918460837BD4680BD004000587A
:103B700080B584B000AF78600023FB73174B1B78CF
:103B8000002B24D002F024FE0246144B1B78194669
:103B90004FF47A73B3FBF1F3B2FBF3F3184600F082
:103BA00074F90346002B0FD17B680F2B09D8002234
:103BB00079684FF0FF3000F040F9094A7B681360E4
:103BC00007E00123FB7304E00123FB7301E0012301
:103BD000FB73FB7B18461037BD4680BD24000020D8
:103BE0002000002080B400AF064B1B781A46064B1D
:103BF0001B681344044A136000BFBD465DF8047B94
:103C0000704700BF24000020C805002080B400AF2A
:103C1000034B1B681846BD465DF8047B704700BF28
:103C2000C805002080B400AF034B1B681846BD4692
:103C30005DF8047B704700BF2000002080B584B091
:103C400000AF7860FFF7E2FFB8607B68FB60FB685D
:103C5000B3F1FF3F05D00A4B1B781A46FB681344AB
:103C6000FB6000BFFFF7D2FF0246BB68D31AFA68B9
:103C70009A42F7D800BF00BF1037BD4680BD00BFD5
:103C80002400002080B485B000AF78607B6803F02A
:103C90000703FB600C4BDB68BB60BA684FF6FF03A1
:103CA0001340BB60FB681A02BB68134343F0BF6359
:103CB00043F40033BB60044ABB68D36000BF1437D1
:103CC000BD465DF8047B704700ED00E080B400AFB6
:103CD000044BDB681B0A03F007031846BD465DF87A
:103CE000047B704700ED00E080B483B000AF034672
:103CF000FB7197F90730002B0BDBFB7903F01F02F8
:103D0000074997F907305B09012000FA02F241F8F0
:103D1000232000BF0C37BD465DF8047B704700BF11
:103D200000E100E080B483B000AF03463960FB716E
:103D300097F90730002B0ADB3B68DAB20C4997F998
:103D400007301201D2B20B4483F800230AE03B682B
:103D5000DAB20849FB7903F00F03043B1201D2B237
:103D60000B441A7600BF0C37BD465DF8047B7047E4
:103D700000E100E000ED00E080B489B000AFF86041
:103D8000B9607A60FB6803F00703FB61FB69C3F16C
:103D90000703042B28BF0423BB61FB690433062BF4
:103DA00002D9FB69033B00E000237B614FF0FF3247
:103DB000BB6902FA03F3DA43BB681A407B699A4095
:103DC0004FF0FF317B6901FA03F3D9437B680B4065
:103DD000134318462437BD465DF8047B7047000046
:103DE00080B582B000AF78607B68013BB3F1807F23
:103DF00001D301230FE00A4A7B68013B53600F2186
:103E00004FF0FF30FFF78EFF054B00229A60044B06
:103E100007221A60002318460837BD4680BD00BF40
:103E200010E000E080B582B000AF78607868FFF7FE
:103E300029FF00BF0837BD4680BD80B586B000AF02
:103E40000346B9607A60FB73FFF740FF78617A68D8
:103E5000B9687869FFF790FF024697F90F3011466D
:103E60001846FFF75FFF00BF1837BD4680BD80B51D
:103E700082B000AF0346FB7197F907301846FFF791
:103E800033FF00BF0837BD4680BD80B582B000AFAC
:103E900078607868FFF7A4FF034618460837BD46E8
:103EA00080BD80B483B000AF78607B68002B01D107
:103EB00001234FE07B6893F82530DBB2022B08D05A
:103EC0007B680422DA637B68002283F824200123C4
:103ED00040E07B681B681A687B681B6822F00E0252
:103EE0001A607B689B6C1A687B689B6C22F48072FA
:103EF0001A607B681B681A687B681B6822F00102E5
:103F00001A607B685B6C03F01C027B681B6C0121F0
:103F100001FA02F25A607B68DB6C7A68126D5A60B3
:103F20007B685B6D002B0CD07B685B6D1A687B68CF
:103F30005B6D22F480721A607B689B6D7A68D26D2B
:103F40005A607B68012283F825207B68002283F871
:103F50002420002318460C37BD465DF8047B7047CB
:103F600080B584B000AF78600023FB737B6893F862
:103F70002530DBB2022B05D07B680422DA630123F3
:103F8000FB7347E07B681B681A687B681B6822F03C
:103F90000E021A607B681B681A687B681B6822F037
:103FA00001021A607B689B6C1A687B689B6C22F428
:103FB00080721A607B685B6C03F01C027B681B6C70
:103FC000012101FA02F25A607B68DB6C7A68126D9B
:103FD0005A607B685B6D002B0CD07B685B6D1A6848
:103FE0007B685B6D22F480721A607B689B6D7A68D7
:103FF000D26D5A607B68012283F825207B680022FD
:1040000083F824207B689B6B002B03D07B689B6B21
:1040100078689847FB7B18461037BD4680BD000086
:1040200080B487B000AF7860396000237B614CE1D9
:104030003B681A6801217B6901FA03F31340FB60B6
:10404000FB68002B00F03E813B685B6803F00303D4
:10405000012B05D03B685B6803F00303022B30D1D2
:104060007B689B683B617B695B00032202FA03F378
:10407000DB433A6913403B613B68DA687B695B006C
:1040800002FA03F33A6913433B617B683A699A6029
:104090007B685B683B6101227B6902FA03F3DB43C7
:1040A0003A6913403B613B685B681B0903F00102FE
:1040B0007B6902FA03F33A6913433B617B683A690F
:1040C0005A603B685B6803F00303032B17D07B68DF
:1040D000DB683B617B695B00032202FA03F3DB438D
:1040E0003A6913403B613B689A687B695B0002FA5E
:1040F00003F33A6913433B617B683A69DA603B68D2
:104100005B6803F00303022B23D17B69DA087B6829
:10411000083253F822303B617B6903F007039B00B0
:104120000F2202FA03F3DB433A6913403B613B6819
:104130001A697B6903F007039B0002FA03F33A69EB
:1041400013433B617B69DA087B680832396943F8BD
:1041500022107B681B683B617B695B00032202FACB
:1041600003F3DB433A6913403B613B685B6803F050
:1041700003027B695B0002FA03F33A6913433B6174
:104180007B683A691A603B685B6803F44033002B34
:1041900000F09880544A7B699B08023352F8233020
:1041A0003B617B6903F003039B000F2202FA03F3D8
:1041B000DB433A6913403B617B68B3F1904F19D000
:1041C0007B684A4A934213D07B68494A93420DD098
:1041D0007B68484A934207D07B68474A934201D1A3
:1041E000042308E0072306E0032304E0022302E09F
:1041F000012300E000237A6902F003029200934059
:104200003A6913433B6138497B699B0802333A6939
:1042100041F82320394B1B683B61FB68DB433A695B
:1042200013403B613B685B6803F48013002B03D0B1
:104230003A69FB6813433B61304A3B6913602F4B7B
:104240005B683B61FB68DB433A6913403B613B6859
:104250005B6803F40013002B03D03A69FB68134337
:104260003B61264A3B695360244BD3F880303B6165
:10427000FB68DB433A6913403B613B685B6803F4CE
:104280008033002B03D03A69FB6813433B611B4A20
:104290003B69C2F88030194BD3F884303B61FB682E
:1042A000DB433A6913403B613B685B6803F40033CE
:1042B000002B03D03A69FB6813433B610F4A3B690B
:1042C000C2F884307B6901337B613B681A687B6983
:1042D00022FA03F3002B7FF4ABAE00BF00BF1C3704
:1042E000BD465DF8047B70470000014000040048B3
:1042F00000080048000C0048001000480008005862
:1043000080B485B000AF78600B467B807B681A690B
:104310007B881340002B02D00123FB7301E00023B4
:10432000FB73FB7B18461437BD465DF8047B704772
:1043300080B483B000AF78600B467B8013467B70FF
:104340007B78002B03D07A887B689A6102E07A88B8
:104350007B689A6200BF0C37BD465DF8047B7047EE
:1043600080B582B000AF78607B68002B01D101235B
:1043700081E07B6893F84130DBB2002B06D17B688B
:10438000002283F840207868FEF7EAFF7B68242249
:1043900083F841207B681B681A687B681B6822F0E1
:1043A00001021A607B685A687B681B6822F07062A1
:1043B0001A617B681B689A687B681B6822F400425C
:1043C0009A607B68DB68012B07D17B689A687B6801
:1043D0001B6842F400429A6006E07B689A687B683A
:1043E0001B6842F404429A607B68DB68022B04D1AC
:1043F0007B681B684FF400625A607B681B685B68CF
:104400007A68126843F0007343F4004353607B689A
:104410001B68DA687B681B6822F40042DA607B68FC
:104420001A697B685B6942EA03017B689B691A022F
:104430007B681B680A43DA607B68D9697B681A6A03
:104440007B681B680A431A607B681B681A687B6874
:104450001B6842F001021A607B6800225A647B6884
:10446000202283F841207B6800221A637B680022A7
:1044700083F84220002318460837BD4680BD00005F
:1044800080B588B002AFF8607A601A460B467B812F
:1044900013463B81FB6893F84130DBB2202B40F0A0
:1044A000DA80FB6893F84030012B01D10223D3E07E
:1044B000FB68012283F84020FFF7A8FB78617B6945
:1044C0000093192301224FF40041F86800F0C4FD65
:1044D0000346002B01D00123BEE0FB68212283F8B4
:1044E0004120FB68102283F84220FB6800225A64B6
:1044F000FB687A685A62FB683A895A85FB68002231
:104500005A63FB685B8D9BB2FF2B0ED9FB68FF22C1
:104510001A85FB681B8DDAB27989514B00934FF0F5
:104520008073F86800F0D4FF6CE0FB685B8D9AB292
:10453000FB681A85FB681B8DDAB27989484B0093BA
:104540004FF00073F86800F0C3FF5BE07A69396AE6
:10455000F86800F0D0FD0346002B01D001237BE07A
:10456000FB685B6A1A78FB681B689A62FB685B6A87
:104570005A1CFB685A62FB685B8D9BB2013B9AB286
:10458000FB685A85FB681B8D013B9AB2FB681A8554
:10459000FB685B8D9BB2002B34D0FB681B8D002B1E
:1045A00030D17B6900933B6A00228021F86800F0DB
:1045B00053FD0346002B01D001234DE0FB685B8DCA
:1045C0009BB2FF2B0ED9FB68FF221A85FB681B8D5F
:1045D000DAB27989002300934FF08073F86800F015
:1045E00077FF0FE0FB685B8D9AB2FB681A85FB686A
:1045F0001B8DDAB27989002300934FF00073F868BD
:1046000000F066FFFB685B8D9BB2002B9ED17A6940
:10461000396AF86800F0B6FD0346002B01D001238B
:104620001AE0FB681B682022DA61FB681B68596886
:10463000FB681A680B4B0B405360FB68202283F821
:104640004120FB68002283F84220FB68002283F8A7
:104650004020002300E0022318461837BD4680BDE5
:104660000020008000E800FE80B588B002AFF8604E
:104670007A601A460B467B8113463B81FB6893F8B0
:104680004130DBB2202B40F0DB80FB6893F84030F8
:10469000012B01D10223D4E0FB68012283F84020E2
:1046A000FFF7B4FA78617B690093192301224FF474
:1046B0000041F86800F0D0FC0346002B01D0012334
:1046C000BFE0FB68222283F84120FB68102283F8B8
:1046D0004220FB6800225A64FB687A685A62FB68D1
:1046E0003A895A85FB6800225A63FB685B8D9BB24E
:1046F000FF2B0ED9FB68FF221A85FB681B8DDAB2EF
:104700007989524B00934FF08073F86800F0E0FE17
:104710006DE0FB685B8D9AB2FB681A85FB681B8DA8
:10472000DAB27989494B00934FF00073F86800F0D2
:10473000CFFE5CE07A69396AF86800F067FD0346ED
:10474000002B01D001237CE0FB681B685A6AFB68E0
:104750005B6AD2B21A70FB685B6A5A1CFB685A62C9
:10476000FB681B8D013B9AB2FB681A85FB685B8D69
:104770009BB2013B9AB2FB685A85FB685B8D9BB28A
:10478000002B34D0FB681B8D002B30D17B6900934C
:104790003B6A00228021F86800F05EFC0346002B93
:1047A00001D001234DE0FB685B8D9BB2FF2B0ED93E
:1047B000FB68FF221A85FB681B8DDAB2798900231A
:1047C00000934FF08073F86800F082FE0FE0FB6802
:1047D0005B8D9AB2FB681A85FB681B8DDAB279890A
:1047E000002300934FF00073F86800F071FEFB683F
:1047F0005B8D9BB2002B9DD17A69396AF86800F015
:10480000C1FC0346002B01D001231AE0FB681B68A2
:104810002022DA61FB681B685968FB681A680C4B38
:104820000B405360FB68202283F84120FB68002284
:1048300083F84220FB68002283F84020002300E038
:10484000022318461837BD4680BD00BF00240080F3
:1048500000E800FE80B588B002AFF8600846114657
:104860001A4603467B810B463B811346FB80FB685F
:1048700093F84130DBB2202B40F0F9803B6A002BEB
:1048800002D0BB8C002B05D1FB684FF400725A6438
:104890000123EDE0FB6893F84030012B01D10223A6
:1048A000E6E0FB68012283F84020FFF7AFF978616A
:1048B0007B690093192301224FF40041F86800F04E
:1048C000CBFB0346002B01D00123D1E0FB68212262
:1048D00083F84120FB68402283F84220FB680022D5
:1048E0005A64FB683A6A5A62FB68BA8C5A85FB685C
:1048F00000225A63F8883A8979897B690193BB6AF7
:1049000000930346F86800F0DBFA0346002B05D05D
:10491000FB68002283F840200123A9E0FB685B8D3F
:104920009BB2FF2B0ED9FB68FF221A85FB681B8DFB
:10493000DAB27989002300934FF08073F86800F0B1
:10494000C7FD0FE0FB685B8D9AB2FB681A85FB68B8
:104950001B8DDAB27989002300934FF00073F86859
:1049600000F0B6FD7A69B96AF86800F0C4FB034646
:10497000002B01D001237BE0FB685B6A1A78FB689F
:104980001B689A62FB685B6A5A1CFB685A62FB6888
:104990005B8D9BB2013B9AB2FB685A85FB681B8D0D
:1049A000013B9AB2FB681A85FB685B8D9BB2002BBA
:1049B00034D0FB681B8D002B30D17B690093BB6A20
:1049C00000228021F86800F047FB0346002B01D04D
:1049D00001234DE0FB685B8D9BB2FF2B0ED9FB687A
:1049E000FF221A85FB681B8DDAB2798900230093B8
:1049F0004FF08073F86800F06BFD0FE0FB685B8D93
:104A00009AB2FB681A85FB681B8DDAB2798900239C
:104A100000934FF00073F86800F05AFDFB685B8D5F
:104A20009BB2002B9ED17A69B96AF86800F0AAFBA4
:104A30000346002B01D001231AE0FB681B682022EB
:104A4000DA61FB681B685968FB681A680A4B0B40FF
:104A50005360FB68202283F84120FB68002283F822
:104A60004220FB68002283F84020002300E002235C
:104A700018461837BD4680BD00E800FE80B588B0F6
:104A800002AFF860084611461A4603467B810B4682
:104A90003B811346FB80FB6893F84130DBB2202B4F
:104AA00040F0FD803B6A002B02D0BB8C002B05D16F
:104AB000FB684FF400725A640123F1E0FB6893F83D
:104AC0004030012B01D10223EAE0FB68012283F888
:104AD0004020FFF79BF878617B690093192301223E
:104AE0004FF40041F86800F0B7FA0346002B01D0FC
:104AF0000123D5E0FB68222283F84120FB68402295
:104B000083F84220FB6800225A64FB683A6A5A62C2
:104B1000FB68BA8C5A85FB6800225A63F8883A8988
:104B200079897B690193BB6A00930346F86800F0BA
:104B30001BFA0346002B05D0FB68002283F84020B7
:104B40000123ADE0FB685B8D9BB2FF2B0ED9FB68A8
:104B5000FF221A85FB681B8DDAB27989524B0093CC
:104B60004FF08073F86800F0B3FC0FE0FB685B8DDA
:104B70009AB2FB681A85FB681B8DDAB279894A4BB9
:104B800000934FF00073F86800F0A2FC7B6900937B
:104B9000BB6A00220421F86800F05EFA0346002B8D
:104BA00001D001237CE0FB681B685A6AFB685B6AE2
:104BB000D2B21A70FB685B6A5A1CFB685A62FB68C7
:104BC0001B8D013B9AB2FB681A85FB685B8D9BB21B
:104BD000013B9AB2FB685A85FB685B8D9BB2002B48
:104BE00034D0FB681B8D002B30D17B690093BB6AEE
:104BF00000228021F86800F02FFA0346002B01D034
:104C000001234DE0FB685B8D9BB2FF2B0ED9FB6847
:104C1000FF221A85FB681B8DDAB279890023009385
:104C20004FF08073F86800F053FC0FE0FB685B8D79
:104C30009AB2FB681A85FB681B8DDAB2798900236A
:104C400000934FF00073F86800F042FCFB685B8D46
:104C50009BB2002B9AD17A69B96AF86800F092FA8F
:104C60000346002B01D001231AE0FB681B682022B9
:104C7000DA61FB681B685968FB681A680B4B0B40CC
:104C80005360FB68202283F84120FB68002283F8F0
:104C90004220FB68002283F84020002300E002232A
:104CA00018461837BD4680BD0024008000E800FE8D
:104CB00080B58AB002AFF8607A603B600B467B81BA
:104CC00000237B61FB6893F84130DBB2202B40F07E
:104CD000F180FB681B689B6903F40043B3F5004F48
:104CE00001D10223E7E0FB6893F84030012B01D1AA
:104CF0000223E0E0FB68012283F84020FB682422C5
:104D000083F84120FB6800225A64FB68DB68012BB2
:104D100007D17B89C3F3090343F0007343F40053C5
:104D200004E07B89C3F3090343F42053FA68126853
:104D30005360FEF76BFFB861FB681B689B6903F06B
:104D40002003202B0CBF01230023DBB2FB77FB6881
:104D50001B689B6903F01003102B0CBF0123002379
:104D6000DBB2BB7734E03B68B3F1FF3F1AD0FEF70C
:104D70004DFF0246BB69D31A3A689A4202D33B6898
:104D8000002B0FD1FB68202283F84120FB685B6C6D
:104D900043F02002FB685A64FB68002283F840203D
:104DA000012388E0FB681B689B6903F02003202B2C
:104DB0000CBF01230023DBB2FB77FB681B689B69F8
:104DC00003F01003102B0CBF01230023DBB2BB77D1
:104DD000FB7F002B02D1BB7F002BC4D0FB681B687C
:104DE0009B6903F01003102B1AD0BB6900933B683A
:104DF00000222021F86800F02FF90346002B01D093
:104E0000012358E0FB681B682022DA61FB6820223E
:104E100083F84120FB68002283F8402000234AE009
:104E2000BB6900933B6800222021F86800F014F968
:104E30000346002B01D001233DE0FB681B681022D4
:104E4000DA61FB681B682022DA617B697A689A4222
:104E500018D1FB681B685A68FB681B6842F48042E3
:104E60005A60BB6900933B6800222021F86800F07B
:104E7000F3F80346002B01D001231CE0FB681B68FC
:104E80002022DA617B6901337B617B697A689A420F
:104E90003FF63BAFFB68202283F84120FB685B6C48
:104EA00043F02002FB685A64FB68002283F840202C
:104EB000012300E0022318462037BD4680BD0000D4
:104EC00080B586B002AFF860084611461A46034620
:104ED0007B810B463B811346FB80FB88DAB27989E4
:104EE000204B00934FF08073F86800F0F1FAFA69F4
:104EF000B969F86800F0FFF80346002B01D00123E0
:104F00002CE0FB88012B05D13B89DAB2FB681B68DA
:104F10009A6215E03B891B0A9BB2DAB2FB681B68F8
:104F20009A62FA69B969F86800F0E5F80346002B5F
:104F300001D0012312E03B89DAB2FB681B689A6258
:104F4000FB690093BB6900228021F86800F084F8B7
:104F50000346002B01D0012300E000231846103740
:104F6000BD4680BD0020008080B586B002AFF860ED
:104F7000084611461A4603467B810B463B81134681
:104F8000FB80FB88DAB27989204B00930023F86814
:104F900000F09EFAFA69B969F86800F0ACF80346C7
:104FA000002B01D001232CE0FB88012B05D13B898C
:104FB000DAB2FB681B689A6215E03B891B0A9BB258
:104FC000DAB2FB681B689A62FA69B969F86800F09E
:104FD00092F80346002B01D0012312E03B89DAB29C
:104FE000FB681B689A62FB690093BB690022402141
:104FF000F86800F031F80346002B01D0012300E0EF
:10500000002318461037BD4680BD00BF0020008039
:1050100080B483B000AF78607B681B689B6903F045
:105020000203022B03D17B681B6800229A627B6813
:105030001B689B6903F00103012B07D07B681B6889
:105040009A697B681B6842F001029A6100BF0C37C5
:10505000BD465DF8047B704780B584B000AFF86052
:10506000B9603B601346FB7131E03B68B3F1FF3F31
:105070002DD0FEF7CBFD0246BB69D31A3A689A429F
:1050800002D33B68002B22D1FB681B689A69BB687E
:105090001340BA689A420CBF01230023DBB21A46C0
:1050A000FB799A4213D1FB685B6C43F02002FB68EA
:1050B0005A64FB68202283F84120FB68002283F8B1
:1050C0004220FB68002283F8402001230FE0FB68A8
:1050D0001B689A69BB681340BA689A420CBF0123E7
:1050E0000023DBB21A46FB799A42BED00023184651
:1050F0001037BD4680BD80B584B000AFF860B960A0
:105100007A6033E07A68B968F86800F001F903461C
:10511000002B01D0012331E0BB68B3F1FF3F25D064
:10512000FEF774FD02467B68D31ABA689A4202D32E
:10513000BB68002B1AD1FB681B689B6903F0020354
:10514000022B13D0FB685B6C43F02002FB685A64AF
:10515000FB68202283F84120FB68002283F842206C
:10516000FB68002283F84020012307E0FB681B68EE
:105170009B6903F00203022BC4D1002318461037A9
:10518000BD4680BD80B584B000AFF860B9607A607C
:105190002FE07A68B968F86800F0BAF80346002B87
:1051A00001D001232DE0FEF731FD02467B68D31AC2
:1051B000BA689A4202D3BB68002B1AD1FB681B68FD
:1051C0009B6903F02003202B13D0FB685B6C43F03A
:1051D0002002FB685A64FB68202283F84120FB68A8
:1051E000002283F84220FB68002283F8402001233C
:1051F00007E0FB681B689B6903F02003202BC8D1E4
:10520000002318461037BD4680BD000080B584B02D
:1052100000AFF860B9607A606BE07A68B968F868E6
:1052200000F076F80346002B01D0012369E0FB680B
:105230001B689B6903F02003202B38D1FB681B6897
:105240009B6903F00403042B05D1FB681B8D002B25
:1052500001D0002355E0FB681B689B6903F0100335
:10526000102B07D1FB681B681022DA61FB6804224F
:105270005A6402E0FB6800225A64FB681B68202223
:10528000DA61FB681B685968FB681A681F4B0B40A2
:105290005360FB68202283F84120FB68002283F8DA
:1052A0004220FB68002283F84020012329E0FEF71A
:1052B000ADFC02467B68D31ABA689A4202D3BB6837
:1052C000002B16D1FB681B689B6903F00403042BB9
:1052D0000FD0FB685B6C43F02002FB685A64FB68EC
:1052E000202283F84120FB68002283F8402001231C
:1052F00007E0FB681B689B6903F00403042B8CD157
:10530000002318461037BD4680BD00BF00E800FEF0
:1053100080B58AB000AFF860B9607A60002387F882
:105320002730FB681B689B69BB6100233B627B687D
:10533000FB61BB6903F01003002B68D0FB681B689E
:105340001022DA6149E0BB68B3F1FF3F45D0FEF7B8
:105350005DFC0246FB69D31ABA689A4202D3BB6865
:10536000002B3AD1FB681B685B6803F480437B61C8
:10537000FB6893F84230FB74FB681B689B6903F47D
:105380000043B3F5004F21D17B69B3F5804F1DD0A9
:10539000FB7C202B1AD0FB681B685A68FB681B68D3
:1053A00042F480425A60FEF731FCF8610EE0FEF7ED
:1053B0002DFC0246FB69D31A192B07D93B6A43F02F
:1053C00020033B62012387F8273006E0FB681B6857
:1053D0009B6903F02003202BE9D1FB681B689B69C4
:1053E00003F02003202B03D097F82730002BAAD0FE
:1053F00097F82730002B03D1FB681B682022DA6165
:105400003B6A43F004033B62012387F82730FB68C3
:105410001B689B69BB61BB6903F48073002B0BD0D5
:105420003B6A43F001033B62FB681B684FF48072E8
:10543000DA61012387F82730BB6903F48063002B0E
:105440000BD03B6A43F008033B62FB681B684FF4D8
:105450008062DA61012387F82730BB6903F40073A7
:10546000002B0BD03B6A43F002033B62FB681B68D6
:105470004FF40072DA61012387F8273097F827305C
:10548000002B1CD0F868FFF7C3FDFB681B68596848
:10549000FB681A680D4B0B405360FB685A6C3B6A03
:1054A0001A43FB685A64FB68202283F84120FB689A
:1054B000002283F84220FB68002283F8402097F8FE
:1054C000273018462837BD4680BD00BF00E800FEE3
:1054D00080B487B000AFF8607B600B467B811346D9
:1054E0007B727B89C3F309027B7A1B0403F47F037D
:1054F0001A437B681A433B6A134323F000437B61E2
:10550000FB681B685A683B6A5B0D03F48061084BBB
:105510000B43DB4302EA0301FB681B687A690A4319
:105520005A6000BF1C37BD465DF8047B704700BF62
:10553000FF63FF0380B483B000AF786039607B689D
:1055400093F84130DBB2202B38D17B6893F84030A0
:10555000012B01D1022332E07B68012283F8402035
:105560007B68242283F841207B681B681A687B686B
:105570001B6822F001021A607B681B681A687B684E
:105580001B6822F480521A607B681B6819687B686C
:105590001B683A680A431A607B681B681A687B6854
:1055A0001B6842F001021A607B68202283F84120C8
:1055B0007B68002283F84020002300E00223184685
:1055C0000C37BD465DF8047B704780B485B000AFF2
:1055D000786039607B6893F84130DBB2202B39D199
:1055E0007B6893F84030012B01D1022333E07B68C4
:1055F000012283F840207B68242283F841207B68C5
:105600001B681A687B681B6822F001021A607B68BD
:105610001B681B68FB60FB6823F47063FB603B68DE
:105620001B02FA681343FB607B681B68FA681A6008
:105630007B681B681A687B681B6842F001021A606D
:105640007B68202283F841207B68002283F8402079
:10565000002300E0022318461437BD465DF8047BA2
:105660007047000080B400AF054B1B68044A43F448
:105670008073136000BFBD465DF8047B704700BFB8
:105680000004005880B400AF044B1B6803F4C063EF
:105690001846BD465DF8047B704700BF0004005803
:1056A00080B400AF4FF0B0431B6803F48013B3F530
:1056B000801F01D1012300E000231846BD465DF89C
:1056C000047B704780B400AF4FF0B0431B684FF0CD
:1056D000B04243F48033136000BFBD465DF8047BE5
:1056E000704780B400AF4FF0B0431B684FF0B0423A
:1056F00023F48033136000BFBD465DF8047B704720
:1057000080B400AF4FF0B0431B6803F40033B3F52F
:10571000003F01D1012300E000231846BD465DF89B
:10572000047B704780B400AF4FF0B0431B684FF06C
:10573000B04243F48073136000BFBD465DF8047B44
:10574000704780B400AF4FF0B0431B684FF0B042D9
:1057500023F48073136000BFBD465DF8047B70477F
:1057600080B400AF4FF0B0431B6803F48063B3F51F
:10577000806F01D1012300E000231846BD465DF88B
:10578000047B704780B483B000AF78604FF0B043C3
:105790005B6823F0FE427B681B064FF0B041134369
:1057A0004B6000BF0C37BD465DF8047B704780B48A
:1057B00000AF4FF0B043D3F898304FF0B04243F011
:1057C0000103C2F8983000BFBD465DF8047B704706
:1057D00080B400AF4FF0B043D3F898304FF0B042F0
:1057E00023F00103C2F8983000BFBD465DF8047B8A
:1057F000704780B400AF4FF0B043D3F8983003F057
:105800000203022B01D1012300E000231846BD460C
:105810005DF8047B704780B400AF4FF0B043D3F81D
:1058200090304FF0B04243F00103C2F8903000BF17
:10583000BD465DF8047B704780B400AF4FF0B043C5
:10584000D3F890304FF0B04223F00103C2F890300B
:1058500000BFBD465DF8047B704780B400AF4FF0D9
:10586000B043D3F890304FF0B04243F00403C2F895
:10587000903000BFBD465DF8047B704780B400AF38
:105880004FF0B043D3F890304FF0B04223F0040310
:10589000C2F8903000BFBD465DF8047B704780B40D
:1058A00000AF4FF0B043D3F8903003F00203022B67
:1058B00001D1012300E000231846BD465DF8047BBA
:1058C000704780B400AF4FF0B043D3F894304FF03E
:1058D000B04243F00103C2F8943000BFBD465DF80A
:1058E000047B704780B400AF4FF0B043D3F89430DE
:1058F0004FF0B04223F00103C2F8943000BFBD4620
:105900005DF8047B704780B400AF4FF0B043D3F82C
:10591000943003F00203022B01D1012300E00023A5
:105920001846BD465DF8047B704780B400AF4FF069
:10593000B043D3F894304FF0B04243F00403C2F8C0
:10594000943000BFBD465DF8047B704780B400AF63
:105950004FF0B043D3F894304FF0B04223F004033B
:10596000C2F8943000BFBD465DF8047B704780B438
:1059700000AF4FF0B043D3F8943003F00803082B86
:1059800001D1012300E000231846BD465DF8047BE9
:10599000704780B483B000AF78604FF0B043D3F865
:1059A000943023F470627B681B024FF0B0411343C4
:1059B000C1F8943000BF0C37BD465DF8047B7047DA
:1059C00080B400AF4FF0B0431B684FF0B04243F0DB
:1059D0000103136000BFBD465DF8047B704780B4CF
:1059E00000AF4FF0B0431B684FF0B04223F001030B
:1059F000136000BFBD465DF8047B704780B400AF04
:105A00004FF0B0431B6803F00203022B01D10123C6
:105A100000E000231846BD465DF8047B704780B463
:105A200083B000AF78604FF0B0431B6823F0F00202
:105A30004FF0B0417B6813430B6000BF0C37BD468D
:105A40005DF8047B704780B483B000AF4FF0B04383
:105A50001B6803F0F0037B607B68B02B01D9B02397
:105A60007B607B6818460C37BD465DF8047B704749
:105A700080B483B000AF78604FF0B0435B6823F42C
:105A80007F427B681B024FF0B04113434B6000BF65
:105A90000C37BD465DF8047B704780B483B000AF1F
:105AA00078604FF0B0439B6823F003024FF0B041A1
:105AB0007B6813438B6000BF0C37BD465DF8047BE9
:105AC000704780B400AF4FF0B0439B6803F00C0305
:105AD0001846BD465DF8047B704780B483B000AFC4
