:020000040800F2
:10000000000003200D300008292D00082F2D0008C6
:10001000352D00083B2D0008412D00080000000090
:10002000000000000000000000000000472D000854
:10003000552D000800000000632D0008712D0008F8
:10004000653000086530000865300008653000083C
:10005000653000086530000865300008653000082C
:10006000653000086530000865300008653000081C
:10007000653000086530000865300008653000080C
:1000800065300008653000086530000865300008FC
:1000900065300008653000086530000865300008EC
:1000A00065300008653000086530000865300008DC
:1000B00065300008653000086530000865300008CC
:1000C00065300008653000086530000865300008BC
:1000D0007D2D0008912D000865300008653000086E
:1000E000A52D00086530000865300008653000085F
:1000F000653000086530000865300008653000088C
:10010000653000086530000865300008653000087B
:10011000653000086530000865300008653000086B
:10012000653000086530000865300008653000085B
:0C013000653000086530000865300008EC
:1001400010B5054C237833B9044B13B10448AFF311
:1001500000800123237010BDF40100200000000086
:1001600074D6000808B5034B1BB103490348AFF32D
:10017000008008BD00000000F801002074D60008CF
:10018000034613F8012B002AFBD1181A01387047D7
:1001900001F0FF01102A2BDB10F0070F08D010F838
:1001A000013B013A8B422DD010F0070F42B3F6D13C
:1001B000F0B441EA012141EA014122F007047FF055
:1001C00000070023F0E80256083C85EA010586EAAC
:1001D000010685FA47F5A3FA87F586FA47F6A5FAE8
:1001E00087F68EB9EED1F0BC01F0FF0102F00702F4
:1001F00032B110F8013B013A83EA010313B1F8D19F
:100200000020704701387047002D06BF354603387F
:10021000073815F0010F07D1013015F4807F02BFB8
:10022000013015F4C03F0130F0BC0138704700BF09
:1002300081F0004102E000BF83F0004330B54FEA97
:1002400041044FEA430594EA050F08BF90EA020F04
:100250001FBF54EA000C55EA020C7FEA645C7FEA97
:10026000655C00F0E2804FEA5454D4EB5555B8BFBA
:100270006D420CDD2C4480EA020281EA030382EA2B
:10028000000083EA010180EA020281EA0303362DBD
:1002900088BF30BD11F0004F4FEA01314FF4801C90
:1002A0004CEA113102D0404261EB410113F0004FA2
:1002B0004FEA03334CEA133302D0524263EB430359
:1002C00094EA050F00F0A780A4F10104D5F1200EF7
:1002D0000DDB02FA0EFC22FA05F2801841F1000152
:1002E00003FA0EF2801843FA05F359410EE0A5F126
:1002F00020050EF1200E012A03FA0EFC28BF4CF057
:10030000020C43FA05F3C01851EBE37101F000450C
:1003100007D54FF0000EDCF1000C7EEB00006EEB19
:100320000101B1F5801F1BD3B1F5001F0CD34908A3
:100330005FEA30004FEA3C0C04F101044FEA4452FA
:1003400012F5800F80F09A80BCF1004F08BF5FEA81
:10035000500C50F1000041EB045141EA050130BD61
:100360005FEA4C0C404141EB0101013C28BFB1F573
:10037000801FE9D291F0000F04BF01460020B1FABE
:1003800081F308BF2033A3F10B03B3F120020CDA91
:100390000C3208DD02F1140CC2F10C0201FA0CF06F
:1003A00021FA02F10CE002F11402D8BFC2F1200CD4
:1003B00001FA02F120FA0CFCDCBF41EA0C0190408A
:1003C000E41AA2BF01EB0451294330BD6FEA0404D3
:1003D0001F3C1CDA0C340EDC04F11404C4F12002BE
:1003E00020FA04F001FA02F340EA030021FA04F3D0
:1003F00045EA030130BDC4F10C04C4F1200220FA27
:1004000002F001FA04F340EA0300294630BD21FA64
:1004100004F0294630BD94F0000F83F4801306BF2A
:1004200081F480110134013D4EE77FEA645C18BF1E
:100430007FEA655C29D094EA050F08BF90EA020FB5
:1004400005D054EA000C04BF1946104630BD91EAAD
:10045000030F1EBF0021002030BD5FEA545C05D1B0
:100460004000494128BF41F0004130BD14F58004EF
:100470003CBF01F5801130BD01F0004545F0FE4163
:1004800041F470014FF0000030BD7FEA645C1ABF98
:10049000194610467FEA655C1CBF0B46024650EACF
:1004A000013406BF52EA033591EA030F41F40021FB
:1004B00030BD00BF90F0000F04BF0021704730B581
:1004C0004FF4806404F132044FF000054FF0000156
:1004D00050E700BF90F0000F04BF0021704730B517
:1004E0004FF4806404F1320410F0004548BF4042EC
:1004F0004FF000013EE700BF42004FEAE2014FEA41
:1005000031014FEA02701FBF12F07F4393F07F4F1B
:1005100081F06051704732F07F4208BF704793F01E
:100520007F4F04BF41F40021704730B54FF4607431
:1005300001F0004521F000411CE700BF50EA010234
:1005400008BF704730B54FF000050AE050EA0102DD
:1005500008BF704730B511F0004502D5404261EB4D
:1005600041014FF4806404F132045FEA915C3FF48E
:10057000D8AE4FF003025FEADC0C18BF03325FEA2B
:10058000DC0C18BF033202EBDC02C2F1200300FADC
:1005900003FC20FA02F001FA03FE40EA0E0021FA01
:1005A00002F11444BDE600BF70B54FF0FF0C4CF4EF
:1005B000E06C1CEA11541DBF1CEA135594EA0C0FA1
:1005C00095EA0C0F00F0DEF82C4481EA030621EADC
:1005D0004C5123EA4C5350EA013518BF52EA033517
:1005E00041F4801143F4801338D0A0FB02CE4FF0C9
:1005F0000005E1FB02E506F00042E0FB03E54FF0F9
:100600000006E1FB03569CF0000F18BF4EF0010EF0
:10061000A4F1FF04B6F5007F64F5407404D25FEAEC
:100620004E0E6D4146EB060642EAC62141EA55519F
:100630004FEAC52040EA5E504FEACE2EB4F1FD0CE1
:1006400088BFBCF5E06F1ED8BEF1004F08BF5FEA5F
:10065000500E50F1000041EB045170BD06F0004611
:1006600046EA010140EA020081EA0301B4EB5C04BE
:10067000C2BFD4EB0C0541EA045170BD41F48011B6
:100680004FF0000E013C00F3AB8014F1360FDEBFDB
:10069000002001F0004170BDC4F10004203C35DAB7
:1006A0000C341BDC04F11404C4F1200500FA05F33A
:1006B00020FA04F001FA05F240EA020001F00042DB
:1006C00021F0004110EBD37021FA04F642EB060151
:1006D0005EEA430E08BF20EAD37070BDC4F10C047B
:1006E000C4F1200500FA04F320FA05F001FA04F23F
:1006F00040EA020001F0004110EBD37041F100012B
:100700005EEA430E08BF20EAD37070BDC4F1200535
:1007100000FA05F24EEA020E20FA04F301FA05F29D
:1007200043EA020321FA04F001F0004121FA04F245
:1007300020EA020000EBD3705EEA430E08BF20EA15
:10074000D37070BD94F0000F0FD101F0004640004F
:1007500041EB010111F4801F08BF013CF7D041EAD1
:10076000060195F0000F18BF704703F000465200D5
:1007700043EB030313F4801F08BF013DF7D043EAA6
:100780000603704794EA0C0F0CEA135518BF95EA5C
:100790000C0F0CD050EA410618BF52EA4306D1D1E3
:1007A00081EA030101F000414FF0000070BD50EA02
:1007B000410606BF1046194652EA430619D094EA8C
:1007C0000C0F02D150EA013613D195EA0C0F05D176
:1007D00052EA03361CBF104619460AD181EA0301CA
:1007E00001F0004141F0FE4141F470014FF0000082
:1007F00070BD41F0FE4141F4780170BD70B54FF01D
:10080000FF0C4CF4E06C1CEA11541DBF1CEA13559C
:1008100094EA0C0F95EA0C0F00F0A7F8A4EB05047E
:1008200081EA030E52EA03354FEA013100F0888075
:100830004FEA03334FF0805545EA131343EA12633E
:100840004FEA022245EA111545EA10654FEA0026F3
:100850000EF000419D4208BF964244F1FD0404F5AC
:10086000407402D25B084FEA3202B61A65EB030508
:100870005B084FEA32024FF480104FF4002CB6EBC5
:10088000020E75EB030E22BFB61A754640EA0C0045
:100890005B084FEA3202B6EB020E75EB030E22BF85
:1008A000B61A754640EA5C005B084FEA3202B6EBC6
:1008B000020E75EB030E22BFB61A754640EA9C0085
:1008C0005B084FEA3202B6EB020E75EB030E22BF55
:1008D000B61A754640EADC0055EA060E18D04FEA13
:1008E000051545EA16754FEA06164FEAC30343EAB3
:1008F00052734FEAC2025FEA1C1CC0D111F4801F80
:100900000BD141EA00014FF000004FF0004CB6E778
:1009100011F4801F04BF01430020B4F1FD0C88BF17
:10092000BCF5E06F3FF6AFAEB5EB030C04BFB6EB22
:10093000020C5FEA500C50F1000041EB045170BD15
:100940000EF0004E4EEA113114EB5C04C2BFD4EB42
:100950000C0541EA045170BD41F480114FF0000EC6
:10096000013C90E645EA060E8DE60CEA135594EA42
:100970000C0F08BF95EA0C0F3FF43BAF94EA0C0F45
:100980000AD150EA01347FF434AF95EA0C0F7FF4BA
:1009900025AF104619462CE795EA0C0F06D152EA0E
:1009A00003353FF4FDAE1046194622E750EA4106F2
:1009B00018BF52EA43067FF4C5AE50EA41047FF403
:1009C0000DAF52EA43057FF4EBAE12E74FF0FF3C68
:1009D00006E000BF4FF0010C02E000BF4FF0010C39
:1009E0004DF804CD4FEA410C7FEA6C5C4FEA430CB2
:1009F00018BF7FEA6C5C1BD001B050EA410C0CBF01
:100A000052EA430C91EA030F02BF90EA020F002062
:100A1000704710F1000F91EA030F58BF994208BFC9
:100A200090422CBFD8176FEAE37040F00100704786
:100A30004FEA410C7FEA6C5C02D150EA013C07D1DD
:100A40004FEA430C7FEA6C5CD6D152EA033CD3D028
:100A50005DF8040B704700BF8446104662468C4622
:100A60001946634600E000BF01B5FFF7B7FF002855
:100A700048BF10F1000F01BD4DF808EDFFF7F4FF7E
:100A80000CBF012000205DF808FB00BF4DF808ED09
:100A9000FFF7EAFF34BF012000205DF808FB00BF2C
:100AA0004DF808EDFFF7E0FF94BF012000205DF84E
:100AB00008FB00BF4DF808EDFFF7CEFF94BF012003
:100AC00000205DF808FB00BF4DF808EDFFF7C4FFFC
:100AD00034BF012000205DF808FB00BF4FEA410C45
:100AE0007FEA6C5C02D150EA013C0AD14FEA430C28
:100AF0007FEA6C5C02D152EA033C02D14FF0000065
:100B000070474FF0010070474FEA410212F50012A2
:100B100015D211D56FF47873B3EB625212D94FEA44
:100B2000C12343F0004343EA505311F0004F23FA2E
:100B300002F018BF404270474FF00000704750EA83
:100B4000013005D111F0004008BF6FF00040704740
:100B50004FF00000704700BF4A0011D212F500129A
:100B600011D20DD56FF47873B3EB62520ED44FEA05
:100B7000C12343F0004343EA505323FA02F0704785
:100B80004FF00000704750EA013002D14FF0FF30C3
:100B900070474FF0000070474FEA4102B2F1E04366
:100BA00024BFB3F5001CDCF1FE5C0DD901F0004C54
:100BB0004FEAC0024CEA5070B2F1004F40EB8300A4
:100BC00008BF20F00100704711F0804F21D113F1D0
:100BD0003872BCBF01F00040704741F480114FEA09
:100BE0005252C2F11802C2F1200C10FA0CF320FA92
:100BF00002F018BF40F001004FEAC1234FEAD323AF
:100C000003FA0CFC40EA0C0023FA02F34FEA430318
:100C1000CCE77FEA625307D150EA01331EBF4FF0A1
:100C2000FE4040F44000704701F0004040F0FE40BC
:100C300040F40000704700BF53B94AB9002908BF0B
:100C400000281CBF4FF0FF314FF0FF3000F0AAB971
:100C5000ADF1080C6DE904CE00F03CF8DDF804E0DD
:100C6000DDE9022304B0704738B5002200230446B2
:100C70000D46FFF70BFF28B920462946BDE838404E
:100C800000F00AB8204605F1004100F005F84042A6
:100C900061EB410138BD00BFD0B50C4B00220646C8
:100CA0000F46FFF781FCFFF757FF0446FFF702FCF2
:100CB000074B0022FFF778FC02460B4630463946C8
:100CC000FFF7BAFAFFF748FF2146D0BD0000F03D1C
:100CD0000000F0412DE9F047089D04468E46002BA8
:100CE0004DD18A42944669D9B2FA82F252B101FAE0
:100CF00002F3C2F1200120FA01F10CFA02FC41EAF0
:100D0000030E94404FEA1C48210CBEFBF8F61FFA74
:100D10008CF708FB16E341EA034306FB07F199420F
:100D20000AD91CEB030306F1FF3080F01F819942C2
:100D300040F21C81023E63445B1AA4B2B3FBF8F09C
:100D400008FB103344EA034400FB07F7A7420AD923
:100D50001CEB040400F1FF3380F00A81A74240F24B
:100D600007816444023840EA0640E41B00261DB1B6
:100D7000D4400023C5E900433146BDE8F0878B42EB
:100D800009D9002D00F0EF800026C5E900013046AA
:100D90003146BDE8F087B3FA83F6002E4AD18B4284
:100DA00002D3824200F2F980841A61EB030301202E
:100DB0009E46002DE0D0C5E9004EDDE702B9FFDE1A
:100DC000B2FA82F2002A40F09280A1EB0C014FEAC5
:100DD0001C471FFA8CFE0126200CB1FBF7F307FB22
:100DE000131140EA01410EFB03F0884208D91CEBC5
:100DF000010103F1FF3802D2884200F2CB80434662
:100E0000091AA4B2B1FBF7F007FB101144EA014440
:100E10000EFB00FEA64508D91CEB040400F1FF31CF
:100E200002D2A64500F2BB800846A4EB0E0440EABD
:100E300003409CE7C6F12007B34022FA07FC4CEAC6
:100E4000030C20FA07F401FA06F31C43F9404FEAB9
:100E50001C4900FA06F3B1FBF9F8200C1FFA8CFECE
:100E600009FB181140EA014108FB0EF0884202FA22
:100E700006F20BD91CEB010108F1FF3A80F08880E3
:100E8000884240F28580A8F102086144091AA4B2A0
:100E9000B1FBF9F009FB101144EA014100FB0EFE21
:100EA0008E4508D91CEB010100F1FF346CD28E4550
:100EB0006AD90238614440EA0840A0FB0294A1EBE1
:100EC0000E01A142C846A64656D353D05DB1B3EB3E
:100ED000080261EB0E0101FA07F722FA06F3F1406E
:100EE0001F43C5E9007100263146BDE8F087C2F115
:100EF0002003D8400CFA02FC21FA03F3914001438D
:100F00004FEA1C471FFA8CFEB3FBF7F007FB1036C5
:100F10000B0C43EA064300FB0EF69E4204FA02F471
:100F200008D91CEB030300F1FF382FD29E422DD9C4
:100F3000023863449B1B89B2B3FBF7F607FB1633F9
:100F400041EA034106FB0EF38B4208D91CEB010179
:100F500006F1FF3816D28B4214D9023E6144C91AF9
:100F600046EA004638E72E46284605E70646E3E609
:100F70001846F8E64B45A9D2B9EB020864EB0C0E13
:100F80000138A3E74646EAE7204694E74046D1E722
:100F9000D0467BE7023B614432E7304609E76444D0
:100FA000023842E7704700BF80B582B000AF78607A
:100FB0007B681B88952B10D8104B1B685A6A7B687E
:100FC0001B881946D2B27B680B449A707B681B88D9
:100FD00001339AB27B681A8002E07B6800221A8093
:100FE0007B6802337A681288134401221946034849
:100FF00005F036FE00BF0837BD4680BD1002002058
:1010000080B582B000AF78600B467B8013463B8092
:10101000542279682F4807F0D1FD2F4A7B8813802E
:101020002E4A3B8813802D4B1B880E2B3ED801A2E5
:1010300052F823F071100008AD1000087B10000872
:10104000AD10000885100008AD1000088F100008D2
:10105000AD10000899100008AD100008AD10000890
:10106000AD100008AD100008AD100008A310000876
:101070001B4B4FF079521A6018E0194B4FF0785221
:101080001A6013E0164B4FF076521A600EE0144BC4
:101090004FF074521A6009E0114B4FF072521A600F
:1010A00004E00F4B4FF070521A6000BF0D4B1B78DD
:1010B0009BB25B0099B201230522064803F02AFA8D
:1010C0000346002B01D1002300E001231846083716
:1010D000BD4680BDA40200200A0000200C000020B4
:1010E000000300200800002080B586B004AF03464E
:1010F0003960FB80FB88DAB22A4B1B88DBB21343D2
:10110000DBB263F07E03DAB2274B1A70274B1B88E1
:10111000DBB243F00303DAB2234B5A70244B1B7843
:101120009BB25B0099B201230293022301931E4BF1
:101130000093012301221F4802F0BEFF0346002B4B
:101140002BD11B4B1B785B001BB243F001031BB27E
:1011500099B20123029302230193174B00930123B9
:101160000022144803F0BCF80346002B15D1124BA3
:101170001B781B021BB21A460F4B5B78134307EE1A
:10118000903AB8EEE77A0D4BD3ED007A67EE277A06
:101190003B68C3ED007A002300E0012318460837BE
:1011A000BD4680BD0C000020F80200200A0000208F
:1011B00008000020A4020020FC0200200003002000
:1011C00080B485B000AF78604FF0B043DA6C4FF078
:1011D000B0417B681343CB644FF0B043DA6C7B685B
:1011E0001340FB60FB6800BF1437BD465DF8047B0D
:1011F0007047000080B582B000AF7860391D4FF0B5
:10120000FF330122034805F09DFC7B681846083730
:10121000BD4680BD58030020B0B5ACB00CAF02F0A5
:101220009FF800F0B5FB00F019FA00F06FFA00F03B
:1012300063FB00F0C9FA00F087FA00F011FB00F040
:10124000A7FB00F065FC07F17C031946854801F017
:1012500029FF0346012B21D0834B002283F8202055
:10126000814B002283F821207F4B804ADA607E4B3D
:101270007F4A9A607C4B4FF000021A617A4B7D4A9C
:101280009A61794B7C4A5A61774B4FF00002DA61E0
:10129000FB6F1946794808F001FC02E0784808F035
:1012A00083FC022260216F48FFF7AAFE0346002B51
:1012B00007D140F2DC5002F0D9F8724808F0EEFB9A
:1012C00002E0714808F0EAFB07F17B0301221946AE
:1012D0006E4805F0C5FC02F0B1F803466C4A136095
:1012E00002F0ACF803466B4A13606B496B4808F098
:1012F000D5FB062301220121694808F0CFFB00F04D
:1013000013FE00F0FBFD41F2883002F0AFF86548B3
:1013100008F04AFC00F05EFF034683F00103DBB2F5
:10132000002B03D0604808F03FFC02E05F4808F063
:101330003BFC5F4808F038FC5E4808F035FC0023B1
:1013400087F84530012387F84630022387F8473075
:10135000032387F87730022387F844306D4607F17E
:101360004C040FCC0FC50FCC0FC594E8070085E8DF
:10137000070007F144030CCB0121042000F0B0FF6B
:1013800002F05CF803464C4A13604C4801F038FA0E
:1013900002F054F802464A4B1B68D31A41F28832D5
:1013A000934206D900F0AAFD02F048F80346444AE9
:1013B000136002F043F802463F4B1B68D31A414AC0
:1013C00093420DD9404808F0EFFB4FF47A7002F0D9
:1013D0004DF802F088F902F031F80346364A1360FE
:1013E00002F02CF802462B4B1B68D31A42F2107203
:1013F000934275D907F110031946304801F06AFA93
:101400000346002B64D1314808F048FB3B7C012B9C
:1014100012D16D4607F118040FCC0FC50FCC0FC5C4
:1014200094E8070085E8070007F110030CCB0121C1
:10143000032000F055FF4EE03B7C002B4BD16D4666
:1014400007F118040FCC0FC50FCC0FC594E80700A7
:1014500085E8070007F110030CCB0021022000F003
:101460003FFF38E0040300201C0500200000F84185
:101470000000E04100008C420000F04190D60008DE
:10148000C8D600080CD7000818D700085803002059
:101490007C0500208C05002028D7000844D70008D0
:1014A00064D7000898D70008B4D70008D8D7000838
:1014B000FCD7000814D8000888050020100600207A
:1014C0008405002020BF02002CD8000844D8000862
:1014D000524808F069FB01F0B1FF0346504A13601F
:1014E00001F0ACFF02464F4B1B68D31AB3F5FA7FED
:1014F0005ED94D4801F0AEFA4C4B93F858204C4B56
:101500001A704B4B1A784B4B1B789A4208D04A48BA
:1015100008F04AFB464B1A78464B1A7001F02AFA3B
:10152000424800F0B9FF414C3B46184600F076FBBC
:1015300004F124033A4607CA83E807003B4B93F8BB
:101540002C203E4B1A703D4B1A783D4B1B789A422B
:1015500008D03C4808F028FB384B1A78384B1A70F2
:1015600001F008FA314C3B46184600F027FA04F126
:1015700030033A461068516803C3127A1A702B4B35
:1015800093F83020304B1A702F4B1A782F4B1B7862
:101590009A4208D02E4808F007FB2B4B1A782B4BA9
:1015A0001A7001F0E7F901F049FF03461D4A136084
:1015B00001F044FF0246274B1B68D31A47F2305212
:1015C00093427FF6E5AE184801F044FA174800F060
:1015D00063FF164C3B46184600F020FB04F1240341
:1015E0003A4607CA83E80700104C3B46184600F00D
:1015F000E5F904F130033A461068516803C3127AE2
:101600001A70154801F054F801F0ECF900F08CFC68
:1016100001F014FF03460F4A1360B9E658D80008DA
:101620008C0500207C050020700500201C05002092
:101630000E0600200F06002070D800080D060020BE
:101640000C06002080D800080B0600200A060020A7
:1016500094D80008800500205805002080B59AB075
:1016600000AF07F1200348220021184607F0B4FA22
:101670003B1D00221A605A609A60DA601A615A6152
:101680009A61214B1B6823F4C0631F4A43F4007323
:1016900013601D4B1B6803F4C0633B603B6822234F
:1016A0003B624FF48073FB620123FB6340233B6387
:1016B00000233B64A0237B640023FB6407F1200329
:1016C000184603F095FF0346002B01D001F0F0F916
:1016D0006F237B600023BB600023FB6000233B6122
:1016E00000237B610023BB610023FB613B1D0121C3
:1016F000184604F0F1FA0346002B01D001F0D8F9A6
:1017000000BF6837BD4680BD0004005880B594B066
:1017100000AF3B4650220021184607F05DFA4FF417
:1017200000533B600023BB641023FB643B46184618
:1017300004F011FF0346002B01D001F0B9F900BFFE
:101740005037BD4680BD000080B500AF1B4B1C4A22
:101750001A601A4B1B4A5A60184B00229A60174BAA
:101760000122DA60154B00221A61144B00225A61E3
:10177000124B00229A61114B0022DA610F4B0022BA
:101780001A620E4802F01EFA0346002B01D001F047
:101790008FF90021094803F0FFFA0346002B01D01E
:1017A00001F086F90021054803F041FB0346002BB8
:1017B00001D001F07DF900BF80BD00BF040300200F
:1017C00000540040BB7C700080B500AF224B234A20
:1017D0001A60214B4FF416525A601F4B00229A6038
:1017E0001D4B0022DA601C4B00221A611A4B0C229E
:1017F0005A61194B00229A61174B00221A62164B4C
:1018000000225A62144B00229A62134B00225A663D
:10181000114805F047F90346002B01D001F048F9C3
:1018200000210D4807F0C5F80346002B01D001F058
:101830003FF90021084807F0FAF80346002B01D0D1
:1018400001F036F9044807F07BF80346002B01D07D
:1018500001F02EF900BF80BD580300200080004039
:1018600080B500AF224B234A1A60214B4FF4E1327E
:101870005A601F4B00229A601D4B0022DA601C4BFD
:1018800000221A611A4B0C225A61194B00229A61EC
:10189000174B0022DA61164B00221A62144B002209
:1018A0005A62134B00229A62114805F0FBF8034676
:1018B000002B01D001F0FCF800210D4807F079F869
:1018C0000346002B01D001F0F3F80021084807F08F
:1018D000AEF80346002B01D001F0EAF8044807F007
:1018E0002FF80346002B01D001F0E2F800BF80BDC5
:1018F000EC0300200038014080B586B000AF3B1DEE
:1019000000221A605A609A60DA601A610220FFF7BA
:1019100057FC0420FFF754FC002244F210011B483E
:1019200002F038F94FF4C0537B604FF44413BB60AE
:101930000023FB603B1D1946144801F0A3FF44F24D
:1019400010037B600123BB600023FB6000233B612D
:101950003B1D19460D4801F095FF4FF400437B6095
:101960004FF48813BB600023FB603B1D19460748FA
:1019700001F088FF00220021282001F08CFE2820A1
:1019800001F0A3FE00BF1837BD4680BD000400482B
:1019900080B584B002AF00233B71FF237B713A1DF9
:1019A0004FF0FF33009302234221034802F09AF9DB
:1019B00000BF0837BD4680BD0403002080B588B055
:1019C00002AF786009233B7507F114024FF0FF3333
:1019D000009301234221364802F084F907F11302F3
:1019E0004FF0FF33009301234221314802F06EFA99
:1019F000FB7C3B72FB7C03F00103002B14BF012333
:101A00000023DBB27B72FB7C5B1003F00103002B35
:101A100014BF01230023DBB2BB72FB7C9B1003F0DD
:101A20000103002B14BF01230023DBB2FB72FB7CFC
:101A3000DB1003F00103002B14BF01230023DBB2F2
:101A40003B73FB7C1B1103F00103002B14BF01232C
:101A50000023DBB27B73FB7C5B1103F00103002BE3
:101A600014BF01230023DBB2BB73FB7C9B1103F08B
:101A70000103002B14BF01230023DBB2FB73FB7CAB
:101A80005BB2DB115BB203F00103002B14BF012337
:101A90000023DBB23B747B681A4607F1080303CBD3
:101AA000106051601B78137278681837BD4680BD8E
:101AB0000403002080B586B002AF786008233B7332
:101AC00007F10C024FF0FF330093012342210E482F
:101AD00002F008F907F10B024FF0FF3300930123E6
:101AE0004221094802F0F2F9FA7A084B1A707B6831
:101AF00006491A460B4603CB106051601B781372DF
:101B000078681037BD4680BD04030020980500208A
:101B100080B584B002AF02233B71FF237B713A1D75
:101B20004FF0FF33009302234221214802F0DAF8FC
:101B300004233B7100237B713A1D4FF0FF33009368
:101B4000022342211A4802F0CDF803233B710023FF
:101B50007B713A1D4FF0FF3300930223422114485A
:101B600002F0C0F805233B713B1D5A1C4FF0FF33B8
:101B70000093012342210E4802F0A8F97B795BB261
:101B800023F006035BB243F002035BB2DBB27B716E
:101B900005233B713A1D4FF0FF330093022342218E
:101BA000034802F09FF800BF0837BD4680BD00BF64
:101BB0000403002080B586B000AF0346FB82154BBE
:101BC000DA68FB8A1340002B1CD0124AFB8AD360D0
:101BD000FB8AB3F5004F09D0B3F5004F14DCB3F521
:101BE000006F0BD0B3F5805F08D00DE03B46184680
:101BF000FFF760FF084B01221A7006E0064B022235
:101C00001A7002E000BF00E000BF00BF1837BD46F9
:101C100080BD00BF000800588004002090B587B048
:101C200000AF78604FF480512E4801F09BFF0346CF
:101C3000002B14BF01230023DBB23B734FF4006180
:101C4000284801F08FFF0346002B14BF0123002317
:101C5000DBB27B733B7B83F00103DBB2002B0AD04A
:101C60007B7B83F00103DBB2002B04D01E4B3B6176
:101C700001233B752AE03B7B83F00103DBB2002BA1
:101C800007D07B7B002B04D0184B3B6102233B75B4
:101C90001CE03B7B002B0AD07B7B83F00103DBB293
:101CA000002B04D0124B3B6103233B750EE03B7BC2
:101CB000002B07D07B7B002B04D00E4B3B61042311
:101CC0003B7503E00C4B3B6100233B757B681C4676
:101CD00007F10C0393E8070084E8070078681C37D5
:101CE000BD4690BD00040048ACD80008B4D8000838
:101CF000C4D80008D8D80008ECD8000880B584B053
:101D000000AF78607B681B68684A93420CD16848D2
:101D1000FFF74AF9664B1B881A46664B13440122AB
:101D20001946654804F09CFF7B681B68634A934230
:101D300040F0B7807B689B6D13F8013CFB73604BF0
:101D40001B78002B00F0A6805E4B1B885A1C91B2BA
:101D50005C4A118019465C4AFB7B535401F06EFBD0
:101D600003465A4A1360FB7B0D2B08D0FB7B0A2BE2
:101D700005D0544B1B88B3F5FA7FC0F08B80504BD5
:101D80001B78052B00F2838001A252F823F000BFDC
:101D90008F1E0008A91D0008C51D0008F11D0008C0
:101DA000071E0008451E00084949474807F085FFFF
:101DB0000346002B62D0474807F0F6FE464B01224F
:101DC0001A705BE04549404807F077FF0346002B57
:101DD00003D0414B01221A7052E041493A4807F0C2
:101DE0006CFF0346002B4BD03B4B01221A7047E09F
:101DF0003C49354807F061FF0346002B42D0364B83
:101E000001221A703EE038492F4807F056FF03467A
:101E1000002B09D0304B01221A70344B01221A706A
:101E2000284B00221A802FE03149274807F045FF50
:101E30000346002B28D02D4B00221A70214B002284
:101E40001A8021E02B49204807F037FF0346002B7A
:101E500003D01C4B00221A8018E01D491A4807F0D5
:101E60002CFF0346002B11D01B4B01221A70224875
:101E700007F09AFE134B00221A8007E000BF06E02D
:101E800000BF04E000BF02E000BF00E000BF0D4B58
:101E900000221A807B689B6D01221946786804F045
:101EA000DFFE00BF1037BD4680BD00BF00380140D7
:101EB0008404002086040020EC0300200080004001
:101EC0007805002008060020A405002088050020D1
:101ED000F4D80008F8D80008A105002008D90008A7
:101EE00018D900082CD9000840D90008790500202D
:101EF0004CD900085CD9000870D9000880B500AF43
:101F000001224FF48041074801F044FE012001F016
:101F1000ADFA00224FF48041024801F03BFE00BFC1
:101F200080BD00BF0004004880B582B000AF002330
:101F3000FB7116E0FB799BB25B0099B241F28833EA
:101F400005220C4802F0E6FA0346BB71BB79002B70
:101F500004D1FB791946084807F0A0FDFB7901334D
:101F6000FB7197F90730002BE4DA00BF00BF083798
:101F7000BD4680BD0403002080D9000880B487B02E
:101F800000AFF860B9601346FB710023FB75FB7965
:101F9000062B49D801A252F823F000BFB91F000850
:101FA000C71F0008D71F0008E71F0008F91F000817
:101FB0000920000819200008FB681A78BB681A700D
:101FC0000123FB7531E0FB681B889AB2BB681A805D
:101FD0000223FB7529E0FB681B681A46BB681A6080
:101FE0000423FB7521E0FB6893F90030DAB2BB688B
:101FF0001A700123FB7518E0FB681B889AB2BB6856
:102000001A800223FB7510E0FB681B681A46BB6848
:102010001A600423FB7508E0FB681B681A46BB685E
:102020001A600423FB7500E000BFFB7D18461C37D7
:10203000BD465DF8047B704780B586B000AFF860A0
:10204000B96011461A460B46FB711346BB71FB681B
:10205000002B08D0BB68002B05D0FB79002B02D0E9
:10206000FB79322B01D9002333E03B6ABA791A702D
:102070003B6ABA795A700123FB750023BB751FE0D8
:10208000BB7D9B00FA6813441868FB7D3A6A1344D1
:10209000591CBB7DBA6813441B781A46FFF76EFFC4
:1020A00003467B75FA7D7B7D1344322B01DD0023D3
:1020B0000FE0FA7D7B7D1344FB75BB7D0133BB755F
:1020C000BA7DFB799A42DBD33B6AFA7D83F83320F1
:1020D000012318461837BD4680BD000084B080B586
:1020E0008AB002AF07F1280C8CE80F000123FB77C0
:1020F00007F12803BB6007F12C03FB6007F15803CD
:102100003B6107F154037B6107F18003BB610E4A19
:102110003B4692E80300186004331970FA7F394691
:1021200007F10800D7F88430009313460522FFF723
:1021300083FF0346BB77BB7F18462037BD46BDE80B
:10214000804004B0704700BFB0D9000884B080B5AB
:102150008EB002AF07F1380C8CE80F00002387F82F
:102160002F3007F13803FB6007F13C033B6107F1B7
:1021700068037B6107F16403BB6107F17403FB61D2
:1021800007F178033B6207F184037B6207F1900358
:10219000BB620F4A3B1D92E8030083E8030097F8F7
:1021A0002F20391D07F10C00D7F894300093134607
:1021B0000822FFF741FF034687F82E3097F82E30AC
:1021C00018463037BD46BDE8804004B0704700BFB8
:1021D000B8D9000880B500AF01224FF4FA61384841
:1021E00000F02CF9034683F00103DBB2002B01D091
:1021F000002362E001224FF4FA61324800F01EF938
:10220000034683F00103DBB2002B01D0002354E02E
:1022100001224FF4FA612C4800F010F9034683F0D4
:102220000103DBB2002B01D0002346E001224FF472
:10223000FA61264800F002F9034683F00103DBB29D
:10224000002B01D0002338E001224FF4FA6120482E
:1022500000F0F4F8034683F00103DBB2002B01D059
:1022600000232AE001224FF4FA611A4800F0E6F850
:10227000034683F00103DBB2002B01D000231CE0F6
:1022800001224FF4FA61144800F0D8F8034683F0B5
:102290000103DBB2002B01D000230EE002224FF439
:1022A000FA610E4800F0CAF8034683F00103DBB27E
:1022B000002B01D0002300E00123184680BD00BFA1
:1022C000C4D90008E8D900080CDA000848DA000888
:1022D00084DA0008C4DA000804DB000810DB000818
:1022E00082B090B58BB000AF07F1380484E80C00E1
:1022F0000346FB710B46BB714B4B3B62FB7907F10D
:1023000010004A4A042107F06DFCBB7907F10C006C
:10231000464A022107F066FC386AFDF731FF0446A1
:1023200007F110031846FDF72BFF03461C4407F185
:102330000C031846FDF724FF0346234497F86B204F
:10234000520013440533FB61FB69184606F026FC76
:102350000346BB61BB69002B01D100235CE0396AF5
:10236000B86907F0A2FC07F110031946B86907F035
:102370008DFCB869FDF704FF03461A46BB69134498
:102380002B491A460B461B88138007F10C0319468C
:10239000B86907F07BFCB869FDF7F2FE03461A4600
:1023A000BB69134422491A460B461B88138000233D
:1023B0007B6213E007F139027B6A13441B7807F153
:1023C00008001C4A032107F00DFC07F10803194619
:1023D000B86907F05BFC7B6A01337B6297F86B306E
:1023E0001A467B6A9342E5DBB869FDF7C9FE0346EE
:1023F0001A46BB691344104A1188927819809A7062
:1024000005224FF4FA61B86900F018F80346FB752D
:10241000B86906F0CBFBFB7D18462C37BD46BDE8FE
:10242000904002B0704700BF30DB00083CDB000882
:1024300040DB000824DB00082CDB000880B586B0F8
:1024400000AFF860B9601346FB71114AFB79137055
:10245000104B00221A70F86807F020FB00F0EEFF26
:10246000786105E00B4B1B78002B01D001230BE0BA
:1024700000F0E4FF02467B69D31ABA689A42F1D8A9
:10248000034B00221A70002318461837BD4680BD42
:1024900078050020A105002080B584B000AF7860E9
:1024A000F6227A497A4800F0DEFD0346FB73FB7B97
:1024B000012B08D17B684FF000021A607B684FF057
:1024C00000025A60DDE0714B1A687B681A606F4B3E
:1024D0005A687B685A607B6893ED007A7B68D3ED1D
:1024E000036A7B68D3ED047A76EEA77AB4EEE77AD6
:1024F000F1EE10FA0DDD7B6893F82030012B08D047
:102500007B68012283F82020624807F04DFB00F031
:1025100031FA7B6893ED007A7B68D3ED026A7B68C1
:10252000D3ED047A76EEE77AB4EEE77AF1EE10FABC
:102530000DD57B6893F82030022B08D07B680222EF
:1025400083F82020544807F02FFB00F013FA7B6833
:1025500093ED007A7B68D3ED026A7B68D3ED047A51
:1025600076EEA77AB4EEE77AF1EE10FA1DDD7B681D
:1025700093ED007A7B68D3ED036A7B68D3ED047A30
:1025800076EEE77AB4EEE77AF1EE10FA0DD57B68D5
:1025900093F82030002B08D07B68002283F820209D
:1025A0003E4807F001FB00F0E5F97B6893ED017A06
:1025B0007B68D3ED066A7B68D3ED077A76EEA77A5F
:1025C000B4EEE77AF1EE10FA0DDD7B6893F8213076
:1025D000012B08D07B68012283F82120304807F0C6
:1025E000E3FA00F0C7F97B6893ED017A7B68D3EDDD
:1025F000056A7B68D3ED077A76EEE77AB4EEE77A80
:10260000F1EE10FA0DD57B6893F82130022B08D03B
:102610007B68022283F82120224807F0C5FA00F0E7
:10262000A9F97B6893ED017A7B68D3ED056A7B6835
:10263000D3ED077A76EEA77AB4EEE77AF1EE10FAE8
:1026400000DC1EE07B6893ED017A7B68D3ED066ABF
:102650007B68D3ED077A76EEE77AB4EEE77AF1EEAF
:1026600010FA00D40DE07B6893F82130002B08D0DD
:102670007B68002283F821200B4807F095FA00F0D0
:1026800079F900BF1037BD4680BD00BF900500201E
:102690000403002044DB00086CDB000894DB000826
:1026A000B0DB0008D8DB0008FCDB000800000000FD
:1026B00080B588B004AF78600023FB814FF0FF3312
:1026C00002930223019307F10E03009301233A22A0
:1026D000D021454801F004FEFB891846FDF7FAFEBB
:1026E0003DA3D3E90023FDF75FFF02460B461046EA
:1026F00019464FF000023D4BFDF756FF02460B46D0
:1027000010461946FEF748FA02467B685A604FF0B9
:10271000FF3302930223019307F10E030093012379
:102720003B22D021304801F0DBFDFB891846FDF744
:10273000D1FE2BA3D3E90023FDF736FF02460B465B
:1027400010461946FEF728FA02467B681A604FF0D9
:10275000FF3302930223019307F10E030093012339
:102760003C22D021204801F0BBFDFB891846FDF733
:10277000B1FE1BA3D3E90023FDF716FF02460B466B
:1027800010461946FEF708FA02467B681A61184897
:1027900007F00AFA7B681B681846FDF7ADFE024693
:1027A0000B46144807F07AF97B685B681846FDF71A
:1027B000A3FE02460B46104807F070F97B681B69C0
:1027C0001846FDF799FE02460B460C4807F066F9DD
:1027D00000BF1037BD4680BD5A98342F4F33293F74
:1027E0004FCAA48636005B3F04030020000010405F
:1027F00054DC000868DC000878DC000888DC00088D
:1028000080B483B000AF78607B68002283F8042135
:102810007B68002283F805217B68002283F806216B
:1028200000BF0C37BD465DF8047B704784B0F0B53F
:1028300083B000AF786007F1240080E80E007B6869
:1028400093F80631052B02D14FF0FF3338E07B6857
:1028500093F8053119467A68342301FB03F31344D6
:1028600007F124049C4604F1300E654626460FCE3F
:1028700028606960AA60EB6010340CF1100C74459C
:10288000F3D163462246106818607B6893F80531DF
:102890005A1C0F4B83FB02135910D317C91A0B464E
:1028A0009B000B44D11ACAB27B6883F805217B6870
:1028B00093F806310133DAB27B6883F806210023EE
:1028C00018460C37BD46BDE8F04004B0704700BF65
:1028D00067666666F0B482B000AF786039607B6886
:1028E00093F80631002B02D14FF0FF333AE07B68BA
:1028F00093F80431184639687A68342300FB03F3EF
:102900001344084603F1300402461946D1F800C0CA
:102910004E688D68C968C2F800C056609560D16085
:1029200010331030A342EFD102461B6813607B685E
:1029300093F804315A1C0E4B83FB02135910D31722
:10294000C91A0B469B000B44D11ACAB27B6883F8A4
:1029500004217B6893F80631013BDAB27B6883F887
:102960000621002318460837BD46F0BC704700BF5B
:1029700067666666B0B5A2B014AF164C3B1D1393E4
:10298000684604F110034C22194606F017F994E842
:102990000F00FFF7A3FB6D4607F110040FCC0FC526
:1029A0000FCC0FC594E8030085E803003B1D0ECB58
:1029B0000948FFF73BFF0346002B03D1074807F008
:1029C000F3F802E0064807F0EFF800BF3837BD46DD
:1029D000B0BD00BF1C0500201006002098DC0008D8
:1029E000ACDC0008B0B5A2B014AF164C3B1D13937D
:1029F000684604F110034C22194606F0DFF894E80B
:102A00000F00FFF7A3FB6D4607F110040FCC0FC5B5
:102A10000FCC0FC594E8030085E803003B1D0ECBE7
:102A20000948FFF703FF0346002B03D1074807F0CF
:102A3000BBF802E0064807F0B7F800BF3837BD46DC
:102A4000B0BD00BF1C05002010060020BCDC000843
:102A5000ACDC000880B582B000AF7860114940203E
:102A6000FEF742FB0346002B14D10E4B1A687B681D
:102A70001A600C4BD3ED007A9FED0B7AF4EEC77A17
:102A8000F1EE10FACCBF01230023DBB21A467B68BB
:102A90001A7102E0054807F001F800BF0837BD468B
:102AA00080BD00BF180700200080BB44D8DC0008B0
:102AB00080B400AF72B600BFFEE780B485B000AF4F
:102AC00078604FF0B043DA6C4FF0B0417B6813434D
:102AD000CB644FF0B043DA6C7B681340FB60FB685B
:102AE00000BF1437BD465DF8047B704780B485B0E5
:102AF00000AF78604FF0B0439A6D4FF0B0417B6803
:102B000013438B654FF0B0439A6D7B681340FB60B5
:102B1000FB6800BF1437BD465DF8047B704780B486
:102B200085B000AF78604FF0B043DA6D4FF0B04140
:102B30007B681343CB654FF0B043DA6D7B6813407D
:102B4000FB60FB6800BF1437BD465DF8047B70472F
:102B500080B485B000AF78604FF0B0431A6E4FF08C
:102B6000B0417B6813430B664FF0B0431A6E7B682D
:102B70001340FB60FB6800BF1437BD465DF8047B63
:102B8000704780B400AF00BFBD465DF8047B70475E
:102B900080B59CB000AF786007F15C0300221A603A
:102BA0005A609A60DA601A6107F10C035022002122
:102BB000184606F011F87B681B68174A934226D125
:102BC0000423FB604FF44033FB6207F10C0318460B
:102BD00003F0C1FC0346002B01D0FFF769FF022080
:102BE000FFF76BFF4FF44073FB6512233B66002336
:102BF0007B660023BB660423FB6607F15C03194672
:102C0000064800F03FFE4FF40010FFF76FFF00BFD3
:102C10007037BD4680BD00BF00540040000400482E
:102C200080B59CB000AF786007F15C0300221A60A9
:102C30005A609A60DA601A6107F10C035022002191
:102C4000184605F0C9FF7B681B68334A93422CD1B4
:102C50000223FB600023BB6207F10C03184603F05C
:102C60007AFC0346002B01D0FFF722FF0120FFF77B
:102C700056FF0420FFF721FF0323FB6502233B6679
:102C800000237B660023BB660823FB6607F15C0319
:102C90001946224800F0F6FD00220021252000F010
:102CA000FAFC252000F011FD31E07B681B681C4A0E
:102CB00093422CD10123FB6000237B6207F10C03BC
:102CC000184603F048FC0346002B01D0FFF7F0FE46
:102CD0004FF48040FFF73CFF0220FFF7EEFEC023D9
:102CE000FB6502233B6600237B660023BB6607234C
:102CF000FB6607F15C0319460A4800F0C3FD002299
:102D00000021242000F0C7FC242000F0DEFC00BFDE
:102D10007037BD4680BD00BF0080004000080048FD
:102D2000003801400004004880B400AFFEE780B4E2
:102D300000AFFEE780B400AFFEE780B400AFFEE76F
:102D400080B400AFFEE780B400AF00BFBD465DF8C1
:102D5000047B704780B400AF00BFBD465DF8047BC4
:102D6000704780B400AF00BFBD465DF8047B70477C
:102D700080B500AF00F04EFB00BF80BD80B500AF56
:102D8000024803F0B9FF00BF80BD00BFEC03002084
:102D900080B500AF024803F0AFFF00BF80BD00BFA9
:102DA0005803002080B500AF4FF40060FEF702FF2B
:102DB0004FF48050FEF7FEFE4FF40040FEF7FAFE9F
:102DC00000BF80BD80B400AF01231846BD465DF84A
:102DD000047B704780B582B000AF7860396005F041
:102DE000B3FE034616221A604FF0FF331846083729
:102DF000BD4680BD80B582B000AF78604FF0FF3136
:102E00007868FFF7E7FFFEE780B586B000AFF860AF
:102E1000B9607A6000237B610AE0AFF3008001466D
:102E2000BB685A1CBA60CAB21A707B6901337B61F5
:102E30007A697B689A42F0DB7B6818461837BD4692
:102E400080BD80B586B000AFF860B9607A600023BD
:102E50007B6109E0BB685A1CBA601B781846FEF714
:102E6000C9F97B6901337B617A697B689A42F1DB3E
:102E70007B6818461837BD4680BD80B483B000AF6C
:102E800078604FF0FF3318460C37BD465DF8047B81
:102E9000704780B483B000AF786039603B684FF40E
:102EA00000525A60002318460C37BD465DF8047B7B
:102EB000704780B483B000AF7860012318460C37A8
:102EC000BD465DF8047B704780B485B000AFF86004
:102ED000B9607A60002318461437BD465DF8047B5C
:102EE0007047000080B586B000AF7860144A154B7B
:102EF000D31A7B617B693B61134B1B68002B02D1AA
:102F0000114B124A1A60104B1A687B6813443A69D5
:102F10009A4207D205F018FE03460C221A604FF0C1
:102F2000FF3309E0084B1B68FB60074B1A687B689E
:102F30001344054A1360FB6818461837BD4680BD28
:102F400000000320000400001C07002038070020B8
:102F500080B400AF244BD3F88830234A43F4700385
:102F6000C2F888304FF0B0431B684FF0B04243F0D6
:102F7000010313604FF0B0434FF4E0229A604FF02A
:102F8000B0431A684FF0B041184B13400B604FF03C
:102F9000B043D3F894304FF0B04223F00503C2F8A9
:102FA00094304FF0B043D3F898304FF0B04223F054
:102FB0000103C2F898304FF0B0430D4ADA604FF089
:102FC000B0430B4A1A614FF0B0431B684FF0B04258
:102FD00023F4802313604FF0B04300229A6100BFB6
:102FE000BD465DF8047B704700ED00E0FBFEF6FA9D
:102FF00000100422D458C4500433C4188C42F9D3AE
:103000007047036004308842FBD370470C48854604
:10301000FFF79EFF0B480C490C4A0023FFF7EDFF1A
:103020000B480C490C4A0023FFF7E7FF0B480C49FB
:103030000023FFF7E8FF05F08DFDFEF7EDF8FEE752
:103040000000032008000020F4010020A4E3000891
:10305000000003200000032090E50008F401002098
:1030600034070020FEE780B586B000AFF860B96095
:103070001346FB7107F11002FB1D1946F86800F0BA
:1030800079F80346002B07D107F11003B9681846F9
:1030900000F0A4F8034600E0012318461837BD46A7
:1030A00080BD000080B586B000AF7860396007F160
:1030B0000C031A461A49786800F05CF80346002BA6
:1030C00029D13B7B1B021AB27B7B1BB213431BB281
:1030D000FB82FB7B1B021AB23B7C1BB213431BB26D
:1030E000BB82BA7BFB8A1146184600F01BF80346E8
:1030F000002B10D07A7CBB8A1146184600F012F8DB
:103100000346002B07D0FB8A1A04BB8A1A433B688C
:103110001A60002300E0012318461837BD4680BD21
:103120001400002080B485B000AF03460A46FB803F
:1031300013467B71FF23FB73FB7BFA88120A92B262
:1031400053400B4AD35CFB73FA7BFB88DBB25340E2
:10315000074AD35CFB73FA7B7B799A420CBF01234D
:103160000023DBB218461437BD465DF8047B704778
:10317000C0DD000880B588B002AFF860B9607A6041
:10318000642000F073F94FF4FA7300930123BA68D6
:103190008821F86800F0A6FD0346FB75FB7D002B37
:1031A00001D0012316E0642000F060F94FF4FA73B7
:1031B000009306237A688821F86800F087FE0346AA
:1031C000FB75FB7D002B01D0012303E0642000F0A0
:1031D0004DF9002318461837BD4680BD80B584B030
:1031E00000AF786039607B681B781B021AB27B687D
:1031F00001331B781BB213431BB2FB817B68033383
:103200001B781B021AB27B6804331B781BB2134372
:103210001BB2BB817B6802331A78FB8911461846C2
:10322000FFF780FF0346002B1ED07B6805331A781A
:10323000BB8911461846FFF775FF0346002B13D0D4
:10324000FB89184600F018F8F0EE407A3B68C3EDB1
:10325000007ABB89184600F04BF8F0EE407A3B68E4
:10326000C3ED017A002300E0012318461037BD4664
:1032700080BD00000000000080B582B000AF0346B2
:10328000FB80FB881846FDF725F914A3D3E900233A
:10329000FDF7B4FA02460B461046194611A3D3E9CE
:1032A0000023FDF781F902460B46104619464FF000
:1032B0000002094BFCF7C0FF02460B4610461946B8
:1032C000FDF76AFC034607EE903AB0EE670A08374E
:1032D000BD4680BDAFF30080008046400000000086
:1032E000E0FFEF400000000000E06540000000004B
:1032F00080B582B000AF0346FB80FB881846FDF71F
:10330000E9F815A3D3E90023FDF778FA02460B4646
:10331000104619464FF000020D4BFDF745F90246E5
:103320000B46104619464FF000020A4BFCF784FF8B
:1033300002460B4610461946FDF72EFC034607EEE3
:10334000903AB0EE670A0837BD4680BDAFF3008003
:1033500000405F400000184000000000E0FFEF4028
:1033600080B582B000AF0023FB710C4B1B680B4A89
:1033700043F480731360032000F082F90F2000F003
:103380000FF80346002B02D00123FB7101E0FFF789
:10339000F8FBFB7918460837BD4680BD0040005851
:1033A00080B584B000AF78600023FB73174B1B78A7
:1033B000002B24D002F03EFE0246144B1B78194627
:1033C0004FF47A73B3FBF1F3B2FBF3F3184600F05A
:1033D0008EF90346002B0FD17B680F2B09D80022F2
:1033E00079684FF0FF3000F056F9094A7B681360A6
:1033F00007E00123FB7304E00123FB7301E00123D9
:10340000FB73FB7B18461037BD4680BD1C000020B7
:103410001800002080B400AF064B1B781A46064BFC
:103420001B681344044A136000BFBD465DF8047B6B
:10343000704700BF1C0000202007002080B400AFB0
:10344000034B1B681846BD465DF8047B704700BF00
:103450002007002080B400AF034B1B681846BD4610
:103460005DF8047B704700BF1800002080B584B071
:1034700000AF7860FFF7E2FFB8607B68FB60FB6835
:10348000B3F1FF3F05D00A4B1B781A46FB68134483
:10349000FB6000BFFFF7D2FF0246BB68D31AFA6891
:1034A0009A42F7D800BF00BF1037BD4680BD00BFAD
:1034B0001C00002080B485B000AF78607B6803F00A
:1034C0000703FB600C4BDB68BB60BA684FF6FF0379
:1034D0001340BB60FB681A02BB68134343F0BF6331
:1034E00043F40033BB60044ABB68D36000BF1437A9
:1034F000BD465DF8047B704700ED00E080B400AF8E
:10350000044BDB681B0A03F007031846BD465DF851
:10351000047B704700ED00E080B483B000AF034649
:10352000FB7197F90730002B0BDBFB7903F01F02CF
:10353000074997F907305B09012000FA02F241F8C8
:10354000232000BF0C37BD465DF8047B704700BFE9
:1035500000E100E080B483B000AF03463960FB7146
:1035600097F90730002B0ADB3B68DAB20C4997F970
:1035700007301201D2B20B4483F800230AE03B6803
:10358000DAB20849FB7903F00F03043B1201D2B20F
:103590000B441A7600BF0C37BD465DF8047B7047BC
:1035A00000E100E000ED00E080B489B000AFF86019
:1035B000B9607A60FB6803F00703FB61FB69C3F144
:1035C0000703042B28BF0423BB61FB690433062BCC
:1035D00002D9FB69033B00E000237B614FF0FF321F
:1035E000BB6902FA03F3DA43BB681A407B699A406D
:1035F0004FF0FF317B6901FA03F3D9437B680B403D
:10360000134318462437BD465DF8047B704700001D
:1036100080B400AFBFF34F8F00BF064BDB6803F4ED
:10362000E0620449044B1343CB60BFF34F8F00BFEC
:1036300000BFFDE700ED00E00400FA0580B582B0B0
:1036400000AF78607B68013BB3F1807F01D3012339
:103650000FE00A4A7B68013B53600F214FF0FF30B7
:10366000FFF778FF054B00229A60044B07221A608F
:10367000002318460837BD4680BD00BF10E000E0BB
:1036800080B582B000AF78607868FFF713FF00BFA5
:103690000837BD4680BD80B586B000AF0346B9602F
:1036A0007A60FB73FFF72AFF78617A68B9687869F6
:1036B000FFF77AFF024697F90F3011461846FFF7D9
:1036C00049FF00BF1837BD4680BD80B582B000AF4E
:1036D0000346FB7197F907301846FFF71DFF00BF3F
:1036E0000837BD4680BD80B500AFFFF791FF80B5BC
:1036F00082B000AF78607868FFF7A0FF03461846F5
:103700000837BD4680BD80B483B000AF78607B6869
:10371000002B01D101234FE07B6893F82530DBB209
:10372000022B08D07B680422DA637B68002283F8CE
:103730002420012340E07B681B681A687B681B68B3
:1037400022F00E021A607B689B6C1A687B689B6C87
:1037500022F480721A607B681B681A687B681B6899
:1037600022F001021A607B685B6C03F01C027B682C
:103770001B6C012101FA02F25A607B68DB6C7A68EB
:10378000126D5A607B685B6D002B0CD07B685B6DA3
:103790001A687B685B6D22F480721A607B689B6D8F
:1037A0007A68D26D5A607B68012283F825207B6895
:1037B000002283F82420002318460C37BD465DF80C
:1037C000047B704780B584B000AF78600023FB7342
:1037D0007B6893F82530DBB2022B05D07B6804228E
:1037E000DA630123FB7347E07B681B681A687B6818
:1037F0001B6822F00E021A607B681B681A687B68DF
:103800001B6822F001021A607B689B6C1A687B6857
:103810009B6C22F480721A607B685B6C03F01C0264
:103820007B681B6C012101FA02F25A607B68DB6C39
:103830007A68126D5A607B685B6D002B0CD07B68D8
:103840005B6D1A687B685B6D22F480721A607B681E
:103850009B6D7A68D26D5A607B68012283F82520BF
:103860007B68002283F824207B689B6B002B03D0AD
:103870007B689B6B78689847FB7B18461037BD4682
:1038800080BD000080B487B000AF7860396000234D
:103890007B614CE13B681A6801217B6901FA03F303
:1038A0001340FB60FB68002B00F03E813B685B68C7
:1038B00003F00303012B05D03B685B6803F00303AF
:1038C000022B30D17B689B683B617B695B000322E4
:1038D00002FA03F3DB433A6913403B613B68DA6861
:1038E0007B695B0002FA03F33A6913433B617B682F
:1038F0003A699A607B685B683B6101227B6902FAE6
:1039000003F3DB433A6913403B613B685B681B0987
:1039100003F001027B6902FA03F33A6913433B6146
:103920007B683A695A603B685B6803F00303032BCA
:1039300017D07B68DB683B617B695B00032202FA7E
:1039400003F3DB433A6913403B613B689A687B6948
:103950005B0002FA03F33A6913433B617B683A69FF
:10396000DA603B685B6803F00303022B23D17B69B9
:10397000DA087B68083253F822303B617B6903F038
:1039800007039B000F2202FA03F3DB433A6913405B
:103990003B613B681A697B6903F007039B0002FAED
:1039A00003F33A6913433B617B69DA087B680832A9
:1039B000396943F822107B681B683B617B695B00B7
:1039C000032202FA03F3DB433A6913403B613B688D
:1039D0005B6803F003027B695B0002FA03F33A6958
:1039E00013433B617B683A691A603B685B6803F488
:1039F0004033002B00F09880544A7B699B080233C7
:103A000052F823303B617B6903F003039B000F22D4
:103A100002FA03F3DB433A6913403B617B68B3F17D
:103A2000904F19D07B684A4A934213D07B68494A29
:103A300093420DD07B68484A934207D07B68474A3F
:103A4000934201D1042308E0072306E0032304E0A6
:103A5000022302E0012300E000237A6902F003025E
:103A6000920093403A6913433B6138497B699B0854
:103A700002333A6941F82320394B1B683B61FB68EC
:103A8000DB433A6913403B613B685B6803F4801396
:103A9000002B03D03A69FB6813433B61304A3B6912
:103AA00013602F4B5B683B61FB68DB433A69134053
:103AB0003B613B685B6803F40013002B03D03A6959
:103AC000FB6813433B61264A3B695360244BD3F8A0
:103AD00080303B61FB68DB433A6913403B613B68E4
:103AE0005B6803F48033002B03D03A69FB6813430F
:103AF0003B611B4A3B69C2F88030194BD3F88430D4
:103B00003B61FB68DB433A6913403B613B685B68A0
:103B100003F40033002B03D03A69FB6813433B6185
:103B20000F4A3B69C2F884307B6901337B613B6893
:103B30001A687B6922FA03F3002B7FF4ABAE00BF57
:103B400000BF1C37BD465DF8047B70470000014094
:103B50000004004800080048000C0048001000481D
:103B60000008005880B485B000AF78600B467B80B9
:103B70007B681A697B881340002B02D00123FB73FA
:103B800001E00023FB73FB7B18461437BD465DF84C
:103B9000047B704780B483B000AF78600B467B80B5
:103BA00013467B707B78002B03D07A887B689A6100
:103BB00002E07A887B689A6200BF0C37BD465DF8E8
:103BC000047B704780B582B000AF78607B68002BC3
:103BD00001D1012381E07B6893F84130DBB2002BF7
:103BE00006D17B68002283F840207868FEF7D0FF7A
:103BF0007B68242283F841207B681B681A687B68F5
:103C00001B6822F001021A607B685A687B681B6897
:103C100022F070621A617B681B689A687B681B6877
:103C200022F400429A607B68DB68012B07D17B6835
:103C30009A687B681B6842F400429A6006E07B68E1
:103C40009A687B681B6842F404429A607B68DB6870
:103C5000022B04D17B681B684FF400625A607B68BA
:103C60001B685B687A68126843F0007343F4004392
:103C700053607B681B68DA687B681B6822F400422B
:103C8000DA607B681A697B685B6942EA03017B68DA
:103C90009B691A027B681B680A43DA607B68D969F2
:103CA0007B681A6A7B681B680A431A607B681B681A
:103CB0001A687B681B6842F001021A607B68002268
:103CC0005A647B68202283F841207B6800221A63B3
:103CD0007B68002283F84220002318460837BD463F
:103CE00080BD000080B588B002AFF8607A601A46E7
:103CF0000B467B8113463B81FB6893F84130DBB276
:103D0000202B40F0DA80FB6893F84030012B01D182
:103D10000223D3E0FB68012283F84020FFF78EFBEB
:103D200078617B690093192301224FF40041F86800
:103D300000F0C4FD0346002B01D00123BEE0FB6868
:103D4000212283F84120FB68102283F84220FB687F
:103D500000225A64FB687A685A62FB683A895A857D
:103D6000FB6800225A63FB685B8D9BB2FF2B0ED968
:103D7000FB68FF221A85FB681B8DDAB27989514BEB
:103D800000934FF08073F86800F0D4FF6CE0FB689C
:103D90005B8D9AB2FB681A85FB681B8DDAB2798954
:103DA000484B00934FF00073F86800F0C3FF5BE0EE
:103DB0007A69396AF86800F0D0FD0346002B01D01B
:103DC00001237BE0FB685B6A1A78FB681B689A62D8
:103DD000FB685B6A5A1CFB685A62FB685B8D9BB28E
:103DE000013B9AB2FB685A85FB681B8D013B9AB276
:103DF000FB681A85FB685B8D9BB2002B34D0FB6897
:103E00001B8D002B30D17B6900933B6A00228021FF
:103E1000F86800F053FD0346002B01D001234DE06C
:103E2000FB685B8D9BB2FF2B0ED9FB68FF221A85C6
:103E3000FB681B8DDAB27989002300934FF0807301
:103E4000F86800F077FF0FE0FB685B8D9AB2FB68C3
:103E50001A85FB681B8DDAB27989002300934FF035
:103E60000073F86800F066FFFB685B8D9BB2002B67
:103E70009ED17A69396AF86800F0B6FD0346002BD6
:103E800001D001231AE0FB681B682022DA61FB687D
:103E90001B685968FB681A680B4B0B405360FB6842
:103EA000202283F84120FB68002283F84220FB682F
:103EB000002283F84020002300E002231846183730
:103EC000BD4680BD0020008000E800FE80B588B0BF
:103ED00002AFF8607A601A460B467B8113463B813D
:103EE000FB6893F84130DBB2202B40F0DB80FB68AD
:103EF00093F84030012B01D10223D4E0FB6801226A
:103F000083F84020FFF79AFA78617B6900931923C0
:103F100001224FF40041F86800F0D0FC0346002B6A
:103F200001D00123BFE0FB68222283F84120FB6817
:103F3000102283F84220FB6800225A64FB687A68EA
:103F40005A62FB683A895A85FB6800225A63FB680B
:103F50005B8D9BB2FF2B0ED9FB68FF221A85FB6895
:103F60001B8DDAB27989524B00934FF08073F86859
:103F700000F0E0FE6DE0FB685B8D9AB2FB681A858D
:103F8000FB681B8DDAB27989494B00934FF00073BF
:103F9000F86800F0CFFE5CE07A69396AF86800F0F2
:103FA00067FD0346002B01D001237CE0FB681B6802
:103FB0005A6AFB685B6AD2B21A70FB685B6A5A1C69
:103FC000FB685A62FB681B8D013B9AB2FB681A853D
:103FD000FB685B8D9BB2013B9AB2FB685A85FB681C
:103FE0005B8D9BB2002B34D0FB681B8D002B30D136
:103FF0007B6900933B6A00228021F86800F05EFC38
:104000000346002B01D001234DE0FB685B8D9BB282
:10401000FF2B0ED9FB68FF221A85FB681B8DDAB2D5
:104020007989002300934FF08073F86800F082FED6
:104030000FE0FB685B8D9AB2FB681A85FB681B8DED
:10404000DAB27989002300934FF00073F86800F02A
:1040500071FEFB685B8D9BB2002B9DD17A69396A3A
:10406000F86800F0C1FC0346002B01D001231AE0E0
:10407000FB681B682022DA61FB681B685968FB68D3
:104080001A680C4B0B405360FB68202283F84120D8
:10409000FB68002283F84220FB68002283F840205E
:1040A000002300E0022318461837BD4680BD00BF3C
:1040B0000024008000E800FE80B588B002AFF86000
:1040C000084611461A4603467B810B463B81134640
:1040D000FB80FB6893F84130DBB2202B40F0F98085
:1040E0003B6A002B02D0BB8C002B05D1FB684FF440
:1040F00000725A640123EDE0FB6893F84030012B15
:1041000001D10223E6E0FB68012283F84020FFF79B
:1041100095F978617B690093192301224FF40041DE
:10412000F86800F0CBFB0346002B01D00123D1E05F
:10413000FB68212283F84120FB68402283F842205B
:10414000FB6800225A64FB683A6A5A62FB68BA8CC0
:104150005A85FB6800225A63F8883A8979897B6915
:104160000193BB6A00930346F86800F0DBFA03464C
:10417000002B05D0FB68002283F840200123A9E032
:10418000FB685B8D9BB2FF2B0ED9FB68FF221A8563
:10419000FB681B8DDAB27989002300934FF080739E
:1041A000F86800F0C7FD0FE0FB685B8D9AB2FB6812
:1041B0001A85FB681B8DDAB27989002300934FF0D2
:1041C0000073F86800F0B6FD7A69B96AF86800F023
:1041D000C4FB0346002B01D001237BE0FB685B6A34
:1041E0001A78FB681B689A62FB685B6A5A1CFB685A
:1041F0005A62FB685B8D9BB2013B9AB2FB685A85A1
:10420000FB681B8D013B9AB2FB681A85FB685B8DCE
:104210009BB2002B34D0FB681B8D002B30D17B6907
:104220000093BB6A00228021F86800F047FB034638
:10423000002B01D001234DE0FB685B8D9BB2FF2B6F
:104240000ED9FB68FF221A85FB681B8DDAB27989CB
:10425000002300934FF08073F86800F06BFD0FE0CF
:10426000FB685B8D9AB2FB681A85FB681B8DDAB21E
:104270007989002300934FF00073F86800F05AFD2D
:10428000FB685B8D9BB2002B9ED17A69B96AF86896
:1042900000F0AAFB0346002B01D001231AE0FB68C3
:1042A0001B682022DA61FB681B685968FB681A6882
:1042B0000A4B0B405360FB68202283F84120FB68C7
:1042C000002283F84220FB68002283F8402000236C
:1042D00000E0022318461837BD4680BD00E800FE06
:1042E00080B588B002AFF860084611461A4603460A
:1042F0007B810B463B811346FB80FB6893F8413082
:10430000DBB2202B40F0FD803B6A002B02D0BB8C3F
:10431000002B05D1FB684FF400725A640123F1E0D1
:10432000FB6893F84030012B01D10223EAE0FB68DF
:10433000012283F84020FFF781F878617B690093C0
:10434000192301224FF40041F86800F0B7FA034640
:10435000002B01D00123D5E0FB68222283F8412005
:10436000FB68402283F84220FB6800225A64FB6805
:104370003A6A5A62FB68BA8C5A85FB6800225A6313
:10438000F8883A8979897B690193BB6A009303466F
:10439000F86800F01BFA0346002B05D0FB680022EA
:1043A00083F840200123ADE0FB685B8D9BB2FF2BBF
:1043B0000ED9FB68FF221A85FB681B8DDAB279895A
:1043C000524B00934FF08073F86800F0B3FC0FE09D
:1043D000FB685B8D9AB2FB681A85FB681B8DDAB2AD
:1043E00079894A4B00934FF00073F86800F0A2FC03
:1043F0007B690093BB6A00220421F86800F05EFA32
:104400000346002B01D001237CE0FB681B685A6A3D
:10441000FB685B6AD2B21A70FB685B6A5A1CFB6865
:104420005A62FB681B8D013B9AB2FB681A85FB68D8
:104430005B8D9BB2013B9AB2FB685A85FB685B8D32
:104440009BB2002B34D0FB681B8D002B30D17B69D5
:104450000093BB6A00228021F86800F02FFA03461F
:10446000002B01D001234DE0FB685B8D9BB2FF2B3D
:104470000ED9FB68FF221A85FB681B8DDAB2798999
:10448000002300934FF08073F86800F053FC0FE0B6
:10449000FB685B8D9AB2FB681A85FB681B8DDAB2EC
:1044A0007989002300934FF00073F86800F042FC14
:1044B000FB685B8D9BB2002B9AD17A69B96AF86868
:1044C00000F092FA0346002B01D001231AE0FB68AA
:1044D0001B682022DA61FB681B685968FB681A6850
:1044E0000B4B0B405360FB68202283F84120FB6894
:1044F000002283F84220FB68002283F8402000233A
:1045000000E0022318461837BD4680BD0024008015
:1045100000E800FE80B58AB002AFF8607A603B60C8
:104520000B467B8100237B61FB6893F84130DBB253
:10453000202B40F0F180FB681B689B6903F400436B
:10454000B3F5004F01D10223E7E0FB6893F8403058
:10455000012B01D10223E0E0FB68012283F8402017
:10456000FB68242283F84120FB6800225A64FB6820
:10457000DB68012B07D17B89C3F3090343F0007388
:1045800043F4005304E07B89C3F3090343F420534D
:10459000FA6812685360FEF751FFB861FB681B6848
:1045A0009B6903F02003202B0CBF01230023DBB207
:1045B000FB77FB681B689B6903F01003102B0CBF93
:1045C00001230023DBB2BB7734E03B68B3F1FF3F4C
:1045D0001AD0FEF733FF0246BB69D31A3A689A42F3
:1045E00002D33B68002B0FD1FB68202283F84120C7
:1045F000FB685B6C43F02002FB685A64FB68002296
:1046000083F84020012388E0FB681B689B6903F066
:104610002003202B0CBF01230023DBB2FB77FB68B8
:104620001B689B6903F01003102B0CBF01230023B0
:10463000DBB2BB77FB7F002B02D1BB7F002BC4D04A
:10464000FB681B689B6903F01003102B1AD0BB6931
:1046500000933B6800222021F86800F02FF9034600
:10466000002B01D0012358E0FB681B682022DA618F
:10467000FB68202283F84120FB68002283F8402059
:1046800000234AE0BB6900933B6800222021F868C0
:1046900000F014F90346002B01D001233DE0FB6834
:1046A0001B681022DA61FB681B682022DA617B69D3
:1046B0007A689A4218D1FB681B685A68FB681B68C5
:1046C00042F480425A60BB6900933B68002220217B
:1046D000F86800F0F3F80346002B01D001231CE03A
:1046E000FB681B682022DA617B6901337B617B698F
:1046F0007A689A423FF63BAFFB68202283F841205C
:10470000FB685B6C43F02002FB685A64FB68002284
:1047100083F84020012300E0022318462037BD46DD
:1047200080BD000080B586B002AFF8600846114633
:104730001A4603467B810B463B811346FB80FB8870
:10474000DAB27989204B00934FF08073F86800F05B
:10475000F1FAFA69B969F86800F0FFF80346002B2E
:1047600001D001232CE0FB88012B05D13B89DAB273
:10477000FB681B689A6215E03B891B0A9BB2DAB2A0
:10478000FB681B689A62FA69B969F86800F0E5F895
:104790000346002B01D0012312E03B89DAB2FB680B
:1047A0001B689A62FB690093BB6900228021F8684C
:1047B00000F084F80346002B01D0012300E0002321
:1047C00018461037BD4680BD0020008080B586B0F9
:1047D00002AFF860084611461A4603467B810B4635
:1047E0003B811346FB80FB88DAB27989204B00932A
:1047F0000023F86800F09EFAFA69B969F86800F0D9
:10480000ACF80346002B01D001232CE0FB88012BE0
:1048100005D13B89DAB2FB681B689A6215E03B89D7
:104820001B0A9BB2DAB2FB681B689A62FA69B96923
:10483000F86800F092F80346002B01D0012312E043
:104840003B89DAB2FB681B689A62FB690093BB691B
:1048500000224021F86800F031F80346002B01D017
:10486000012300E0002318461037BD4680BD00BF7D
:104870000020008080B483B000AF78607B681B6844
:104880009B6903F00203022B03D17B681B680022A3
:104890009A627B681B689B6903F00103012B07D0B8
:1048A0007B681B689A697B681B6842F001029A6109
:1048B00000BF0C37BD465DF8047B704780B584B0FF
:1048C00000AFF860B9603B601346FB7131E03B68B4
:1048D000B3F1FF3F2DD0FEF7B1FD0246BB69D31AFD
:1048E0003A689A4202D33B68002B22D1FB681B68CE
:1048F0009A69BB681340BA689A420CBF012300232F
:10490000DBB21A46FB799A4213D1FB685B6C43F029
:104910002002FB685A64FB68202283F84120FB6870
:10492000002283F84220FB68002283F84020012304
:104930000FE0FB681B689A69BB681340BA689A422B
:104940000CBF01230023DBB21A46FB799A42BED08A
:10495000002318461037BD4680BD80B584B000AF37
:10496000F860B9607A6033E07A68B968F86800F096
:1049700001F90346002B01D0012331E0BB68B3F1FC
:10498000FF3F25D0FEF75AFD02467B68D31ABA686E
:104990009A4202D3BB68002B1AD1FB681B689B6943
:1049A00003F00203022B13D0FB685B6C43F0200280
:1049B000FB685A64FB68202283F84120FB680022D0
:1049C00083F84220FB68002283F84020012307E09F
:1049D000FB681B689B6903F00203022BC4D1002310
:1049E00018461037BD4680BD80B584B000AFF86072
:1049F000B9607A602FE07A68B968F86800F0BAF8B0
:104A00000346002B01D001232DE0FEF717FD0246DF
:104A10007B68D31ABA689A4202D3BB68002B1AD1BA
:104A2000FB681B689B6903F02003202B13D0FB68F5
:104A30005B6C43F02002FB685A64FB68202283F819
:104A40004120FB68002283F84220FB68002283F8A3
:104A50004020012307E0FB681B689B6903F02003EB
:104A6000202BC8D1002318461037BD4680BD00005A
:104A700080B584B000AFF860B9607A606BE07A68A6
:104A8000B968F86800F076F80346002B01D00123DE
:104A900069E0FB681B689B6903F02003202B38D179
:104AA000FB681B689B6903F00403042B05D1FB68BA
:104AB0001B8D002B01D0002355E0FB681B689B6910
:104AC00003F01003102B07D1FB681B681022DA617A
:104AD000FB6804225A6402E0FB6800225A64FB6807
:104AE0001B682022DA61FB681B685968FB681A683A
:104AF0001F4B0B405360FB68202283F84120FB686A
:104B0000002283F84220FB68002283F84020012322
:104B100029E0FEF793FC02467B68D31ABA689A42F2
:104B200002D3BB68002B16D1FB681B689B6903F09E
:104B30000403042B0FD0FB685B6C43F02002FB687E
:104B40005A64FB68202283F84120FB68002283F826
:104B50004020012307E0FB681B689B6903F0040306
:104B6000042B8CD1002318461037BD4680BD00BFF2
:104B700000E800FE80B58AB000AFF860B9607A60E6
:104B8000002387F82730FB681B689B69BB61002303
:104B90003B627B68FB61BB6903F01003002B68D0AC
:104BA000FB681B681022DA6149E0BB68B3F1FF3F84
:104BB00045D0FEF743FC0246FB69D31ABA689A4215
:104BC00002D3BB68002B3AD1FB681B685B6803F417
:104BD00080437B61FB6893F84230FB74FB681B6881
:104BE0009B6903F40043B3F5004F21D17B69B3F512
:104BF000804F1DD0FB7C202B1AD0FB681B685A68A5
:104C0000FB681B6842F480425A60FEF717FCF861AB
:104C10000EE0FEF713FC0246FB69D31A192B07D9E5
:104C20003B6A43F020033B62012387F8273006E00C
:104C3000FB681B689B6903F02003202BE9D1FB680C
:104C40001B689B6903F02003202B03D097F82730C3
:104C5000002BAAD097F82730002B03D1FB681B68E4
:104C60002022DA613B6A43F004033B62012387F8A8
:104C70002730FB681B689B69BB61BB6903F48073C9
:104C8000002B0BD03B6A43F001033B62FB681B68BF
:104C90004FF48072DA61012387F82730BB6903F48F
:104CA0008063002B0BD03B6A43F008033B62FB6838
:104CB0001B684FF48062DA61012387F82730BB69F3
:104CC00003F40073002B0BD03B6A43F002033B62FA
:104CD000FB681B684FF40072DA61012387F8273004
:104CE00097F82730002B1CD0F868FFF7C3FDFB684E
:104CF0001B685968FB681A680D4B0B405360FB68D2
:104D00005A6C3B6A1A43FB685A64FB68202283F89A
:104D10004120FB68002283F84220FB68002283F8D0
:104D2000402097F8273018462837BD4680BD00BF81
:104D300000E800FE80B487B000AFF8607B600B46EF
:104D40007B8113467B727B89C3F309027B7A1B0448
:104D500003F47F031A437B681A433B6A134323F02F
:104D600000437B61FB681B685A683B6A5B0D03F478
:104D70008061084B0B43DB4302EA0301FB681B68BD
:104D80007A690A435A6000BF1C37BD465DF8047B50
:104D9000704700BFFF63FF0380B483B000AF78604B
:104DA00039607B6893F84130DBB2202B38D17B68C7
:104DB00093F84030012B01D1022332E07B680122BD
:104DC00083F840207B68242283F841207B681B689D
:104DD0001A687B681B6822F001021A607B681B68F6
:104DE0001A687B681B6822F480521A607B681B6813
:104DF00019687B681B683A680A431A607B681B68FD
:104E00001A687B681B6842F001021A607B682022E6
:104E100083F841207B68002283F84020002300E0D3
:104E2000022318460C37BD465DF8047B704780B4FA
:104E300085B000AF786039607B6893F84130DBB2B1
:104E4000202B39D17B6893F84030012B01D102230C
:104E500033E07B68012283F840207B68242283F8BA
:104E600041207B681B681A687B681B6822F001027E
:104E70001A607B681B681B68FB60FB6823F4706327
:104E8000FB603B681B02FA681343FB607B681B688E
:104E9000FA681A607B681B681A687B681B6842F0B6
:104EA00001021A607B68202283F841207B6800227F
:104EB00083F84020002300E0022318461437BD4643
:104EC0005DF8047B7047000080B400AF054B1B68A1
:104ED000044A43F48073136000BFBD465DF8047B51
:104EE000704700BF0004005880B400AF044B1B683B
:104EF00003F4C0631846BD465DF8047B704700BFED
:104F00000004005880B400AF4FF0B0431B6803F4B6
:104F10008013B3F5801F01D1012300E00023184660
:104F2000BD465DF8047B704780B400AF4FF0B043DE
:104F30001B684FF0B04243F48033136000BFBD469E
:104F40005DF8047B704780B400AF4FF0B0431B683E
:104F50004FF0B04223F48033136000BFBD465DF8CC
:104F6000047B704780B400AF4FF0B0431B6803F47C
:104F70000033B3F5003F01D1012300E000231846C0
:104F8000BD465DF8047B704780B400AF4FF0B0437E
:104F90001B684FF0B04243F48073136000BFBD46FE
:104FA0005DF8047B704780B400AF4FF0B0431B68DE
:104FB0004FF0B04223F48073136000BFBD465DF82C
:104FC000047B704780B400AF4FF0B0431B6803F41C
:104FD0008063B3F5806F01D1012300E00023184600
:104FE000BD465DF8047B704780B483B000AF786045
:104FF0004FF0B0435B6823F0FE427B681B064FF026
:10500000B04113434B6000BF0C37BD465DF8047BD5
:10501000704780B400AF4FF0B043D3F898304FF0F2
:10502000B04243F00103C2F8983000BFBD465DF8BE
:10503000047B704780B400AF4FF0B043D3F8983092
:105040004FF0B04223F00103C2F8983000BFBD46D4
:105050005DF8047B704780B400AF4FF0B043D3F8E5
:10506000983003F00203022B01D1012300E000235A
:105070001846BD465DF8047B704780B400AF4FF022
:10508000B043D3F890304FF0B04243F00103C2F880
:10509000903000BFBD465DF8047B704780B400AF20
:1050A0004FF0B043D3F890304FF0B04223F00103FB
:1050B000C2F8903000BFBD465DF8047B704780B4F5
:1050C00000AF4FF0B043D3F890304FF0B04243F010
:1050D0000403C2F8903000BFBD465DF8047B704702
:1050E00080B400AF4FF0B043D3F890304FF0B042EF
:1050F00023F00403C2F8903000BFBD465DF8047B86
:10510000704780B400AF4FF0B043D3F8903003F055
:105110000203022B01D1012300E000231846BD4603
:105120005DF8047B704780B400AF4FF0B043D3F814
:1051300094304FF0B04243F00103C2F8943000BF06
:10514000BD465DF8047B704780B400AF4FF0B043BC
:10515000D3F894304FF0B04223F00103C2F89430FA
:1051600000BFBD465DF8047B704780B400AF4FF0D0
:10517000B043D3F8943003F00203022B01D1012392
:1051800000E000231846BD465DF8047B704780B4FC
:1051900000AF4FF0B043D3F894304FF0B04243F03B
:1051A0000403C2F8943000BFBD465DF8047B70472D
:1051B00080B400AF4FF0B043D3F894304FF0B0421A
:1051C00023F00403C2F8943000BFBD465DF8047BB1
:1051D000704780B400AF4FF0B043D3F8943003F081
:1051E0000803082B01D1012300E000231846BD4627
:1051F0005DF8047B704780B483B000AF78604FF0F7
:10520000B043D3F8943023F470627B681B024FF0F4
:10521000B0411343C1F8943000BF0C37BD465DF870
:10522000047B704780B400AF4FF0B0431B684FF071
:10523000B04243F00103136000BFBD465DF8047B3C
:10524000704780B400AF4FF0B0431B684FF0B042DE
:1052500023F00103136000BFBD465DF8047B704777
:1052600080B400AF4FF0B0431B6803F00203022B81
:1052700001D1012300E000231846BD465DF8047B00
:10528000704780B483B000AF78604FF0B0431B68C4
:1052900023F0F0024FF0B0417B6813430B6000BF76
:1052A0000C37BD465DF8047B704780B483B000AF17
:1052B0004FF0B0431B6803F0F0037B607B68B02BBA
:1052C00001D9B0237B607B6818460C37BD465DF87A
:1052D000047B704780B483B000AF78604FF0B04378
:1052E0005B6823F47F427B681B024FF0B04113439D
:1052F0004B6000BF0C37BD465DF8047B704780B43F
:1053000083B000AF78604FF0B0439B6823F0030296
:105310004FF0B0417B6813438B6000BF0C37BD4634
:105320005DF8047B704780B400AF4FF0B0439B68DA
:1053300003F00C031846BD465DF8047B704780B44B
:1053400083B000AF78604FF0B0439B6823F0F00269
:105350004FF0B0417B6813438B6000BF0C37BD46F4
:105360005DF8047B704780B483B000AF78604FF085
:10537000B043D3F8083123F0F0024FF0B0417B681E
:105380001343C1F8083100BF0C37BD465DF8047BFC
:10539000704780B483B000AF78604FF0B043D3F86B
:1053A000083123F00F027B681B094FF0B041134313
:1053B000C1F8083100BF0C37BD465DF8047B70476B
:1053C00080B483B000AF78604FF0B0439B6823F4A3
:1053D000E0624FF0B0417B6813438B6000BF0C3735
:1053E000BD465DF8047B704780B483B000AF786041
:1053F0004FF0B0439B6823F460524FF0B0417B689C
:1054000013438B6000BF0C37BD465DF8047B7047CB
:1054100080B400AF4FF0B0439B6803F0F003184630
:10542000BD465DF8047B704780B400AF4FF0B043D9
:10543000D3F808311B0103F0F0031846BD465DF8B0
:10544000047B704780B400AF4FF0B0439B6803F417
:10545000E0631846BD465DF8047B704780B400AF3A
:105460004FF0B0439B6803F460531846BD465DF8A7
:10547000047B704780B400AF4FF0B0431B684FF01F
:10548000B04243F08073136000BFBD465DF8047BFB
:10549000704780B400AF4FF0B0431B684FF0B0428C
:1054A00023F08073136000BFBD465DF8047B704736
:1054B00080B400AF4FF0B0431B6803F00073B3F14A
:1054C000007F01D1012300E000231846BD465DF8AE
:1054D000047B704780B400AF4FF0B043DB681B0A19
:1054E00003F07F031846BD465DF8047B704780B427
:1054F00000AF4FF0B043DB6803F060431846BD4691
:105500005DF8047B704780B400AF4FF0B043DB68B8
:1055100003F070031846BD465DF8047B704780B405
:1055200000AF4FF0B043DB6803F003031846BD46FD
:105530005DF8047B704780B400AF4FF0B0439B68C8
:1055400003F48033B3F5803F01D1012300E0002351
:105550001846BD465DF8047B704780B400AF4FF03D
:10556000B043D3F8083103F40033B3F5003F01D161
:10557000012300E000231846BD465DF8047B704718
:1055800080B400AF4FF0B043D3F8083103F4803358
:10559000B3F5803F01D1012300E000231846BD464A
:1055A0005DF8047B704780B400AF4FF0B0439B6858
:1055B00003F40033B3F5003F01D1012300E00023E1
:1055C0001846BD465DF8047B704780B400AF4FF0CD
:1055D000B0439B6803F48023B3F5802F01D10123EE
:1055E00000E000231846BD465DF8047B70470000CC
:1055F00090B58DB000AF78607B68002B01D101239E
:1056000063E37B681B6803F02003002B00F08D80B0
:10561000FFF789FEF862FFF782FFB862FB6A002B92
:1056200005D0FB6A0C2B47D1BB6A012B44D17B68A8
:10563000DB69002B01D1012347E37B685C6AFFF73C
:1056400034FE03469C4214D97B685B6A184600F01E
:1056500031FD0346002B01D0012336E37B685B6AF2
:105660001846FFF70EFE7B681B6A1846FFF732FEEE
:1056700013E07B685B6A1846FFF703FE7B681B6AD2
:105680001846FFF727FE7B685B6A184600F012FD9C
:105690000346002B01D0012317E300F0CBFC0346A7
:1056A000A44A1360A44B1B681846FDF779FE034615
:1056B000002B39D0012308E37B68DB69002B1ED067
:1056C000FFF7B0FDFDF7BAFE786208E0FDF7B6FE21
:1056D00002467B6AD31A022B01D90323F5E2FFF7B6
:1056E000BFFD0346002BF1D07B685B6A1846FFF7CD
:1056F000C8FD7B681B6A1846FFF7ECFD15E0FFF755
:10570000A0FDFDF79BFE786208E0FDF797FE0246DC
:105710007B6AD31A022B01D90323D6E2FFF7A0FD3F
:105720000346002BF1D100E000BF7B681B6803F04B
:105730000103002B47D0FFF7F6FD3862FFF7EFFEBD
:10574000F8613B6A082B05D03B6A0C2B08D1FB693A
:10575000032B05D17B685B68002B34D10123B4E2B5
:105760007B685B68B3F5803F02D1FFF7DDFB01E0AA
:10577000FFF7E9FB7B685B68002B12D0FDF75EFE4C
:10578000786208E0FDF75AFE02467B6AD31A642B62
:1057900001D9032399E2FFF7E5FB0346002BF1D083
:1057A00011E0FDF74BFE786208E0FDF747FE024688
:1057B0007B6AD31A642B01D9032386E2FFF7D2FB5D
:1057C0000346002BF1D17B681B6803F00203002B1A
:1057D0004CD0FFF7A8FDB861FFF7A1FE7861BB6967
:1057E000042B05D0BB690C2B0ED17B69022B0BD18E
:1057F0007B68DB68002B01D1012366E27B681B69B3
:105800001846FFF7F1FB31E07B68DB68002B19D00D
:10581000FFF7BAFBFDF712FE786208E0FDF70EFE17
:1058200002467B6AD31A022B01D903234DE2FFF70C
:10583000C9FB0346002BF1D07B681B691846FFF7B4
:10584000D3FB13E0FFF7AFFBFDF7F8FD786208E04C
:10585000FDF7F4FD02467B6AD31A022B01D903231C
:1058600033E2FFF7AFFB0346002BF1D17B681B68E7
:1058700003F00803002B06D17B681B6803F01003BC
:10588000002B00F0A3807B685B69002B76D07B68DF
:105890001B6803F01003002B46D0FFF766FC03469D
:1058A000002B13D1FFF73FFCFDF7C8FD786208E03D
:1058B000FDF7C4FD02467B6AD31A022B01D90323EC
:1058C00003E2FFF752FC0346002BF1D0FFF75FFC29
:1058D000FDF7B4FD786208E0FDF7B0FD02467B6A93
:1058E000D31A032B01D90323EFE1FFF772FC034620
:1058F000002BF1D07B689B691846FFF77CFCFFF713
:1059000023FCFDF79BFD786208E0FDF797FD02465A
:105910007B6AD31A022B01D90323D6E1FFF725FCBA
:105920000346002BF1D151E0FFF7FDFBFDF786FDAB
:1059300078620CE01000002018000020FDF77EFDCA
:1059400002467B6AD31A022B01D90323BDE1FFF77C
:105950000CFC0346002BF1D0FFF72AFC08E0FDF712
:105960006DFD02467B6AD31A032B01D90323ACE1F8
:10597000FFF72FFC0346002BF1D127E0FFF718FCBF
:10598000FDF75CFD786208E0FDF758FD02467B6A92
:10599000D31A032B01D9032397E1FFF71AFC03461F
:1059A000002BF1D1FFF7D0FBFDF748FD786208E04E
:1059B000FDF744FD02467B6AD31A022B01D903236B
:1059C00083E1FFF7D2FB0346002BF1D17B681B6814
:1059D00003F00403002B5BD0A74B1B6803F4807318
:1059E000002B14D1FFF770FAFDF728FD786208E06C
:1059F000FDF724FD02467B6AD31A022B01D903234B
:105A000063E19D4B1B6803F48073002BF0D07B682F
:105A10009B68012B02D1FFF730FB0CE07B689B6891
:105A2000052B04D1FFF74BFBFFF727FB03E0FFF744
:105A300035FBFFF755FB7B689B68002B14D0FDF707
:105A4000FDFC78620AE0FDF7F9FC02467B6AD31A96
:105A500041F28832934201D9032336E1FFF751FB2B
:105A60000346002BEFD013E0FDF7E8FC78620AE074
:105A7000FDF7E4FC02467B6AD31A41F28832934276
:105A800001D9032321E1FFF73CFB0346002BEFD1B3
:105A90007B681B6803F04003002B2CD07B689B6A5B
:105AA000002B14D0FFF7B5FAFDF7C8FC786208E0C8
:105AB000FDF7C4FC02467B6AD31A022B01D90323EB
:105AC00003E1FFF7C8FA0346002BF1D013E0FFF71C
:105AD000B1FAFDF7B3FC786208E0FDF7AFFC0246CF
