:020000040800F2
:1000000000000320612500087D22000883220008EB
:10001000892200088F2200089522000800000000B5
:100020000000000000000000000000009B2200080B
:10003000A922000800000000B7220008C52200081D
:10004000B9250008B9250008B9250008B925000818
:10005000B9250008B9250008B9250008B925000808
:10006000B9250008B9250008B9250008B9250008F8
:10007000B9250008B9250008B9250008B9250008E8
:10008000B9250008B9250008B9250008B9250008D8
:10009000B9250008B9250008B9250008B9250008C8
:1000A000B9250008B9250008B9250008B9250008B8
:1000B000B9250008B9250008B9250008B9250008A8
:1000C000B9250008B9250008B9250008B925000898
:1000D000D1220008E5220008B9250008B92500084A
:1000E000F9220008B9250008B9250008B92500083B
:1000F000B9250008B9250008B9250008B925000868
:10010000B9250008B9250008B9250008B925000857
:10011000B9250008B9250008B9250008B925000847
:10012000B9250008B9250008B9250008B925000837
:0C013000B9250008B9250008B925000811
:1001400010B5054C237833B9044B13B10448AFF311
:1001500000800123237010BDF40100200000000086
:10016000ACC6000808B5034B1BB103490348AFF305
:10017000008008BD00000000F8010020ACC60008A7
:10018000034613F8012B002AFBD1181A01387047D7
:1001900001F0FF01102A2BDB10F0070F08D010F838
:1001A000013B013A8B422DD010F0070F42B3F6D13C
:1001B000F0B441EA012141EA014122F007047FF055
:1001C00000070023F0E80256083C85EA010586EAAC
:1001D000010685FA47F5A3FA87F586FA47F6A5FAE8
:1001E00087F68EB9EED1F0BC01F0FF0102F00702F4
:1001F00032B110F8013B013A83EA010313B1F8D19F
:100200000020704701387047002D06BF354603387F
:10021000073815F0010F07D1013015F4807F02BFB8
:10022000013015F4C03F0130F0BC0138704700BF09
:1002300081F0004102E000BF83F0004330B54FEA97
:1002400041044FEA430594EA050F08BF90EA020F04
:100250001FBF54EA000C55EA020C7FEA645C7FEA97
:10026000655C00F0E2804FEA5454D4EB5555B8BFBA
:100270006D420CDD2C4480EA020281EA030382EA2B
:10028000000083EA010180EA020281EA0303362DBD
:1002900088BF30BD11F0004F4FEA01314FF4801C90
:1002A0004CEA113102D0404261EB410113F0004FA2
:1002B0004FEA03334CEA133302D0524263EB430359
:1002C00094EA050F00F0A780A4F10104D5F1200EF7
:1002D0000DDB02FA0EFC22FA05F2801841F1000152
:1002E00003FA0EF2801843FA05F359410EE0A5F126
:1002F00020050EF1200E012A03FA0EFC28BF4CF057
:10030000020C43FA05F3C01851EBE37101F000450C
:1003100007D54FF0000EDCF1000C7EEB00006EEB19
:100320000101B1F5801F1BD3B1F5001F0CD34908A3
:100330005FEA30004FEA3C0C04F101044FEA4452FA
:1003400012F5800F80F09A80BCF1004F08BF5FEA81
:10035000500C50F1000041EB045141EA050130BD61
:100360005FEA4C0C404141EB0101013C28BFB1F573
:10037000801FE9D291F0000F04BF01460020B1FABE
:1003800081F308BF2033A3F10B03B3F120020CDA91
:100390000C3208DD02F1140CC2F10C0201FA0CF06F
:1003A00021FA02F10CE002F11402D8BFC2F1200CD4
:1003B00001FA02F120FA0CFCDCBF41EA0C0190408A
:1003C000E41AA2BF01EB0451294330BD6FEA0404D3
:1003D0001F3C1CDA0C340EDC04F11404C4F12002BE
:1003E00020FA04F001FA02F340EA030021FA04F3D0
:1003F00045EA030130BDC4F10C04C4F1200220FA27
:1004000002F001FA04F340EA0300294630BD21FA64
:1004100004F0294630BD94F0000F83F4801306BF2A
:1004200081F480110134013D4EE77FEA645C18BF1E
:100430007FEA655C29D094EA050F08BF90EA020FB5
:1004400005D054EA000C04BF1946104630BD91EAAD
:10045000030F1EBF0021002030BD5FEA545C05D1B0
:100460004000494128BF41F0004130BD14F58004EF
:100470003CBF01F5801130BD01F0004545F0FE4163
:1004800041F470014FF0000030BD7FEA645C1ABF98
:10049000194610467FEA655C1CBF0B46024650EACF
:1004A000013406BF52EA033591EA030F41F40021FB
:1004B00030BD00BF90F0000F04BF0021704730B581
:1004C0004FF4806404F132044FF000054FF0000156
:1004D00050E700BF90F0000F04BF0021704730B517
:1004E0004FF4806404F1320410F0004548BF4042EC
:1004F0004FF000013EE700BF42004FEAE2014FEA41
:1005000031014FEA02701FBF12F07F4393F07F4F1B
:1005100081F06051704732F07F4208BF704793F01E
:100520007F4F04BF41F40021704730B54FF4607431
:1005300001F0004521F000411CE700BF50EA010234
:1005400008BF704730B54FF000050AE050EA0102DD
:1005500008BF704730B511F0004502D5404261EB4D
:1005600041014FF4806404F132045FEA915C3FF48E
:10057000D8AE4FF003025FEADC0C18BF03325FEA2B
:10058000DC0C18BF033202EBDC02C2F1200300FADC
:1005900003FC20FA02F001FA03FE40EA0E0021FA01
:1005A00002F11444BDE600BF70B54FF0FF0C4CF4EF
:1005B000E06C1CEA11541DBF1CEA135594EA0C0FA1
:1005C00095EA0C0F00F0DEF82C4481EA030621EADC
:1005D0004C5123EA4C5350EA013518BF52EA033517
:1005E00041F4801143F4801338D0A0FB02CE4FF0C9
:1005F0000005E1FB02E506F00042E0FB03E54FF0F9
:100600000006E1FB03569CF0000F18BF4EF0010EF0
:10061000A4F1FF04B6F5007F64F5407404D25FEAEC
:100620004E0E6D4146EB060642EAC62141EA55519F
:100630004FEAC52040EA5E504FEACE2EB4F1FD0CE1
:1006400088BFBCF5E06F1ED8BEF1004F08BF5FEA5F
:10065000500E50F1000041EB045170BD06F0004611
:1006600046EA010140EA020081EA0301B4EB5C04BE
:10067000C2BFD4EB0C0541EA045170BD41F48011B6
:100680004FF0000E013C00F3AB8014F1360FDEBFDB
:10069000002001F0004170BDC4F10004203C35DAB7
:1006A0000C341BDC04F11404C4F1200500FA05F33A
:1006B00020FA04F001FA05F240EA020001F00042DB
:1006C00021F0004110EBD37021FA04F642EB060151
:1006D0005EEA430E08BF20EAD37070BDC4F10C047B
:1006E000C4F1200500FA04F320FA05F001FA04F23F
:1006F00040EA020001F0004110EBD37041F100012B
:100700005EEA430E08BF20EAD37070BDC4F1200535
:1007100000FA05F24EEA020E20FA04F301FA05F29D
:1007200043EA020321FA04F001F0004121FA04F245
:1007300020EA020000EBD3705EEA430E08BF20EA15
:10074000D37070BD94F0000F0FD101F0004640004F
:1007500041EB010111F4801F08BF013CF7D041EAD1
:10076000060195F0000F18BF704703F000465200D5
:1007700043EB030313F4801F08BF013DF7D043EAA6
:100780000603704794EA0C0F0CEA135518BF95EA5C
:100790000C0F0CD050EA410618BF52EA4306D1D1E3
:1007A00081EA030101F000414FF0000070BD50EA02
:1007B000410606BF1046194652EA430619D094EA8C
:1007C0000C0F02D150EA013613D195EA0C0F05D176
:1007D00052EA03361CBF104619460AD181EA0301CA
:1007E00001F0004141F0FE4141F470014FF0000082
:1007F00070BD41F0FE4141F4780170BD70B54FF01D
:10080000FF0C4CF4E06C1CEA11541DBF1CEA13559C
:1008100094EA0C0F95EA0C0F00F0A7F8A4EB05047E
:1008200081EA030E52EA03354FEA013100F0888075
:100830004FEA03334FF0805545EA131343EA12633E
:100840004FEA022245EA111545EA10654FEA0026F3
:100850000EF000419D4208BF964244F1FD0404F5AC
:10086000407402D25B084FEA3202B61A65EB030508
:100870005B084FEA32024FF480104FF4002CB6EBC5
:10088000020E75EB030E22BFB61A754640EA0C0045
:100890005B084FEA3202B6EB020E75EB030E22BF85
:1008A000B61A754640EA5C005B084FEA3202B6EBC6
:1008B000020E75EB030E22BFB61A754640EA9C0085
:1008C0005B084FEA3202B6EB020E75EB030E22BF55
:1008D000B61A754640EADC0055EA060E18D04FEA13
:1008E000051545EA16754FEA06164FEAC30343EAB3
:1008F00052734FEAC2025FEA1C1CC0D111F4801F80
:100900000BD141EA00014FF000004FF0004CB6E778
:1009100011F4801F04BF01430020B4F1FD0C88BF17
:10092000BCF5E06F3FF6AFAEB5EB030C04BFB6EB22
:10093000020C5FEA500C50F1000041EB045170BD15
:100940000EF0004E4EEA113114EB5C04C2BFD4EB42
:100950000C0541EA045170BD41F480114FF0000EC6
:10096000013C90E645EA060E8DE60CEA135594EA42
:100970000C0F08BF95EA0C0F3FF43BAF94EA0C0F45
:100980000AD150EA01347FF434AF95EA0C0F7FF4BA
:1009900025AF104619462CE795EA0C0F06D152EA0E
:1009A00003353FF4FDAE1046194622E750EA4106F2
:1009B00018BF52EA43067FF4C5AE50EA41047FF403
:1009C0000DAF52EA43057FF4EBAE12E74FF0FF3C68
:1009D00006E000BF4FF0010C02E000BF4FF0010C39
:1009E0004DF804CD4FEA410C7FEA6C5C4FEA430CB2
:1009F00018BF7FEA6C5C1BD001B050EA410C0CBF01
:100A000052EA430C91EA030F02BF90EA020F002062
:100A1000704710F1000F91EA030F58BF994208BFC9
:100A200090422CBFD8176FEAE37040F00100704786
:100A30004FEA410C7FEA6C5C02D150EA013C07D1DD
:100A40004FEA430C7FEA6C5CD6D152EA033CD3D028
:100A50005DF8040B704700BF8446104662468C4622
:100A60001946634600E000BF01B5FFF7B7FF002855
:100A700048BF10F1000F01BD4DF808EDFFF7F4FF7E
:100A80000CBF012000205DF808FB00BF4DF808ED09
:100A9000FFF7EAFF34BF012000205DF808FB00BF2C
:100AA0004DF808EDFFF7E0FF94BF012000205DF84E
:100AB00008FB00BF4DF808EDFFF7CEFF94BF012003
:100AC00000205DF808FB00BF4DF808EDFFF7C4FFFC
:100AD00034BF012000205DF808FB00BF4FEA410C45
:100AE0007FEA6C5C02D150EA013C0AD14FEA430C28
:100AF0007FEA6C5C02D152EA033C02D14FF0000065
:100B000070474FF0010070474FEA410212F50012A2
:100B100015D211D56FF47873B3EB625212D94FEA44
:100B2000C12343F0004343EA505311F0004F23FA2E
:100B300002F018BF404270474FF00000704750EA83
:100B4000013005D111F0004008BF6FF00040704740
:100B50004FF00000704700BF4A0011D212F500129A
:100B600011D20DD56FF47873B3EB62520ED44FEA05
:100B7000C12343F0004343EA505323FA02F0704785
:100B80004FF00000704750EA013002D14FF0FF30C3
:100B900070474FF0000070474FEA4102B2F1E04366
:100BA00024BFB3F5001CDCF1FE5C0DD901F0004C54
:100BB0004FEAC0024CEA5070B2F1004F40EB8300A4
:100BC00008BF20F00100704711F0804F21D113F1D0
:100BD0003872BCBF01F00040704741F480114FEA09
:100BE0005252C2F11802C2F1200C10FA0CF320FA92
:100BF00002F018BF40F001004FEAC1234FEAD323AF
:100C000003FA0CFC40EA0C0023FA02F34FEA430318
:100C1000CCE77FEA625307D150EA01331EBF4FF0A1
:100C2000FE4040F44000704701F0004040F0FE40BC
:100C300040F40000704700BF53B94AB9002908BF0B
:100C400000281CBF4FF0FF314FF0FF3000F0AAB971
:100C5000ADF1080C6DE904CE00F03CF8DDF804E0DD
:100C6000DDE9022304B0704738B5002200230446B2
:100C70000D46FFF70BFF28B920462946BDE838404E
:100C800000F00AB8204605F1004100F005F84042A6
:100C900061EB410138BD00BFD0B50C4B00220646C8
:100CA0000F46FFF781FCFFF757FF0446FFF702FCF2
:100CB000074B0022FFF778FC02460B4630463946C8
:100CC000FFF7BAFAFFF748FF2146D0BD0000F03D1C
:100CD0000000F0412DE9F047089D04468E46002BA8
:100CE0004DD18A42944669D9B2FA82F252B101FAE0
:100CF00002F3C2F1200120FA01F10CFA02FC41EAF0
:100D0000030E94404FEA1C48210CBEFBF8F61FFA74
:100D10008CF708FB16E341EA034306FB07F199420F
:100D20000AD91CEB030306F1FF3080F01F819942C2
:100D300040F21C81023E63445B1AA4B2B3FBF8F09C
:100D400008FB103344EA034400FB07F7A7420AD923
:100D50001CEB040400F1FF3380F00A81A74240F24B
:100D600007816444023840EA0640E41B00261DB1B6
:100D7000D4400023C5E900433146BDE8F0878B42EB
:100D800009D9002D00F0EF800026C5E900013046AA
:100D90003146BDE8F087B3FA83F6002E4AD18B4284
:100DA00002D3824200F2F980841A61EB030301202E
:100DB0009E46002DE0D0C5E9004EDDE702B9FFDE1A
:100DC000B2FA82F2002A40F09280A1EB0C014FEAC5
:100DD0001C471FFA8CFE0126200CB1FBF7F307FB22
:100DE000131140EA01410EFB03F0884208D91CEBC5
:100DF000010103F1FF3802D2884200F2CB80434662
:100E0000091AA4B2B1FBF7F007FB101144EA014440
:100E10000EFB00FEA64508D91CEB040400F1FF31CF
:100E200002D2A64500F2BB800846A4EB0E0440EABD
:100E300003409CE7C6F12007B34022FA07FC4CEAC6
:100E4000030C20FA07F401FA06F31C43F9404FEAB9
:100E50001C4900FA06F3B1FBF9F8200C1FFA8CFECE
:100E600009FB181140EA014108FB0EF0884202FA22
:100E700006F20BD91CEB010108F1FF3A80F08880E3
:100E8000884240F28580A8F102086144091AA4B2A0
:100E9000B1FBF9F009FB101144EA014100FB0EFE21
:100EA0008E4508D91CEB010100F1FF346CD28E4550
:100EB0006AD90238614440EA0840A0FB0294A1EBE1
:100EC0000E01A142C846A64656D353D05DB1B3EB3E
:100ED000080261EB0E0101FA07F722FA06F3F1406E
:100EE0001F43C5E9007100263146BDE8F087C2F115
:100EF0002003D8400CFA02FC21FA03F3914001438D
:100F00004FEA1C471FFA8CFEB3FBF7F007FB1036C5
:100F10000B0C43EA064300FB0EF69E4204FA02F471
:100F200008D91CEB030300F1FF382FD29E422DD9C4
:100F3000023863449B1B89B2B3FBF7F607FB1633F9
:100F400041EA034106FB0EF38B4208D91CEB010179
:100F500006F1FF3816D28B4214D9023E6144C91AF9
:100F600046EA004638E72E46284605E70646E3E609
:100F70001846F8E64B45A9D2B9EB020864EB0C0E13
:100F80000138A3E74646EAE7204694E74046D1E722
:100F9000D0467BE7023B614432E7304609E76444D0
:100FA000023842E7704700BF80B584B000AFF860F8
:100FB000B9601346FB80094AFB6810461946942322
:100FC0001A4606F061FE064ABB681360FB88DAB277
:100FD000034B1A7100BF1037BD4680BD18020020B8
:100FE0001002002080B584B000AFF8600B467A6034
:100FF0007B817B68023396220021184606F052FE60
:101000007B6800221A80124B1B68114A127991B238
:101010000122184602F004F97B68023301221946C6
:101020000C4804F08BFE7B891946F86800F014F830
:10103000074B1B68064A127991B20022184602F04B
:10104000EFF8012001F072FD00BF1037BD4680BDF2
:10105000100200201802002080B582B000AF786036
:101060000B467B807A884FF0FF337968034804F0A1
:10107000D7FD00BF0837BD4680BD00BF1802002065
:1010800080B582B000AF78607B681B88952B10D844
:10109000104B1B685A6A7B681B881946D2B27B6862
:1010A0000B449A707B681B8801339AB27B681A8064
:1010B00002E07B6800221A807B6802337A6812881B
:1010C000134401221946034804F038FE00BF0837D4
:1010D000BD4680BD1802002080B485B000AF7860A6
:1010E0004FF0B043DA6C4FF0B0417B681343CB64F0
:1010F0004FF0B043DA6C7B681340FB60FB6800BFC5
:101100001437BD465DF8047B7047000080B582B09F
:1011100000AF7860391D4FF0FF330122034804F01F
:101120007FFD7B6818460837BD4680BD0003002060
:10113000F0B58FB006AF01F073FC00F0D9FA00F003
:101140003DF900F093F900F087FA00F0EDF900F0B6
:10115000ABF900F035FA00F0CBFA00F05BFB07F1D9
:10116000180319467F4801F0FFFA0346012B05D00A
:10117000BB6919467C4807F0F7FC02E07B4807F0A2
:1011800079FD10227A497B48FFF70EFF7A4B1B88C6
:101190001A467A4B134401221946764804F0CEFDD4
:1011A00007F1170301221946754804F0C7FD01F045
:1011B000A5FC0346734A13607349744807F0D4FCD6
:1011C000022301220121724807F0CEFC00F004FD49
:1011D00000F0ECFC6F4B1B78184600F059FE01F054
:1011E0008DFC0246674B1B68D31AB3F57A7F22D970
:1011F000694800F0DFFE2A2000F018FD664B1B68EE
:101200001846FFF779F904460D46634B5B681846AC
:10121000FFF772F902460B46CDE9002322462B4622
:101220005E4807F0A1FC2A2000F000FD01F066FCFA
:101230000346544A136001F061FC0246584B1B6898
:10124000D31A41F28832934240F28980524800F02A
:10125000B1FE514C3B46184600F060FB04F1080318
:101260003A4607CA83E807004B4C3B46184600F055
:1012700055FA04F114033A461068516803C3127A10
:101280001A703D4A05214748FFF7ACFE4FF4FA605B
:1012900001F04CFC00F0A0FC2D2000F0C7FC3E4B00
:1012A0001B681846FFF728F904460D463A4B5B6861
:1012B0001846FFF721F902460B46CDE900232246E6
:1012C0002B46364807F050FC334B1B7C19463648FA
:1012D00007F04AFC304B5B7D1D462F4B9B7D1E4625
:1012E0002D4BDB7D9C462C4B1B7E1A462A4B5B7E8E
:1012F0001946294B9B7E1846274BDB7E1C46264B06
:101300001B7F04930394029001910092634632463E
:101310002946264807F028FC254807F025FC00232D
:10132000FB610BE0144AFB69134402331B78194636
:10133000204807F019FCFB690133FB610E4B1B8849
:101340001A46FB699342EDDB1B4807F093FC2D2006
:1013500000F06CFC01F0D2FB0346114A136000F070
:1013600025FC37E7AC020020C8C6000800C700080B
:1013700000040048940300202C0400202E040020C8
:1013800000030020E804002044C7000860C70008EC
:1013900080C7000828040020C4040020B4C7000847
:1013A000EC04002008000020ECC7000808C8000872
:1013B00038C8000850C8000858C8000880B59AB05E
:1013C00000AF07F1200348220021184606F06AFC0E
:1013D0003B1D00221A605A609A60DA601A615A61F5
:1013E0009A61214B1B6823F4C0631F4A43F40073C6
:1013F00013601D4B1B6803F4C0633B603B682223F2
:101400003B624FF48073FB620123FB6340233B6329
:1014100000233B64A0237B640023FB6407F12003CB
:10142000184603F053F90346002B01D000F0EAFD03
:101430006F237B600023BB600023FB6000233B61C4
:1014400000237B610023BB610023FB613B1D012165
:10145000184603F0AFFC0346002B01D000F0D2FD8C
:1014600000BF6837BD4680BD0004005880B594B009
:1014700000AF3B4650220021184606F013FC4FF403
:1014800000533B600023BB641023FB643B461846BB
:1014900004F0CFF80346002B01D000F0B3FD00BFED
:1014A0005037BD4680BD000080B500AF1B4B1C4AC5
:1014B0001A601A4B1B4A5A60184B00229A60174B4D
:1014C0000122DA60154B00221A61144B00225A6186
:1014D000124B00229A61114B0022DA610F4B00225D
:1014E0001A620E4801F0B4FE0346002B01D000F052
:1014F00089FD0021094802F0BDFC0346002B01D004
:1015000000F080FD0021054802F0FFFC0346002B9F
:1015100001D000F077FD00BF80BD00BFAC0200200D
:1015200000540040BB7C700080B500AF224B234AC2
:101530001A60214B4FF416525A601F4B00229A60DA
:101540001D4B0022DA601C4B00221A611A4B0C2240
:101550005A61194B00229A61174B00221A62164BEE
:1015600000225A62144B00229A62134B00225A66E0
:10157000114804F005FB0346002B01D000F042FDAA
:1015800000210D4806F083FA0346002B01D000F03D
:1015900039FD0021084806F0B8FA0346002B01D0B7
:1015A00000F030FD044806F039FA0346002B01D064
:1015B00000F028FD00BF80BD000300200080004037
:1015C00080B500AF224B234A1A60214B4FF4E13221
:1015D0005A601F4B00229A601D4B0022DA601C4BA0
:1015E00000221A611A4B0C225A61194B00229A618F
:1015F000174B0022DA61164B00221A62144B0022AC
:101600005A62134B00229A62114804F0B9FA034659
:10161000002B01D000F0F6FC00210D4806F037FA4F
:101620000346002B01D000F0EDFC0021084806F035
:101630006CFA0346002B01D000F0E4FC044806F0ED
:10164000EDF90346002B01D000F0DCFC00BF80BDAB
:10165000940300200038014080B586B000AF3B1DE8
:1016600000221A605A609A60DA601A610220FFF75D
:1016700033FD0420FFF730FD002244F210011B4827
:1016800001F0CEFD4FF4C0537B604FF44413BB60B8
:101690000023FB603B1D1946144801F039FC44F25D
:1016A00010037B600123BB600023FB6000233B61D0
:1016B0003B1D19460D4801F02BFC4FF400437B60A5
:1016C0004FF48813BB600023FB603B1D194607489D
:1016D00001F01EFC00220021282001F026FB28201A
:1016E00001F03DFB00BF1837BD4680BD0004004837
:1016F00080B584B002AF00233B71FF237B713A1D9C
:101700004FF0FF33009302234221034801F030FEE3
:1017100000BF0837BD4680BDAC02002080B588B050
:1017200002AF786009233B7507F114024FF0FF33D5
:10173000009301234221364801F01AFE07F11302FB
:101740004FF0FF33009301234221314801F004FFA1
:10175000FB7C3B72FB7C03F00103002B14BF0123D5
:101760000023DBB27B72FB7C5B1003F00103002BD8
:1017700014BF01230023DBB2BB72FB7C9B1003F080
:101780000103002B14BF01230023DBB2FB72FB7C9F
:10179000DB1003F00103002B14BF01230023DBB295
:1017A0003B73FB7C1B1103F00103002B14BF0123CF
:1017B0000023DBB27B73FB7C5B1103F00103002B86
:1017C00014BF01230023DBB2BB73FB7C9B1103F02E
:1017D0000103002B14BF01230023DBB2FB73FB7C4E
:1017E0005BB2DB115BB203F00103002B14BF0123DA
:1017F0000023DBB23B747B681A4607F1080303CB76
:10180000106051601B78137278681837BD4680BD30
:10181000AC02002080B584B002AF02233B71FF23ED
:101820007B713A1D4FF0FF33009302234221214880
:1018300001F09EFD04233B7100237B713A1D4FF0A4
:10184000FF330093022342211A4801F091FD032344
:101850003B7100237B713A1D4FF0FF33009302234D
:101860004221144801F084FD05233B713B1D5A1CA5
:101870004FF0FF330093012342210E4801F06CFE2C
:101880007B795BB223F006035BB243F002035BB2E9
:10189000DBB27B7105233B713A1D4FF0FF330093A0
:1018A00002234221034801F063FD00BF0837BD4613
:1018B00080BD00BFAC02002080B483B000AF0346FF
:1018C000FB80144BDA68FB881340002B18D0114AB8
:1018D000FB88D360FB88B3F5004F09D0B3F5004F08
:1018E00010DCB3F5006F07D0B3F5805F04D009E0DA
:1018F000094B01221A7006E0074B02221A7002E01F
:1019000000BF00E000BF00BF0C37BD465DF8047BA0
:10191000704700BF000800582804002090B587B029
:1019200000AF78604FF480512E4801F061FC03460F
:10193000002B14BF01230023DBB23B734FF4006183
:10194000284801F055FC0346002B14BF0123002357
:10195000DBB27B733B7B83F00103DBB2002B0AD04D
:101960007B7B83F00103DBB2002B04D01E4B3B6179
:1019700001233B752AE03B7B83F00103DBB2002BA4
:1019800007D07B7B002B04D0184B3B6102233B75B7
:101990001CE03B7B002B0AD07B7B83F00103DBB296
:1019A000002B04D0124B3B6103233B750EE03B7BC5
:1019B000002B07D07B7B002B04D00E4B3B61042314
:1019C0003B7503E00C4B3B6100233B757B681C4679
:1019D00007F10C0393E8070084E8070078681C37D8
:1019E000BD4690BD000400485CC8000864C80008FB
:1019F00074C8000888C800089CC8000880B584B076
:101A000000AF78607B681B68564A93420CD15648F9
:101A1000FFF736FB544B1B881A46544B13440122E4
:101A20001946534804F08AF97B681B68514A93426F
:101A300040F094807B689B6D13F8013CFB734E4B28
:101A40001B78002B00F083804C4B1B885A1C91B2F2
:101A50004A4A118019464A4AFB7B5354FB7B0D2BA3
:101A600007D0FB7B0A2B04D0444B1B88B3F5FA7FCD
:101A70006DD3414B1B78052B66D801A252F823F099
:101A8000491B0008991A0008B51A0008E11A000855
:101A9000F71A0008491B00083A49394807F028F9A5
:101AA0000346002B49D0384807F0E4F8374B0122B1
:101AB0001A7042E03649324807F01AF90346002B03
:101AC00003D0324B01221A7039E032492C4807F01A
:101AD0000FF90346002B32D02C4B01221A702EE056
:101AE0002D49274807F004F90346002B29D0274B3E
:101AF00001221A7025E02949214807F0F9F8034628
:101B0000002B0CD0214B01221A70254B01221A7098
:101B1000244807F0AFF8194B00221A8013E022493D
:101B2000174807F0E5F80346002B0CD01C4B0022A9
:101B30001A70124B00221A8005E000BF04E000BFBB
:101B400002E000BF00E000BF0C4B00221A807B685F
:101B50009B6D01221946786804F0F0F800BF103739
:101B6000BD4680BD003801402C0400202E0400201A
:101B70009403002000800040E40400206005002061
:101B8000FC040020A4C80008A8C80008F80400202D
:101B9000B8C80008C8C80008DCC80008F0C80008B9
:101BA000E5040020FCC800080CC9000880B500AF9F
:101BB00001224FF48041074801F032FB4FF4967048
:101BC00000F0B4FF00224FF48041024801F028FBEE
:101BD00000BF80BD0004004880B582B000AF002384
:101BE000FB7116E0FB799BB25B0099B241F288333E
:101BF00005220C4801F0A6FD0346BB71BB79002B02
:101C000004D1FB791946084806F0AEFFFB79013391
:101C1000FB7197F90730002BE4DA00BF00BF0837EB
:101C2000BD4680BDAC0200201CC9000880B584B050
:101C300000AF0346FB710023FB6007E0FB79194608
:101C4000074806F091FFFB680133FB60FB68182B27
:101C5000F4DD044807F00EF800BF1037BD4680BD24
:101C600044C9000848C9000880B487B000AFF860D4
:101C7000B9601346FB710023FB75FB79062B49D82D
:101C800001A252F823F000BFA51C0008B31C0008F5
:101C9000C31C0008D31C0008E51C0008F51C000844
:101CA000051D0008FB681A78BB681A700123FB75D4
:101CB00030E0FB681B889AB2BB681A800223FB7570
:101CC00028E0FB681B681A46BB681A600423FB7592
:101CD00020E0FB6893F90030DAB2BB681A70012388
:101CE000FB7517E0FB681B889AB2BB681A80022359
:101CF000FB750FE0FB681B681A46BB681A6004237B
:101D0000FB7507E0FB681B681A46BB681A60042372
:101D1000FB7500BFFB7D18461C37BD465DF8047B94
:101D2000704700BF80B586B000AFF860B96011465B
:101D30001A460B46FB711346BB71FB68002B08D09B
:101D4000BB68002B05D0FB79002B02D0FB79322B2E
:101D500001D9002333E03B6ABA791A703B6ABA7939
:101D60005A700123FB750023BB751FE0BB7D9B00F0
:101D7000FA6813441868FB7D3A6A1344591CBB7D0A
:101D8000BA6813441B781A46FFF76EFF03467B754B
:101D9000FA7D7B7D1344322B01DD00230FE0FA7DB9
:101DA0007B7D1344FB75BB7D0133BB75BA7DFB792D
:101DB0009A42DBD33B6AFA7D83F83320012318462D
:101DC0001837BD4680BD000084B080B596B002AF24
:101DD00007F1580C8CE80F00012387F84E3007F10B
:101DE0005803BB6007F15C03FB6007F16C033B61C8
:101DF00007F168037B61214B1B687B6097F84E20DD
:101E0000391D07F1080007F1180300931346042257
:101E1000FFF788FF034687F84D3097F84D30002BC9
:101E20001FD0174806F0A0FE002387F84F300EE0C1
:101E300097F84F3050333B4413F8373C194611485C
:101E400006F092FE97F84F30013387F84F3097F83D
:101E50004B3097F84F209A42EAD30B4806F084FEA5
:101E600002E00A4806F006FF97F84D301846503752
:101E7000BD46BDE8804004B0704700BF84C900087B
:101E80004CC9000850C8000864C9000868C90008A7
:101E9000F0B58FB006AF0346FB71404B4FF4805254
:101EA000DA603E4B4FF40062DA603C4B4FF4004284
:101EB000DA60FB79002B69D0002B69DB013B022B38
:101EC00066D807F108031846FFF728FD012000F047
:101ED000A7FBF0EE407A324BC3ED007A012000F010
:101EE000E5FBF0EE407A2E4BC3ED017A642000F062
:101EF0001DFE07F114031846FFF710FC2120FFF721
:101F000095FE7B7D1D46BB7D1E46FB7D9C463B7E34
:101F10007A7EB97EF87E3C7F049403900291019210
:101F200000936346324629461E4806F01DFE3B7A62
:101F300019467B7A1A46FB681B4806F015FE184BBB
:101F40001B681846FEF7D8FA04460D46144B5B682A
:101F50001846FEF7D1FA02460B46CDE90023224689
:101F60002B46124806F000FE2120FFF75FFE0C4CC6
:101F70006D4604F110030FCB85E80F0094E80F00C5
:101F8000FFF722FF0A4B00221A7002E000BF00E0B8
:101F900000BF00BF2437BD46F0BD00BF0008005899
:101FA000C404002088C90008B0C90008B4C70008EC
:101FB0002804002080B584B000AF7860F6220F4975
:101FC0000F4800F0B3FB0346FB73FB7B012B08D1EA
:101FD0007B684FF000021A607B684FF000025A6085
:101FE00007E0064B1A687B681A60044B5A687B68E6
:101FF0005A6000BF1037BD4680BD00BFF00400200E
:10200000AC02002080B400AF72B600BFFEE780B41F
:1020100085B000AF78604FF0B043DA6C4FF0B0415C
:102020007B681343CB644FF0B043DA6C7B6813409A
:10203000FB60FB6800BF1437BD465DF8047B70474A
:1020400080B485B000AF78604FF0B0439A6D4FF028
:10205000B0417B6813438B654FF0B0439A6D7B684A
:102060001340FB60FB6800BF1437BD465DF8047B7E
:10207000704780B485B000AF78604FF0B043DA6D40
:102080004FF0B0417B681343CB654FF0B043DA6D3E
:102090007B681340FB60FB6800BF1437BD465DF8EA
:1020A000047B704780B485B000AF78604FF0B043D8
:1020B0001A6E4FF0B0417B6813430B664FF0B0438C
:1020C0001A6E7B681340FB60FB6800BF1437BD4687
:1020D0005DF8047B704780B400AF00BFBD465DF87B
:1020E000047B704780B59CB000AF786007F15C035B
:1020F00000221A605A609A60DA601A6107F10C03D4
:1021000050220021184605F0CDFD7B681B68174A58
:10211000934226D10423FB604FF44033FB6207F166
:102120000C03184603F085FA0346002B01D0FFF795
:1021300069FF0220FFF76BFF4FF44073FB6512232A
:102140003B6600237B660023BB660423FB6607F126
:102150005C031946064800F0DBFE4FF40010FFF761
:102160006FFF00BF7037BD4680BD00BF0054004008
:102170000004004880B59CB000AF786007F15C03B4
:1021800000221A605A609A60DA601A6107F10C0343
:1021900050220021184605F085FD7B681B68334AF4
:1021A00093422CD10223FB600023BB6207F10C0396
:1021B000184603F03EFA0346002B01D0FFF722FF3A
:1021C0000120FFF756FF0420FFF721FF0323FB65E3
:1021D00002233B6600237B660023BB660823FB6665
:1021E00007F15C031946224800F092FE002200210C
:1021F000252000F09AFD252000F0B1FD31E07B683C
:102200001B681C4A93422CD10123FB6000237B6294
:1022100007F10C03184603F00CFA0346002B01D01B
:10222000FFF7F0FE4FF48040FFF73CFF0220FFF77E
:10223000EEFEC023FB6502233B6600237B66002382
:10224000BB660723FB6607F15C0319460A4800F0EA
:102250005FFE00220021242000F067FD242000F012
:102260007EFD00BF7037BD4680BD00BF00800040CE
:1022700000080048003801400004004880B400AF66
:10228000FEE780B400AFFEE780B400AFFEE780B4A5
:1022900000AFFEE780B400AFFEE780B400AF00BF40
:1022A000BD465DF8047B704780B400AF00BFBD46FB
:1022B0005DF8047B704780B400AF00BFBD465DF899
:1022C000047B704780B500AF00F004FC00BF80BD08
:1022D00080B500AF024803F07DFD00BF80BD00BFA8
:1022E0009403002080B500AF024803F073FD00BFE7
:1022F00080BD00BF0003002080B500AF4FF4006038
:10230000FFF7DAFA4FF48050FFF7D6FA4FF40040A7
:10231000FFF7D2FA00BF80BD80B400AF012318469A
:10232000BD465DF8047B704780B582B000AF786031
:10233000396005F077FC034616221A604FF0FF3330
:1023400018460837BD4680BD80B582B000AF7860C2
:102350004FF0FF317868FFF7E7FFFEE780B586B002
:1023600000AFF860B9607A6000237B610AE0AFF3E8
:1023700000800146BB685A1CBA60CAB21A707B69F9
:1023800001337B617A697B689A42F0DB7B6818468F
:102390001837BD4680BD80B586B000AFF860B96023
:1023A0007A6000237B6109E0BB685A1CBA601B7825
:1023B0001846FEF7ABFE7B6901337B617A697B6867
:1023C0009A42F1DB7B6818461837BD4680BD80B461
:1023D00083B000AF78604FF0FF3318460C37BD462E
:1023E0005DF8047B704780B483B000AF78603960DB
:1023F0003B684FF400525A60002318460C37BD4624
:102400005DF8047B704780B483B000AF786001232F
:1024100018460C37BD465DF8047B704780B485B024
:1024200000AFF860B9607A60002318461437BD46E3
:102430005DF8047B7047000080B586B000AF78601F
:10244000144A154BD31A7B617B693B61134B1B68A4
:10245000002B02D1114B124A1A60104B1A687B688C
:1024600013443A699A4207D205F0DCFB03460C227A
:102470001A604FF0FF3309E0084B1B68FB60074B05
:102480001A687B681344054A1360FB6818461837BE
:10249000BD4680BD0000032000040000640500204C
:1024A0008005002080B400AF244BD3F88830234A45
:1024B00043F47003C2F888304FF0B0431B684FF00C
:1024C000B04243F0010313604FF0B0434FF4E022F9
:1024D0009A604FF0B0431A684FF0B041184B134068
:1024E0000B604FF0B043D3F894304FF0B04223F07C
:1024F0000503C2F894304FF0B043D3F898304FF052
:10250000B04223F00103C2F898304FF0B0430D4AB7
:10251000DA604FF0B0430B4A1A614FF0B0431B68CA
:102520004FF0B04223F4802313604FF0B0430022F9
:102530009A6100BFBD465DF8047B704700ED00E086
:10254000FBFEF6FA00100422D458C4500433C41819
:102550008C42F9D37047036004308842FBD3704744
:102560000C488546FFF79EFF0B480C490C4A002398
:10257000FFF7EDFF0B480C490C4A0023FFF7E7FF7C
:102580000B480C490023FFF7E8FF05F051FBFEF76D
:10259000CFFDFEE70000032008000020F40100202A
:1025A0000CD200080000032000000320F8D300082C
:1025B000F401002080050020FEE7000080B586B011
:1025C00002AF0346FB71134B1B88BB810023BB7317
:1025D000114B1868FA1D4FF47A7300930123802180
:1025E00000F0C6FE0C4B186807F10C024FF47A732A
:1025F00000930323802100F0AFFF3B7B1B021AB244
:102600007B7B1BB213431BB29BB218461037BD46EF
:1026100080BD00BF58CB0008680500200000000006
:1026200080B584B000AF0346FB71FB79002B01D06D
:10263000E32300E0F323FB73FB7B1846FFF7BEFFA9
:1026400003461846FDF746FF4FF00002164BFEF713
:10265000D5F802460B46104619460FA3D3E90023CE
:10266000FDF7A2FF02460B46104619460CA3D3E91C
:102670000023FDF7E1FD02460B4610461946FEF722
:102680008BFA034607EE903AB0EE670A1037BD4664
:1026900080BD00BFAFF30080D7A3703D0AF765404F
:1026A000CDCCCCCCCC6C47400000F04080B584B0A1
:1026B00000AF0346FB71FB79002B01D0E52300E05E
:1026C000F523FB73FB7B1846FFF778FF034618469C
:1026D000FDF700FF4FF00002114BFEF78FF80246A6
:1026E0000B46104619464FF000020E4BFDF75CFFFB
:1026F00002460B46104619464FF000020A4BFDF702
:102700009BFD02460B4610461946FEF745FA034666
:1027100007EE903AB0EE670A1037BD4680BD00BFA5
:102720000000F04000405F400000184080B586B0D7
:1027300000AFF860B9601346FB7107F11002FB1D92
:102740001946F86800F078F80346002B07D107F126
:102750001003B968184600F0A3F8034600E001230F
:1027600018461837BD4680BD80B586B000AF78608A
:10277000396007F10C031A461A49786800F05CF8D2
:102780000346002B29D13B7B1B021AB27B7B1BB279
:1027900013431BB2FB82FB7B1B021AB23B7C1BB2B6
:1027A00013431BB2BB82BA7BFB8A1146184600F06A
:1027B0001BF80346002B10D07A7CBB8A11461846C2
:1027C00000F012F80346002B07D0FB8A1A04BB8ADC
:1027D0001A433B681A60002300E0012318461837AB
:1027E000BD4680BD1400002080B485B000AF034614
:1027F0000A46FB8013467B71FF23FB73FB7BFA8841
:10280000120A92B253400B4AD35CFB73FA7BFB88EB
:10281000DBB25340074AD35CFB73FA7B7B799A4265
:102820000CBF01230023DBB218461437BD465DF808
:10283000047B704728CC000880B588B002AFF860F0
:10284000B9607A60642000F071F94FF4FA73009374
:102850000123BA688821F86800F08AFD0346FB75F9
:10286000FB7D002B01D0012316E0642000F05EF90F
:102870004FF4FA73009306237A688821F86800F011
:102880006BFE0346FB75FB7D002B01D0012303E0AB
:10289000642000F04BF9002318461837BD4680BD70
:1028A00080B584B000AF786039607B681B781B020C
:1028B0001AB27B6801331B781BB213431BB2FB8136
:1028C0007B6803331B781B021AB27B6804331B78C6
:1028D0001BB213431BB2BB817B6802331A78FB899E
:1028E00011461846FFF780FF0346002B1ED07B6879
:1028F00005331A78BB8911461846FFF775FF034662
:10290000002B13D0FB89184600F016F8F0EE407A41
:102910003B68C3ED007ABB89184600F049F8F0EE39
:10292000407A3B68C3ED017A002300E0012318469A
:102930001037BD4680BD000080B582B000AF0346B1
:10294000FB80FB881846FDF7C5FD14A3D3E90023DF
:10295000FDF754FF02460B461046194611A3D3E972
:102960000023FDF721FE02460B46104619464FF0A4
:102970000002094BFDF760FC02460B461046194663
:10298000FEF70AF9034607EE903AB0EE670A0837F9
:10299000BD4680BDAFF300800080464000000000CF
:1029A000E0FFEF400000000000E065400000000094
:1029B00080B582B000AF0346FB80FB881846FDF768
:1029C00089FD15A3D3E90023FDF718FF02460B4646
:1029D000104619464FF000020D4BFDF7E5FD02468B
:1029E0000B46104619464FF000020A4BFDF724FC37
:1029F00002460B4610461946FEF7CEF8034607EE90
:102A0000903AB0EE670A0837BD4680BDAFF300804C
:102A100000405F400000184000000000E0FFEF4071
:102A200080B582B000AF0023FB710C4B1B680B4AD2
:102A300043F480731360032000F06CF90F2000F062
:102A40000FF80346002B02D00123FB7101E0FFF7D2
:102A500042FBFB7918460837BD4680BD0040005850
:102A600080B584B000AF78600023FB73174B1B78F0
:102A7000002B24D002F04CFB0246144B1B78194665
:102A80004FF47A73B3FBF1F3B2FBF3F3184600F0A3
:102A900074F90346002B0FD17B680F2B09D8002255
:102AA00079684FF0FF3000F040F9094A7B68136005
:102AB00007E00123FB7304E00123FB7301E0012322
:102AC000FB73FB7B18461037BD4680BD1C00002001
:102AD0001800002080B400AF064B1B781A46064B46
:102AE0001B681344044A136000BFBD465DF8047BB5
:102AF000704700BF1C0000206C05002080B400AFB0
:102B0000034B1B681846BD465DF8047B704700BF49
:102B10006C05002080B400AF034B1B681846BD460F
:102B20005DF8047B704700BF1800002080B584B0BA
:102B300000AF7860FFF7E2FFB8607B68FB60FB687E
:102B4000B3F1FF3F05D00A4B1B781A46FB681344CC
:102B5000FB6000BFFFF7D2FF0246BB68D31AFA68DA
:102B60009A42F7D800BF00BF1037BD4680BD00BFF6
:102B70001C00002080B485B000AF78607B6803F053
:102B80000703FB600C4BDB68BB60BA684FF6FF03C2
:102B90001340BB60FB681A02BB68134343F0BF637A
:102BA00043F40033BB60044ABB68D36000BF1437F2
:102BB000BD465DF8047B704700ED00E080B400AFD7
:102BC000044BDB681B0A03F007031846BD465DF89B
:102BD000047B704700ED00E080B483B000AF034693
:102BE000FB7197F90730002B0BDBFB7903F01F0219
:102BF000074997F907305B09012000FA02F241F812
:102C0000232000BF0C37BD465DF8047B704700BF32
:102C100000E100E080B483B000AF03463960FB718F
:102C200097F90730002B0ADB3B68DAB20C4997F9B9
:102C300007301201D2B20B4483F800230AE03B684C
:102C4000DAB20849FB7903F00F03043B1201D2B258
:102C50000B441A7600BF0C37BD465DF8047B704705
:102C600000E100E000ED00E080B489B000AFF86062
:102C7000B9607A60FB6803F00703FB61FB69C3F18D
:102C80000703042B28BF0423BB61FB690433062B15
:102C900002D9FB69033B00E000237B614FF0FF3268
:102CA000BB6902FA03F3DA43BB681A407B699A40B6
:102CB0004FF0FF317B6901FA03F3D9437B680B4086
:102CC000134318462437BD465DF8047B7047000067
:102CD00080B582B000AF78607B68013BB3F1807F44
:102CE00001D301230FE00A4A7B68013B53600F21A7
:102CF0004FF0FF30FFF78EFF054B00229A60044B28
:102D000007221A60002318460837BD4680BD00BF61
:102D100010E000E080B582B000AF78607868FFF71F
:102D200029FF00BF0837BD4680BD80B586B000AF23
:102D30000346B9607A60FB73FFF740FF78617A68F9
:102D4000B9687869FFF790FF024697F90F3011468E
:102D50001846FFF75FFF00BF1837BD4680BD80B53E
:102D600082B000AF0346FB7197F907301846FFF7B2
:102D700033FF00BF0837BD4680BD80B582B000AFCD
:102D800078607868FFF7A4FF034618460837BD4609
:102D900080BD80B483B000AF78607B68002B01D128
:102DA00001234FE07B6893F82530DBB2022B08D07B
:102DB0007B680422DA637B68002283F824200123E5
:102DC00040E07B681B681A687B681B6822F00E0273
:102DD0001A607B689B6C1A687B689B6C22F480721B
:102DE0001A607B681B681A687B681B6822F0010206
:102DF0001A607B685B6C03F01C027B681B6C012112
:102E000001FA02F25A607B68DB6C7A68126D5A60D4
:102E10007B685B6D002B0CD07B685B6D1A687B68F0
:102E20005B6D22F480721A607B689B6D7A68D26D4C
:102E30005A607B68012283F825207B68002283F892
:102E40002420002318460C37BD465DF8047B7047EC
:102E500080B584B000AF78600023FB737B6893F883
:102E60002530DBB2022B05D07B680422DA63012314
:102E7000FB7347E07B681B681A687B681B6822F05D
:102E80000E021A607B681B681A687B681B6822F058
:102E900001021A607B689B6C1A687B689B6C22F449
:102EA00080721A607B685B6C03F01C027B681B6C91
:102EB000012101FA02F25A607B68DB6C7A68126DBC
:102EC0005A607B685B6D002B0CD07B685B6D1A6869
:102ED0007B685B6D22F480721A607B689B6D7A68F8
:102EE000D26D5A607B68012283F825207B6800221E
:102EF00083F824207B689B6B002B03D07B689B6B43
:102F000078689847FB7B18461037BD4680BD0000A7
:102F100080B487B000AF7860396000237B614CE1FA
:102F20003B681A6801217B6901FA03F31340FB60D7
:102F3000FB68002B00F03E813B685B6803F00303F5
:102F4000012B05D03B685B6803F00303022B30D1F3
:102F50007B689B683B617B695B00032202FA03F399
:102F6000DB433A6913403B613B68DA687B695B008D
:102F700002FA03F33A6913433B617B683A699A604A
:102F80007B685B683B6101227B6902FA03F3DB43E8
:102F90003A6913403B613B685B681B0903F001021F
:102FA0007B6902FA03F33A6913433B617B683A6930
:102FB0005A603B685B6803F00303032B17D07B6800
:102FC000DB683B617B695B00032202FA03F3DB43AE
:102FD0003A6913403B613B689A687B695B0002FA7F
:102FE00003F33A6913433B617B683A69DA603B68F3
:102FF0005B6803F00303022B23D17B69DA087B684B
:10300000083253F822303B617B6903F007039B00D1
:103010000F2202FA03F3DB433A6913403B613B683A
:103020001A697B6903F007039B0002FA03F33A690C
:1030300013433B617B69DA087B680832396943F8DE
:1030400022107B681B683B617B695B00032202FAEC
:1030500003F3DB433A6913403B613B685B6803F071
:1030600003027B695B0002FA03F33A6913433B6195
:103070007B683A691A603B685B6803F44033002B55
:1030800000F09880544A7B699B08023352F8233041
:103090003B617B6903F003039B000F2202FA03F3F9
:1030A000DB433A6913403B617B68B3F1904F19D021
:1030B0007B684A4A934213D07B68494A93420DD0B9
:1030C0007B68484A934207D07B68474A934201D1C4
:1030D000042308E0072306E0032304E0022302E0C0
:1030E000012300E000237A6902F00302920093407A
:1030F0003A6913433B6138497B699B0802333A695B
:1031000041F82320394B1B683B61FB68DB433A697C
:1031100013403B613B685B6803F48013002B03D0D2
:103120003A69FB6813433B61304A3B6913602F4B9C
:103130005B683B61FB68DB433A6913403B613B687A
:103140005B6803F40013002B03D03A69FB68134358
:103150003B61264A3B695360244BD3F880303B6186
:10316000FB68DB433A6913403B613B685B6803F4EF
:103170008033002B03D03A69FB6813433B611B4A41
:103180003B69C2F88030194BD3F884303B61FB684F
:10319000DB433A6913403B613B685B6803F40033EF
:1031A000002B03D03A69FB6813433B610F4A3B692C
:1031B000C2F884307B6901337B613B681A687B69A4
:1031C00022FA03F3002B7FF4ABAE00BF00BF1C3725
:1031D000BD465DF8047B70470000014000040048D4
:1031E00000080048000C0048001000480008005883
:1031F00080B485B000AF78600B467B807B681A692D
:103200007B881340002B02D00123FB7301E00023D5
:10321000FB73FB7B18461437BD465DF8047B704793
:1032200080B483B000AF78600B467B8013467B7020
:103230007B78002B03D07A887B689A6102E07A88D9
:103240007B689A6200BF0C37BD465DF8047B70470F
:1032500080B582B000AF78607B68002B01D101237C
:1032600081E07B6893F84130DBB2002B06D17B68AC
:10327000002283F840207868FEF734FF7B68242220
:1032800083F841207B681B681A687B681B6822F002
:1032900001021A607B685A687B681B6822F07062C2
:1032A0001A617B681B689A687B681B6822F400427D
:1032B0009A607B68DB68012B07D17B689A687B6822
:1032C0001B6842F400429A6006E07B689A687B685B
:1032D0001B6842F404429A607B68DB68022B04D1CD
:1032E0007B681B684FF400625A607B681B685B68F0
:1032F0007A68126843F0007343F4004353607B68BC
:103300001B68DA687B681B6822F40042DA607B681D
:103310001A697B685B6942EA03017B689B691A0250
:103320007B681B680A43DA607B68D9697B681A6A24
:103330007B681B680A431A607B681B681A687B6895
:103340001B6842F001021A607B6800225A647B68A5
:10335000202283F841207B6800221A637B680022C8
:1033600083F84220002318460837BD4680BD000080
:1033700080B588B002AFF8607A601A460B467B8150
:1033800013463B81FB6893F84130DBB2202B40F0C1
:10339000DA80FB6893F84030012B01D10223D3E09F
:1033A000FB68012283F84020FFF7A8FB78617B6966
:1033B0000093192301224FF40041F86800F0EDFA60
:1033C0000346002B01D00123BEE0FB68212283F8D5
:1033D0004120FB68102283F84220FB6800225A64D7
:1033E000FB687A685A62FB683A895A85FB68002252
:1033F0005A63FB685B8D9BB2FF2B0ED9FB68FF22E3
:103400001A85FB681B8DDAB27989514B00934FF016
:103410008073F86800F0FCFC6CE0FB685B8D9AB28E
:10342000FB681A85FB681B8DDAB27989484B0093DB
:103430004FF00073F86800F0EBFC5BE07A69396AE2
:10344000F86800F0F9FA0346002B01D001237BE075
:10345000FB685B6A1A78FB681B689A62FB685B6AA8
:103460005A1CFB685A62FB685B8D9BB2013B9AB2A7
:10347000FB685A85FB681B8D013B9AB2FB681A8575
:10348000FB685B8D9BB2002B34D0FB681B8D002B3F
:1034900030D17B6900933B6A00228021F86800F0FC
:1034A0007CFA0346002B01D001234DE0FB685B8DC5
:1034B0009BB2FF2B0ED9FB68FF221A85FB681B8D80
:1034C000DAB27989002300934FF08073F86800F036
:1034D0009FFC0FE0FB685B8D9AB2FB681A85FB6866
:1034E0001B8DDAB27989002300934FF00073F868DE
:1034F00000F08EFCFB685B8D9BB2002B9ED17A693D
:10350000396AF86800F0DFFA0346002B01D0012386
:103510001AE0FB681B682022DA61FB681B685968A7
:10352000FB681A680B4B0B405360FB68202283F842
:103530004120FB68002283F84220FB68002283F8C8
:103540004020002300E0022318461837BD4680BD06
:103550000020008000E800FE80B588B002AFF8606F
:103560007A601A460B467B8113463B81FB6893F8D1
:103570004130DBB2202B40F0DB80FB6893F8403019
:10358000012B01D10223D4E0FB68012283F8402003
:10359000FFF7B4FA78617B690093192301224FF495
:1035A0000041F86800F0F9F90346002B01D001232F
:1035B000BFE0FB68222283F84120FB68102283F8D9
:1035C0004220FB6800225A64FB687A685A62FB68F2
:1035D0003A895A85FB6800225A63FB685B8D9BB26F
:1035E000FF2B0ED9FB68FF221A85FB681B8DDAB210
:1035F0007989524B00934FF08073F86800F008FC13
:103600006DE0FB685B8D9AB2FB681A85FB681B8DC9
:10361000DAB27989494B00934FF00073F86800F0F3
:10362000F7FB5CE07A69396AF86800F08FFA0346C4
:10363000002B01D001237CE0FB681B685A6AFB6801
:103640005B6AD2B21A70FB685B6A5A1CFB685A62EA
:10365000FB681B8D013B9AB2FB681A85FB685B8D8A
:103660009BB2013B9AB2FB685A85FB685B8D9BB2AB
:10367000002B34D0FB681B8D002B30D17B6900936D
:103680003B6A00228021F86800F087F90346002B8E
:1036900001D001234DE0FB685B8D9BB2FF2B0ED95F
:1036A000FB68FF221A85FB681B8DDAB2798900233B
:1036B00000934FF08073F86800F0AAFB0FE0FB68FE
:1036C0005B8D9AB2FB681A85FB681B8DDAB279892B
:1036D000002300934FF00073F86800F099FBFB683B
:1036E0005B8D9BB2002B9DD17A69396AF86800F036
:1036F000EAF90346002B01D001231AE0FB681B689E
:103700002022DA61FB681B685968FB681A680C4B59
:103710000B405360FB68202283F84120FB680022A5
:1037200083F84220FB68002283F84020002300E059
:10373000022318461837BD4680BD00BF0024008014
:1037400000E800FE80B58AB002AFF8607A603B60A6
:103750000B467B8100237B61FB6893F84130DBB231
:10376000202B40F0F180FB681B689B6903F4004349
:10377000B3F5004F01D10223E7E0FB6893F8403036
:10378000012B01D10223E0E0FB68012283F84020F5
:10379000FB68242283F84120FB6800225A64FB68FE
:1037A000DB68012B07D17B89C3F3090343F0007366
:1037B00043F4005304E07B89C3F3090343F420532B
:1037C000FA6812685360FFF799F9B861FB681B68E3
:1037D0009B6903F02003202B0CBF01230023DBB2E5
:1037E000FB77FB681B689B6903F01003102B0CBF71
:1037F00001230023DBB2BB7734E03B68B3F1FF3F2A
:103800001AD0FFF77BF90246BB69D31A3A689A428D
:1038100002D33B68002B0FD1FB68202283F84120A4
:10382000FB685B6C43F02002FB685A64FB68002273
:1038300083F84020012388E0FB681B689B6903F044
:103840002003202B0CBF01230023DBB2FB77FB6896
:103850001B689B6903F01003102B0CBF012300238E
:10386000DBB2BB77FB7F002B02D1BB7F002BC4D028
:10387000FB681B689B6903F01003102B1AD0BB690F
:1038800000933B6800222021F86800F086F8034688
:10389000002B01D0012358E0FB681B682022DA616D
:1038A000FB68202283F84120FB68002283F8402037
:1038B00000234AE0BB6900933B6800222021F8689E
:1038C00000F06BF80346002B01D001233DE0FB68BC
:1038D0001B681022DA61FB681B682022DA617B69B1
:1038E0007A689A4218D1FB681B685A68FB681B68A3
:1038F00042F480425A60BB6900933B680022202159
:10390000F86800F04AF80346002B01D001231CE0C0
:10391000FB681B682022DA617B6901337B617B696C
:103920007A689A423FF63BAFFB68202283F8412039
:10393000FB685B6C43F02002FB685A64FB68002262
:1039400083F84020012300E0022318462037BD46BB
:1039500080BD80B483B000AF78607B681B689B69D2
:1039600003F00203022B03D17B681B6800229A62DA
:103970007B681B689B6903F00103012B07D07B6800
:103980001B689A697B681B6842F001029A6100BF5C
:103990000C37BD465DF8047B704780B584B000AF3E
:1039A000F860B9603B601346FB7131E03B68B3F1EE
:1039B000FF3F2DD0FFF7A2F80246BB69D31A3A6841
:1039C0009A4202D33B68002B22D1FB681B689A699C
:1039D000BB681340BA689A420CBF01230023DBB2D4
:1039E0001A46FB799A4213D1FB685B6C43F02002C4
:1039F000FB685A64FB68202283F84120FB680022A0
:103A000083F84220FB68002283F8402001230FE066
:103A1000FB681B689A69BB681340BA689A420CBF7E
:103A200001230023DBB21A46FB799A42BED0002361
:103A300018461037BD4680BD80B584B000AFF86031
:103A4000B9607A6033E07A68B968F86800F000F924
:103A50000346002B01D0012331E0BB68B3F1FF3FE7
:103A600025D0FFF74BF802467B68D31ABA689A4212
:103A700002D3BB68002B1AD1FB681B689B6903F05B
:103A80000203022B13D0FB685B6C43F02002FB683F
:103A90005A64FB68202283F84120FB68002283F8E7
:103AA0004220FB68002283F84020012307E0FB68E6
:103AB0001B689B6903F00203022BC4D10023184644
:103AC0001037BD4680BD80B584B000AFF860B960E6
:103AD0007A602FE07A68B968F86800F0B9F80346B0
:103AE000002B01D001232DE0FFF708F802467B6888
:103AF000D31ABA689A4202D3BB68002B1AD1FB686A
:103B00001B689B6903F02003202B13D0FB685B6CC0
:103B100043F02002FB685A64FB68202283F84120AE
:103B2000FB68002283F84220FB68002283F84020D3
:103B3000012307E0FB681B689B6903F02003202B2F
:103B4000C8D1002318461037BD4680BD80B584B06B
:103B500000AFF860B9607A606BE07A68B968F868BD
:103B600000F076F80346002B01D0012369E0FB68E2
:103B70001B689B6903F02003202B38D1FB681B686E
:103B80009B6903F00403042B05D1FB681B8D002BFC
:103B900001D0002355E0FB681B689B6903F010030C
:103BA000102B07D1FB681B681022DA61FB68042226
:103BB0005A6402E0FB6800225A64FB681B682022FA
:103BC000DA61FB681B685968FB681A681F4B0B4079
:103BD0005360FB68202283F84120FB68002283F8B1
:103BE0004220FB68002283F84020012329E0FEF7F1
:103BF00085FF02467B68D31ABA689A4202D3BB6833
:103C0000002B16D1FB681B689B6903F00403042B8F
:103C10000FD0FB685B6C43F02002FB685A64FB68C2
:103C2000202283F84120FB68002283F840200123F2
:103C300007E0FB681B689B6903F00403042B8CD12D
:103C4000002318461037BD4680BD00BF00E800FEC7
:103C500080B58AB000AFF860B9607A60002387F859
:103C60002730FB681B689B69BB6100233B627B6854
:103C7000FB61BB6903F01003002B68D0FB681B6875
:103C80001022DA6149E0BB68B3F1FF3F45D0FEF78F
:103C900035FF0246FB69D31ABA689A4202D3BB6861
:103CA000002B3AD1FB681B685B6803F480437B619F
:103CB000FB6893F84230FB74FB681B689B6903F454
:103CC0000043B3F5004F21D17B69B3F5804F1DD080
:103CD000FB7C202B1AD0FB681B685A68FB681B68AA
:103CE00042F480425A60FEF709FFF8610EE0FEF7E9
:103CF00005FF0246FB69D31A192B07D93B6A43F02B
:103D000020033B62012387F8273006E0FB681B682D
:103D10009B6903F02003202BE9D1FB681B689B699A
:103D200003F02003202B03D097F82730002BAAD0D4
:103D300097F82730002B03D1FB681B682022DA613B
:103D40003B6A43F004033B62012387F82730FB689A
:103D50001B689B69BB61BB6903F48073002B0BD0AC
:103D60003B6A43F001033B62FB681B684FF48072BF
:103D7000DA61012387F82730BB6903F48063002BE5
:103D80000BD03B6A43F008033B62FB681B684FF4AF
:103D90008062DA61012387F82730BB6903F400737E
:103DA000002B0BD03B6A43F002033B62FB681B68AD
:103DB0004FF40072DA61012387F8273097F8273033
:103DC000002B1CD0F868FFF7C4FDFB681B6859681E
:103DD000FB681A680D4B0B405360FB685A6C3B6ADA
:103DE0001A43FB685A64FB68202283F84120FB6871
:103DF000002283F84220FB68002283F8402097F8D5
:103E0000273018462837BD4680BD00BF00E800FEB9
:103E100080B487B000AFF8607B600B467B811346AF
:103E20007B727B89C3F309027B7A1B0403F47F0353
:103E30001A437B681A433B6A134323F000437B61B8
:103E4000FB681B685A683B6A5B0D03F48061084B92
:103E50000B43DB4302EA0301FB681B687A690A43F0
:103E60005A6000BF1C37BD465DF8047B704700BF39
:103E7000FF63FF0380B483B000AF786039607B6874
:103E800093F84130DBB2202B38D17B6893F8403077
:103E9000012B01D1022332E07B68012283F840200C
:103EA0007B68242283F841207B681B681A687B6842
:103EB0001B6822F001021A607B681B681A687B6825
:103EC0001B6822F480521A607B681B6819687B6843
:103ED0001B683A680A431A607B681B681A687B682B
:103EE0001B6842F001021A607B68202283F841209F
:103EF0007B68002283F84020002300E0022318465C
:103F00000C37BD465DF8047B704780B485B000AFC8
:103F1000786039607B6893F84130DBB2202B39D16F
:103F20007B6893F84030012B01D1022333E07B689A
:103F3000012283F840207B68242283F841207B689B
:103F40001B681A687B681B6822F001021A607B6894
:103F50001B681B68FB60FB6823F47063FB603B68B5
:103F60001B02FA681343FB607B681B68FA681A60DF
:103F70007B681B681A687B681B6842F001021A6044
:103F80007B68202283F841207B68002283F8402050
:103F9000002300E0022318461437BD465DF8047B79
:103FA0007047000080B400AF054B1B68044A43F41F
:103FB0008073136000BFBD465DF8047B704700BF8F
:103FC0000004005880B400AF044B1B6803F4C063C6
:103FD0001846BD465DF8047B704700BF00040058DA
:103FE00080B400AF4FF0B0431B6803F48013B3F507
:103FF000801F01D1012300E000231846BD465DF873
:10400000047B704780B400AF4FF0B0431B684FF0A3
:10401000B04243F48033136000BFBD465DF8047BBB
:10402000704780B400AF4FF0B0431B684FF0B04210
:1040300023F48033136000BFBD465DF8047B7047F6
:1040400080B400AF4FF0B0431B6803F40033B3F506
:10405000003F01D1012300E000231846BD465DF872
:10406000047B704780B400AF4FF0B0431B684FF043
:10407000B04243F48073136000BFBD465DF8047B1B
:10408000704780B400AF4FF0B0431B684FF0B042B0
:1040900023F48073136000BFBD465DF8047B704756
:1040A00080B400AF4FF0B0431B6803F48063B3F5F6
:1040B000806F01D1012300E000231846BD465DF862
:1040C000047B704780B483B000AF78604FF0B0439A
:1040D0005B6823F0FE427B681B064FF0B041134340
:1040E0004B6000BF0C37BD465DF8047B704780B461
:1040F00000AF4FF0B043D3F898304FF0B04243F0E8
:104100000103C2F8983000BFBD465DF8047B7047DC
:1041100080B400AF4FF0B043D3F898304FF0B042C6
:1041200023F00103C2F8983000BFBD465DF8047B60
:10413000704780B400AF4FF0B043D3F8983003F02D
:104140000203022B01D1012300E000231846BD46E3
:104150005DF8047B704780B400AF4FF0B043D3F8F4
:1041600090304FF0B04243F00103C2F8903000BFEE
:10417000BD465DF8047B704780B400AF4FF0B0439C
:10418000D3F890304FF0B04223F00103C2F89030E2
:1041900000BFBD465DF8047B704780B400AF4FF0B0
:1041A000B043D3F890304FF0B04243F00403C2F86C
:1041B000903000BFBD465DF8047B704780B400AF0F
:1041C0004FF0B043D3F890304FF0B04223F00403E7
:1041D000C2F8903000BFBD465DF8047B704780B4E4
:1041E00000AF4FF0B043D3F8903003F00203022B3E
:1041F00001D1012300E000231846BD465DF8047B91
:10420000704780B400AF4FF0B043D3F894304FF014
:10421000B04243F00103C2F8943000BFBD465DF8E0
:10422000047B704780B400AF4FF0B043D3F89430B4
:104230004FF0B04223F00103C2F8943000BFBD46F6
:104240005DF8047B704780B400AF4FF0B043D3F803
:10425000943003F00203022B01D1012300E000237C
:104260001846BD465DF8047B704780B400AF4FF040
:10427000B043D3F894304FF0B04243F00403C2F897
:10428000943000BFBD465DF8047B704780B400AF3A
:104290004FF0B043D3F894304FF0B04223F0040312
:1042A000C2F8943000BFBD465DF8047B704780B40F
:1042B00000AF4FF0B043D3F8943003F00803082B5D
:1042C00001D1012300E000231846BD465DF8047BC0
:1042D000704780B483B000AF78604FF0B043D3F83C
:1042E000943023F470627B681B024FF0B04113439B
:1042F000C1F8943000BF0C37BD465DF8047B7047B1
:1043000080B400AF4FF0B0431B684FF0B04243F0B1
:104310000103136000BFBD465DF8047B704780B4A5
:1043200000AF4FF0B0431B684FF0B04223F00103E1
:10433000136000BFBD465DF8047B704780B400AFDA
:104340004FF0B0431B6803F00203022B01D101239D
:1043500000E000231846BD465DF8047B704780B43A
:1043600083B000AF78604FF0B0431B6823F0F002D9
:104370004FF0B0417B6813430B6000BF0C37BD4664
:104380005DF8047B704780B483B000AF4FF0B0435A
:104390001B6803F0F0037B607B68B02B01D9B0236E
:1043A0007B607B6818460C37BD465DF8047B704720
:1043B00080B483B000AF78604FF0B0435B6823F403
:1043C0007F427B681B024FF0B04113434B6000BF3C
:1043D0000C37BD465DF8047B704780B483B000AFF6
:1043E00078604FF0B0439B6823F003024FF0B04178
:1043F0007B6813438B6000BF0C37BD465DF8047BC0
:10440000704780B400AF4FF0B0439B6803F00C03DB
:104410001846BD465DF8047B704780B483B000AF9A
:1044200078604FF0B0439B6823F0F0024FF0B0414A
:104430007B6813438B6000BF0C37BD465DF8047B7F
:10444000704780B483B000AF78604FF0B043D3F8CA
:10445000083123F0F0024FF0B0417B681343C1F8FC
:10446000083100BF0C37BD465DF8047B704780B44F
:1044700083B000AF78604FF0B043D3F8083123F039
:104480000F027B681B094FF0B0411343C1F808319C
:1044900000BF0C37BD465DF8047B704780B483B025
:1044A00000AF78604FF0B0439B6823F4E0624FF0B8
:1044B000B0417B6813438B6000BF0C37BD465DF88D
:1044C000047B704780B483B000AF78604FF0B04396
:1044D0009B6823F460524FF0B0417B6813438B60BC
:1044E00000BF0C37BD465DF8047B704780B400AF59
:1044F0004FF0B0439B6803F0F0031846BD465DF8EB
:10450000047B704780B400AF4FF0B043D3F808315C
:104510001B0103F0F0031846BD465DF8047B7047AD
:1045200080B400AF4FF0B0439B6803F4E0631846DB
:10453000BD465DF8047B704780B400AF4FF0B043D8
:104540009B6803F460531846BD465DF8047B7047D2
:1045500080B400AF4FF0B0431B684FF0B04243F05F
:104560008073136000BFBD465DF8047B704780B464
:1045700000AF4FF0B0431B684FF0B04223F08073A0
:10458000136000BFBD465DF8047B704780B400AF88
:104590004FF0B0431B6803F00073B3F1007F01D10B
:1045A000012300E000231846BD465DF8047B7047F8
:1045B00080B400AF4FF0B043DB681B0A03F07F0309
:1045C0001846BD465DF8047B704780B400AF4FF0DD
:1045D000B043DB6803F060431846BD465DF8047BDA
:1045E000704780B400AF4FF0B043DB6803F0700356
:1045F0001846BD465DF8047B704780B400AF4FF0AD
:10460000B043DB6803F003031846BD465DF8047B46
:10461000704780B400AF4FF0B0439B6803F4803321
:10462000B3F5803F01D1012300E000231846BD46C9
:104630005DF8047B704780B400AF4FF0B043D3F80F
:10464000083103F40033B3F5003F01D1012300E04A
:1046500000231846BD465DF8047B704780B400AF68
:104660004FF0B043D3F8083103F48033B3F5803F03
:1046700001D1012300E000231846BD465DF8047B0C
:10468000704780B400AF4FF0B0439B6803F4003331
:10469000B3F5003F01D1012300E000231846BD46D9
:1046A0005DF8047B704780B400AF4FF0B0439B6867
:1046B00003F48023B3F5802F01D1012300E0002310
:1046C0001846BD465DF8047B7047000090B58DB07C
:1046D00000AF78607B68002B01D1012363E37B6826
:1046E0001B6803F02003002B00F08D80FFF789FE8C
:1046F000F862FFF782FFB862FB6A002B05D0FB6A05
:104700000C2B47D1BB6A012B44D17B68DB69002BA2
:1047100001D1012347E37B685C6AFFF734FE03465F
:104720009C4214D97B685B6A184600F031FD034651
:10473000002B01D0012336E37B685B6A1846FFF744
:104740000EFE7B681B6A1846FFF732FE13E07B689B
:104750005B6A1846FFF703FE7B681B6A1846FFF783
:1047600027FE7B685B6A184600F012FD0346002BAB
:1047700001D0012317E300F0CBFC0346A44A1360E9
:10478000A44B1B681846FEF76BF90346002B39D083
:10479000012308E37B68DB69002B1ED0FFF7B0FD27
:1047A000FEF7ACF9786208E0FEF7A8F902467B6AEA
:1047B000D31A022B01D90323F5E2FFF7BFFD03460D
:1047C000002BF1D07B685B6A1846FFF7C8FD7B6859
:1047D0001B6A1846FFF7ECFD15E0FFF7A0FDFEF79A
:1047E0008DF9786208E0FEF789F902467B6AD31AF0
:1047F000022B01D90323D6E2FFF7A0FD0346002BCD
:10480000F1D100E000BF7B681B6803F00103002BBF
:1048100047D0FFF7F6FD3862FFF7EFFEF8613B6A1D
:10482000082B05D03B6A0C2B08D1FB69032B05D163
:104830007B685B68002B34D10123B4E27B685B6842
:10484000B3F5803F02D1FFF7DDFB01E0FFF7E9FBA5
:104850007B685B68002B12D0FEF750F9786208E0A5
:10486000FEF74CF902467B6AD31A642B01D9032365
:1048700099E2FFF7E5FB0346002BF1D011E0FEF7CC
:104880003DF9786208E0FEF739F902467B6AD31AEF
:10489000642B01D9032386E2FFF7D2FB0346002BEA
:1048A000F1D17B681B6803F00203002B4CD0FFF7AB
:1048B000A8FDB861FFF7A1FE7861BB69042B05D0A4
:1048C000BB690C2B0ED17B69022B0BD17B68DB689B
:1048D000002B01D1012366E27B681B691846FFF7B4
:1048E000F1FB31E07B68DB68002B19D0FFF7BAFBE6
:1048F000FEF704F9786208E0FEF700F902467B6AE9
:10490000D31A022B01D903234DE2FFF7C9FB03465B
:10491000002BF1D07B681B691846FFF7D3FB13E02F
:10492000FFF7AFFBFEF7EAF8786208E0FEF7E6F87B
:1049300002467B6AD31A022B01D9032333E2FFF725
:10494000AFFB0346002BF1D17B681B6803F0080323
:10495000002B06D17B681B6803F01003002B00F0CE
:10496000A3807B685B69002B76D07B681B6803F0B3
:104970001003002B46D0FFF766FC0346002B13D133
:10498000FFF73FFCFEF7BAF8786208E0FEF7B6F8EA
:1049900002467B6AD31A022B01D9032303E2FFF7F5
:1049A00052FC0346002BF1D0FFF75FFCFEF7A6F8A0
:1049B000786208E0FEF7A2F802467B6AD31A032B5E
:1049C00001D90323EFE1FFF772FC0346002BF1D07E
:1049D0007B689B691846FFF77CFCFFF723FCFEF71A
:1049E0008DF8786208E0FEF789F802467B6AD31AF0
:1049F000022B01D90323D6E1FFF725FC0346002B48
:104A0000F1D151E0FFF7FDFBFEF778F878620CE09A
:104A10001000002018000020FEF770F802467B6AA4
:104A2000D31A022B01D90323BDE1FFF70CFC034687
:104A3000002BF1D0FFF72AFC08E0FEF75FF80246F2
:104A40007B6AD31A032B01D90323ACE1FFF72FFCB8
:104A50000346002BF1D127E0FFF718FCFEF74EF8D4
:104A6000786208E0FEF74AF802467B6AD31A032B05
:104A700001D9032397E1FFF71AFC0346002BF1D17C
:104A8000FFF7D0FBFEF73AF8786208E0FEF736F859
:104A900002467B6AD31A022B01D9032383E1FFF775
:104AA000D2FB0346002BF1D17B681B6803F00403A3
:104AB000002B5BD0A74B1B6803F48073002B14D131
:104AC000FFF770FAFEF71AF8786208E0FEF716F8BA
:104AD00002467B6AD31A022B01D9032363E19D4B63
:104AE0001B6803F48073002BF0D07B689B68012B5C
:104AF00002D1FFF730FB0CE07B689B68052B04D1EB
:104B0000FFF74BFBFFF727FB03E0FFF735FBFFF752
:104B100055FB7B689B68002B14D0FDF7EFFF786294
:104B20000AE0FDF7EBFF02467B6AD31A41F28832B6
:104B3000934201D9032336E1FFF751FB0346002BD3
:104B4000EFD013E0FDF7DAFF78620AE0FDF7D6FF59
:104B500002467B6AD31A41F28832934201D9032379
:104B600021E1FFF73CFB0346002BEFD17B681B687C
:104B700003F04003002B2CD07B689B6A002B14D0E1
:104B8000FFF7B5FAFDF7BAFF786208E0FDF7B6FF68
:104B900002467B6AD31A022B01D9032303E1FFF7F4
:104BA000C8FA0346002BF1D013E0FFF7B1FAFDF786
:104BB000A5FF786208E0FDF7A1FF02467B6AD31AE1
:104BC000022B01D90323EEE0FFF7B3FA0346002BD3
:104BD000F1D17B68DB6A002B00F0E480FFF711FC69
:104BE00038614FF0B043DB68FB607B68DB6A022B07
:104BF00040F0B480FB6803F003027B681B6B9A42B1
:104C000023D1FB6803F070027B685B6B9A421CD176
:104C1000FB681B0A03F07F027B689B6B9A4214D1EE
:104C2000FB6803F478127B68DB6B9A420DD1FB685A
:104C300003F060627B681B6C9A4206D1FB6803F04C
:104C400060427B685B6C9A425DD03B690C2B58D00C
:104C50004FF0B0431B6803F08063002B01D00123A9
:104C6000A1E0FFF784FCFDF749FF786208E0FDF75B
:104C700045FF02467B6AD31A022B01D9032392E037
:104C80004FF0B0431B6803F00073002BEFD14FF0DF
:104C9000B043DA68304B13407A68116B7A68526B14
:104CA00011437A68926B120211437A68D26B1143F6
:104CB0007A68126C11437A68526C0A434FF0B04123
:104CC0001343CB60FFF744FC4FF0B043DB684FF079
:104CD000B04243F08053D360FDF710FF786208E0E4
:104CE000FDF70CFF02467B6AD31A022B01D903237E
:104CF00059E04FF0B0431B6803F00073002BEFD076
:104D000050E001234FE04FF0B0431B6803F0007305
:104D1000002B47D1FFF71CFC4FF0B043DB684FF08E
:104D2000B04243F08053D360FDF7E8FE786208E0BC
:104D3000FDF7E4FE02467B6AD31A022B01D9032356
:104D400031E04FF0B0431B6803F00073002BEFD04D
:104D500028E000BF000400588C80C1113B690C2B77
:104D60001ED0FFF704FCFDF7C9FE786208E0FDF7EE
:104D7000C5FE02467B6AD31A022B01D9032312E037
:104D80004FF0B0431B6803F00073002BEFD14FF0DE
:104D9000B043DA684FF0B041054B1340CB6001E0FF
:104DA000012300E0002318463437BD4690BD00BF04
:104DB000FCFFFEEE80B584B000AF786039607B68A0
:104DC000002B01D101232DE1984B1B6803F0070351
:104DD0003A689A421BD9954B1B6823F00702934906
:104DE0003B6813430B60FDF789FEF86008E0FDF7B0
:104DF00085FE0246FB68D31A022B01D9032311E179
:104E00008A4B1B6803F007033A689A42EFD17B682C
:104E10001B6803F00203002B16D07B689B681846C2
:104E2000FFF7FBFAFDF76AFEF86008E0FDF766FEA3
:104E30000246FB68D31A022B01D90323F2E0FFF7E5
:104E4000E8FB0346002BF1D07B681B6803F02003CE
:104E5000002B16D07B685B691846FFF7F2FAFDF766
:104E60004DFEF86008E0FDF749FE0246FB68D31AE4
:104E7000022B01D90323D5E0FFF7DDFB0346002B0E
:104E8000F1D07B681B6803F04003002B16D07B68D1
:104E90009B691846FFF7EBFAFDF730FEF86008E073
:104EA000FDF72CFE0246FB68D31A022B01D903231F
:104EB000B8E0FFF7D3FB0346002BF1D07B681B68FB
:104EC00003F00403002B16D07B68DB681846FFF75D
:104ED000E5FAFDF713FEF86008E0FDF70FFE024665
:104EE000FB68D31A022B01D903239BE0FFF7C9FB10
:104EF0000346002BF1D07B681B6803F00803002BEE
:104F000017D07B681B69DB001846FFF7DBFAFDF75B
:104F1000F5FDF86008E0FDF7F1FD0246FB68D31AE5
:104F2000022B01D903237DE0FFF7BDFB0346002BD5
:104F3000F1D07B681B6803F00103002B43D07B6832
:104F40005B68022B06D1FFF77BF80346002B1ED1CE
:104F5000012367E07B685B68032B06D1FFF716FB34
:104F60000346002B13D101235CE07B685B68002BB8
:104F700006D1FFF7E3F90346002B08D1012351E0E6
:104F8000FFF78EF80346002B01D101234AE07B682E
:104F90005B681846FFF721FAFDF7B0FDF8600AE0FC
:104FA000FDF7ACFD0246FB68D31A41F2883293420A
:104FB00001D9032336E0FFF724FA02467B685B68D9
:104FC0009B009A42ECD1194B1B6803F007033A6827
:104FD0009A421BD2154B1B6823F0070213493B680A
:104FE00013430B60FDF78AFDF86008E0FDF786FDCE
:104FF0000246FB68D31A022B01D9032312E00B4BA4
:105000001B6803F007033A689A42EFD100F080F87A
:105010000346074A1360FDF77DFD03461846FDF77A
:105020001FFD034618461037BD4680BD004000589E
:105030001000002090B585B000AFFFF7E2F978606E
:105040007B68002B0AD1FFF79EF903461B0903F08A
:105050000F032B4A52F82330FB604BE07B68042B94
:1050600002D1284BFB6045E07B68082B0AD1FEF794
:10507000B7FF0346012B02D1234BFB603AE0234BE1
:10508000FB6037E0FFF7B9FA38603B68022B03D0CA
:105090003B68032B03D00DE01A4BBB6015E0FEF715
:1050A0009FFF0346012B02D1174BBB600DE0174B4E
:1050B000BB600AE0FFF767F903461B0903F00F0323
:1050C0000F4A52F82330BB6000BFFFF771FA024667
:1050D000BB6803FB02F4FFF784FA03461B090133A4
:1050E000B4FBF3F4FFF771FA03465B0F0133B4FB33
:1050F000F3F3FB60FB6818461437BD4690BD00BF54
:10510000E8CB00080024F40000093D0000127A00FA
:1051100098B500AFFFF78EFF0446FFF7E7F90346A7
:105120001B0903F00F03034A52F82330B4FBF3F3D7
:10513000184698BD88CB000898B500AFFFF7E8FF88
:105140000446FFF7EDF903461B0A03F00703044A80
:1051500052F8233003F01F0324FA03F3184698BDD6
:10516000C8CB000898B500AFFFF7D2FF0446FFF7A1
:10517000E3F90346DB0A03F00703044A52F823303D
:1051800003F01F0324FA03F3184698BDC8CB0008A8
:1051900090B585B000AF78607B68B02B03D9154B14
:1051A000DB6AFB6007E07B681B0903F00F03114A11
:1051B00052F82330FB60FFF7A5F903461B0903F003
:1051C0000F030D4A52F82330FA68B2FBF3F3BB60C9
:1051D000BB680A4AA2FB03239C0CFEF7F3FE0346BE
:1051E0001946204600F00CF8034618461437BD4611
:1051F00090BD00BFE8CB000888CB000883DE1B43CE
:1052000090B593B000AF78603960374B07F1280450
:105210000FCB84E80F00354A07F11C0307CA83E867
:105220000700334B07F10C040FCB84E80F00002379
:105230007B643B68B3F5007F1AD100233B6413E025
:105240003B6C9B0048333B4453F8203C7A689A42BD
:1052500007D83B6C9B0048333B4453F83C3C7B6491
:1052600020E03B6C01333B643B6C032BE8D919E035
:105270000023FB6313E0FB6B9B0048333B4453F874
:105280002C3C7A689A4207D8FB6B9B0048333B441E
:1052900053F83C3C7B6405E0FB6B0133FB63FB6B29
:1052A000022BE8D9134B1B6823F0070211497B6CD2
:1052B00013430B60FDF722FCB86308E0FDF71EFC0A
:1052C0000246BB6BD31A022B01D9032307E0094B1B
:1052D0001B6803F007037A6C9A42EFD1002318464B
:1052E0004C37BD4690BD00BF5CCB00086CCB0008BE
:1052F00078CB00080040005880B400AF4FF0B043B6
:10530000D3F8903003F00103012B01D1012300E019
:1053100000231846BD465DF8047B704780B400AF9B
:105320004FF0B043D3F8903003F00203022B01D1C9
:10533000012300E000231846BD465DF8047B70475A
:1053400080B483B000AF78604FF0B043D3F89430AE
:1053500023F440424FF0B0417B681343C1F89430CE
:1053600000BF0C37BD465DF8047B704780B483B046
:1053700000AF78604FF0B0435B6A23F003024FF058
:10538000B0417B6813434B6200BF0C37BD465DF8EC
:10539000047B704780B483B000AF78604FF0B043B7
:1053A0005B6A23F030024FF0B0417B6813434B62DD
:1053B00000BF0C37BD465DF8047B704780B483B0F6
:1053C00000AF78604FF0B043D3F8883023F0030289
:1053D0004FF0B0417B681343C1F8883000BF0C37F1
:1053E000BD465DF8047B704780B483B000AF786041
:1053F0004FF0B043D3F8883023F440624FF0B0410F
:105400007B681343C1F8883000BF0C37BD465DF898
:10541000047B704780B483B000AF78604FF0B04336
:10542000D3F888207B681B0903F47F23DB431A40F1
:105430007B681B0103F47F234FF0B0411343C1F895
:10544000883000BF0C37BD465DF8047B704780B4E0
:1054500083B000AF78604FF0B043D3F888207B680A
:105460001B0C1B04DB431A407B681B044FF0B0414C
:105470001343C1F8883000BF0C37BD465DF8047B8C
:10548000704780B483B000AF78604FF0B043D3F87A
:10549000883023F440024FF0B0417B681343C1F8D9
:1054A000883000BF0C37BD465DF8047B704780B480
:1054B00083B000AF78604FF0B043D3F8883023F06A
:1054C00040424FF0B0417B681343C1F8883000BFC1
:1054D0000C37BD465DF8047B704780B483B000AFE5
:1054E00078604FF0B043D3F8883023F040624FF03B
:1054F000B0417B681343C1F8883000BF0C37BD460C
:105500005DF8047B704780B582B000AF7860786842
:10551000FFF7E3FF00BF0837BD4680BD80B483B00E
:1055200000AF78604FF0B043D3F8883023F040529A
:105530004FF0B0417B681343C1F8883000BF0C378F
:10554000BD465DF8047B704780B483B000AF7860DF
:105550004FF0B043D3F8903023F440724FF0B04195
:105560007B681343C1F8903000BF0C37BD465DF82F
:10557000047B704780B400AF4FF0B043D3F8903055
:1055800003F440731846BD465DF8047B704780B451
:1055900000AF4FF0B043D3F890304FF0B04243F437
:1055A0008033C2F8903000BFBD465DF8047B704781
:1055B00080B400AF4FF0B043D3F890304FF0B0421A
:1055C00023F48033C2F8903000BFBD465DF8047B01
:1055D000704780B400AF4FF0B0431B684FF0B0424B
:1055E00043F08063136000BFBD465DF8047B7047E5
:1055F00080B400AF4FF0B0431B684FF0B04223F0CF
:105600008063136000BFBD465DF8047B704780B4C3
:1056100000AF4FF0B0431B6803F00063B3F1006FBD
:1056200001D1012300E000231846BD465DF8047B4C
:10563000704780B588B000AF78600023FB77002307
:10564000BB777B681B6803F04003002B34D07B687A
:105650001B6BB3F5400F21D0B3F5400F1BD8B3F54A
:10566000000F1DD0B3F5000F15D8002B0BD0B3F5EC
:10567000800F10D14FF0B043DB684FF0B04243F4DD
:105680008033D3600DE07B680433184600F047F99F
:105690000346FB7705E00123FB7702E000BF00E053
:1056A00000BFFB7F002B05D17B681B6B1846FFF703
:1056B000E8FE01E0FB7FBB777B681B6803F40063B7
:1056C000002B46D0FFF756FFB8617B681B6CBA69A8
:1056D0009A423CD0FEF766FCBB69002B05D17B6883
:1056E0001B6C1846FFF730FF2EE04FF0B043D3F8A5
:1056F00090307B61FFF74BFFFFF75AFF7B6923F484
:1057000040727B681B6C13437B614FF0B0427B6936
:10571000C2F89030FFF7F0FD0346012B14D1FDF7DE
:10572000EDF938610BE0FDF7E9F902463B69D31A60
:1057300041F28832934202D90323FB7704E0FFF75A
:10574000EDFD0346012BEED1FB7FBB7701E0FB7F34
:10575000BB777B681B6803F00103002B04D07B68D8
:105760009B691846FFF72AFE7B681B6803F002035B
:10577000002B04D07B68DB691846FFF735FE7B6899
:105780001B6803F01003002B04D07B689B6A18464B
:10579000FFF75DFE7B681B6803F02003002B04D03D
:1057A0007B68DB6A1846FFF752FE7B681B6803F0D4
:1057B0000403002B04D07B681B6A1846FFF72AFEFF
:1057C0007B681B6803F00803002B04D07B685B6ACE
:1057D0001846FFF71FFE7B681B6803F48073002BDD
:1057E00022D07B685B6B1846FFF78DFE7B685B6B96
:1057F000B3F1006F07D14FF0B043DB684FF0B04218
:1058000043F08073D3607B685B6BB3F1806F0BD127
:105810007B680433184600F0DDF80346FB77FB7F16
:10582000002B01D0FB7FBB777B681B6803F4007300
:10583000002B2BD07B689B6BB3F1804F08D07B682B
:105840009B6BB3F1004F03D07B689B6B002B05D1A2
:105850007B689B6B1846FFF72AFE0AE07B689B6B10
:1058600023F08053FB600020FFF721FEF868FFF76C
:1058700034FE7B689B6BB3F1C05F07D14FF0B04340
:10588000DB684FF0B04243F08073D3607B681B68E5
:1058900003F48063002B22D07B68DB6B1846FFF794
:1058A0003DFE7B68DB6BB3F1005F07D14FF0B04387
:1058B000DB684FF0B04243F48033D3607B68DB6B2E
:1058C000B3F1805F0BD17B680433184600F0DDF83C
:1058D0000346FB77FB7F002B01D0FB7FBB777B6808
:1058E0001B6803F48053002B04D07B685B6C184664
:1058F000FFF726FD7B681B6803F40053002B09D0DB
:105900007B68DB6C1846FFF745FD7B689B6C18468F
:10591000FFF72CFDBB7F18462037BD4680BD80B504
:1059200084B000AF78600023FB73FFF761FEFDF7E2
:10593000E5F8B86009E0FDF7E1F80246BB68D31A64
:10594000022B02D90323FB7304E0FFF760FE03463A
:10595000002BF0D1FB7B002B37D14FF0B0431B69FC
:1059600023F4FE427B681B681B024FF0B0411343D7
:105970000B614FF0B0431B6923F478127B685B68BE
:105980004FF0B04113430B61FFF723FEFDF7B6F86C
:10599000B86009E0FDF7B2F80246BB68D31A022BE3
:1059A00002D90323FB7304E0FFF731FE0346012B0A
:1059B000F0D1FB7B002B08D14FF0B0431A697B6814
:1059C0001B694FF0B04113430B61FB7B1846103746
:1059D000BD4680BD80B584B000AF78600023FB7306
:1059E000FFF706FEFDF78AF8B86009E0FDF786F8D4
:1059F0000246BB68D31A022B02D90323FB7304E0CF
:105A0000FFF705FE0346002BF0D1FB7B002B37D1BF
:105A10004FF0B0431B6923F4FE427B681B681B02F6
:105A20004FF0B04113430B614FF0B0431B6923F0BB
:105A300060627B689B684FF0B04113430B61FFF7D6
:105A4000C8FDFDF75BF8B86009E0FDF757F80246BE
:105A5000BB68D31A022B02D90323FB7304E0FFF7C0
:105A6000D6FD0346012BF0D1FB7B002B08D14FF074
:105A7000B0431A697B681B694FF0B04113430B6157
:105A8000FB7B18461037BD4680BD80B584B000AFA3
:105A900078600023FB73FFF7ABFDFDF72FF8B860CC
:105AA00009E0FDF72BF80246BB68D31A022B02D996
:105AB0000323FB7304E0FFF7AAFD0346002BF0D19C
:105AC000FB7B002B37D14FF0B0431B6923F4FE4220
:105AD0007B681B681B024FF0B04113430B614FF012
